{
	"data": {
		"bytecode": {
			"linkReferences": {},
			"object": "608060405234801561000f575f80fd5b50604051610c1f380380610c1f833981810160405281019061003191906101dc565b825f80019081610041919061044c565b50815f60010181905550805f6002018190555050505061051b565b5f604051905090565b5f80fd5b5f80fd5b5f80fd5b5f80fd5b5f601f19601f8301169050919050565b7f4e487b71000000000000000000000000000000000000000000000000000000005f52604160045260245ffd5b6100bb82610075565b810181811067ffffffffffffffff821117156100da576100d9610085565b5b80604052505050565b5f6100ec61005c565b90506100f882826100b2565b919050565b5f67ffffffffffffffff82111561011757610116610085565b5b61012082610075565b9050602081019050919050565b8281835e5f83830152505050565b5f61014d610148846100fd565b6100e3565b90508281526020810184848401111561016957610168610071565b5b61017484828561012d565b509392505050565b5f82601f8301126101905761018f61006d565b5b81516101a084826020860161013b565b91505092915050565b5f819050919050565b6101bb816101a9565b81146101c5575f80fd5b50565b5f815190506101d6816101b2565b92915050565b5f805f606084860312156101f3576101f2610065565b5b5f84015167ffffffffffffffff8111156102105761020f610069565b5b61021c8682870161017c565b935050602061022d868287016101c8565b925050604061023e868287016101c8565b9150509250925092565b5f81519050919050565b7f4e487b71000000000000000000000000000000000000000000000000000000005f52602260045260245ffd5b5f600282049050600182168061029657607f821691505b6020821081036102a9576102a8610252565b5b50919050565b5f819050815f5260205f209050919050565b5f6020601f8301049050919050565b5f82821b905092915050565b5f6008830261030b7fffffffffffffffffffffffffffffffffffffffffffffffffffffffffffffffff826102d0565b61031586836102d0565b95508019841693508086168417925050509392505050565b5f819050919050565b5f61035061034b610346846101a9565b61032d565b6101a9565b9050919050565b5f819050919050565b61036983610336565b61037d61037582610357565b8484546102dc565b825550505050565b5f90565b610391610385565b61039c818484610360565b505050565b5b818110156103bf576103b45f82610389565b6001810190506103a2565b5050565b601f821115610404576103d5816102af565b6103de846102c1565b810160208510156103ed578190505b6104016103f9856102c1565b8301826103a1565b50505b505050565b5f82821c905092915050565b5f6104245f1984600802610409565b1980831691505092915050565b5f61043c8383610415565b9150826002028217905092915050565b61045582610248565b67ffffffffffffffff81111561046e5761046d610085565b5b610478825461027f565b6104838282856103c3565b5f60209050601f8311600181146104b4575f84156104a2578287015190505b6104ac8582610431565b865550610513565b601f1984166104c2866102af565b5f5b828110156104e9578489015182556001820191506020850194506020810190506104c4565b868310156105065784890151610502601f891682610415565b8355505b6001600288020188555050505b505050505050565b6106f7806105285f395ff3fe608060405234801561000f575f80fd5b5060043610610034575f3560e01c806386b714e214610038578063a70d5a1b14610058575b5f80fd5b610040610074565b60405161004f939291906101e9565b60405180910390f35b610072600480360381019061006d919061038c565b610110565b005b5f805f01805461008390610425565b80601f01602080910402602001604051908101604052809291908181526020018280546100af90610425565b80156100fa5780601f106100d1576101008083540402835291602001916100fa565b820191905f5260205f20905b8154815290600101906020018083116100dd57829003601f168201915b5050505050908060010154908060020154905083565b5f6040518060600160405280848152602001858152602001838152509050805f80820151815f01908161014391906105f2565b50602082015181600101556040820151816002015590505050505050565b5f81519050919050565b5f82825260208201905092915050565b8281835e5f83830152505050565b5f601f19601f8301169050919050565b5f6101a382610161565b6101ad818561016b565b93506101bd81856020860161017b565b6101c681610189565b840191505092915050565b5f819050919050565b6101e3816101d1565b82525050565b5f6060820190508181035f8301526102018186610199565b905061021060208301856101da565b61021d60408301846101da565b949350505050565b5f604051905090565b5f80fd5b5f80fd5b61023f816101d1565b8114610249575f80fd5b50565b5f8135905061025a81610236565b92915050565b5f80fd5b5f80fd5b7f4e487b71000000000000000000000000000000000000000000000000000000005f52604160045260245ffd5b61029e82610189565b810181811067ffffffffffffffff821117156102bd576102bc610268565b5b80604052505050565b5f6102cf610225565b90506102db8282610295565b919050565b5f67ffffffffffffffff8211156102fa576102f9610268565b5b61030382610189565b9050602081019050919050565b828183375f83830152505050565b5f61033061032b846102e0565b6102c6565b90508281526020810184848401111561034c5761034b610264565b5b610357848285610310565b509392505050565b5f82601f83011261037357610372610260565b5b813561038384826020860161031e565b91505092915050565b5f805f606084860312156103a3576103a261022e565b5b5f6103b08682870161024c565b935050602084013567ffffffffffffffff8111156103d1576103d0610232565b5b6103dd8682870161035f565b92505060406103ee8682870161024c565b9150509250925092565b7f4e487b71000000000000000000000000000000000000000000000000000000005f52602260045260245ffd5b5f600282049050600182168061043c57607f821691505b60208210810361044f5761044e6103f8565b5b50919050565b5f819050815f5260205f209050919050565b5f6020601f8301049050919050565b5f82821b905092915050565b5f600883026104b17fffffffffffffffffffffffffffffffffffffffffffffffffffffffffffffffff82610476565b6104bb8683610476565b95508019841693508086168417925050509392505050565b5f819050919050565b5f6104f66104f16104ec846101d1565b6104d3565b6101d1565b9050919050565b5f819050919050565b61050f836104dc565b61052361051b826104fd565b848454610482565b825550505050565b5f90565b61053761052b565b610542818484610506565b505050565b5b818110156105655761055a5f8261052f565b600181019050610548565b5050565b601f8211156105aa5761057b81610455565b61058484610467565b81016020851015610593578190505b6105a761059f85610467565b830182610547565b50505b505050565b5f82821c905092915050565b5f6105ca5f19846008026105af565b1980831691505092915050565b5f6105e283836105bb565b9150826002028217905092915050565b6105fb82610161565b67ffffffffffffffff81111561061457610613610268565b5b61061e8254610425565b610629828285610569565b5f60209050601f83116001811461065a575f8415610648578287015190505b61065285826105d7565b8655506106b9565b601f19841661066886610455565b5f5b8281101561068f5784890151825560018201915060208501945060208101905061066a565b868310156106ac57848901516106a8601f8916826105bb565b8355505b6001600288020188555050505b50505050505056fea2646970667358221220401232a9d314cb7a85a29ac7a814642b2a04b074bcbe07c982584c1f0c83766c64736f6c634300081a0033",
			"opcodes": "PUSH1 0x80 PUSH1 0x40 MSTORE CALLVALUE DUP1 ISZERO PUSH2 0xF JUMPI PUSH0 DUP1 REVERT JUMPDEST POP PUSH1 0x40 MLOAD PUSH2 0xC1F CODESIZE SUB DUP1 PUSH2 0xC1F DUP4 CODECOPY DUP2 DUP2 ADD PUSH1 0x40 MSTORE DUP2 ADD SWAP1 PUSH2 0x31 SWAP2 SWAP1 PUSH2 0x1DC JUMP JUMPDEST DUP3 PUSH0 DUP1 ADD SWAP1 DUP2 PUSH2 0x41 SWAP2 SWAP1 PUSH2 0x44C JUMP JUMPDEST POP DUP2 PUSH0 PUSH1 0x1 ADD DUP2 SWAP1 SSTORE POP DUP1 PUSH0 PUSH1 0x2 ADD DUP2 SWAP1 SSTORE POP POP POP POP PUSH2 0x51B JUMP JUMPDEST PUSH0 PUSH1 0x40 MLOAD SWAP1 POP SWAP1 JUMP JUMPDEST PUSH0 DUP1 REVERT JUMPDEST PUSH0 DUP1 REVERT JUMPDEST PUSH0 DUP1 REVERT JUMPDEST PUSH0 DUP1 REVERT JUMPDEST PUSH0 PUSH1 0x1F NOT PUSH1 0x1F DUP4 ADD AND SWAP1 POP SWAP2 SWAP1 POP JUMP JUMPDEST PUSH32 0x4E487B7100000000000000000000000000000000000000000000000000000000 PUSH0 MSTORE PUSH1 0x41 PUSH1 0x4 MSTORE PUSH1 0x24 PUSH0 REVERT JUMPDEST PUSH2 0xBB DUP3 PUSH2 0x75 JUMP JUMPDEST DUP2 ADD DUP2 DUP2 LT PUSH8 0xFFFFFFFFFFFFFFFF DUP3 GT OR ISZERO PUSH2 0xDA JUMPI PUSH2 0xD9 PUSH2 0x85 JUMP JUMPDEST JUMPDEST DUP1 PUSH1 0x40 MSTORE POP POP POP JUMP JUMPDEST PUSH0 PUSH2 0xEC PUSH2 0x5C JUMP JUMPDEST SWAP1 POP PUSH2 0xF8 DUP3 DUP3 PUSH2 0xB2 JUMP JUMPDEST SWAP2 SWAP1 POP JUMP JUMPDEST PUSH0 PUSH8 0xFFFFFFFFFFFFFFFF DUP3 GT ISZERO PUSH2 0x117 JUMPI PUSH2 0x116 PUSH2 0x85 JUMP JUMPDEST JUMPDEST PUSH2 0x120 DUP3 PUSH2 0x75 JUMP JUMPDEST SWAP1 POP PUSH1 0x20 DUP2 ADD SWAP1 POP SWAP2 SWAP1 POP JUMP JUMPDEST DUP3 DUP2 DUP4 MCOPY PUSH0 DUP4 DUP4 ADD MSTORE POP POP POP JUMP JUMPDEST PUSH0 PUSH2 0x14D PUSH2 0x148 DUP5 PUSH2 0xFD JUMP JUMPDEST PUSH2 0xE3 JUMP JUMPDEST SWAP1 POP DUP3 DUP2 MSTORE PUSH1 0x20 DUP2 ADD DUP5 DUP5 DUP5 ADD GT ISZERO PUSH2 0x169 JUMPI PUSH2 0x168 PUSH2 0x71 JUMP JUMPDEST JUMPDEST PUSH2 0x174 DUP5 DUP3 DUP6 PUSH2 0x12D JUMP JUMPDEST POP SWAP4 SWAP3 POP POP POP JUMP JUMPDEST PUSH0 DUP3 PUSH1 0x1F DUP4 ADD SLT PUSH2 0x190 JUMPI PUSH2 0x18F PUSH2 0x6D JUMP JUMPDEST JUMPDEST DUP2 MLOAD PUSH2 0x1A0 DUP5 DUP3 PUSH1 0x20 DUP7 ADD PUSH2 0x13B JUMP JUMPDEST SWAP2 POP POP SWAP3 SWAP2 POP POP JUMP JUMPDEST PUSH0 DUP2 SWAP1 POP SWAP2 SWAP1 POP JUMP JUMPDEST PUSH2 0x1BB DUP2 PUSH2 0x1A9 JUMP JUMPDEST DUP2 EQ PUSH2 0x1C5 JUMPI PUSH0 DUP1 REVERT JUMPDEST POP JUMP JUMPDEST PUSH0 DUP2 MLOAD SWAP1 POP PUSH2 0x1D6 DUP2 PUSH2 0x1B2 JUMP JUMPDEST SWAP3 SWAP2 POP POP JUMP JUMPDEST PUSH0 DUP1 PUSH0 PUSH1 0x60 DUP5 DUP7 SUB SLT ISZERO PUSH2 0x1F3 JUMPI PUSH2 0x1F2 PUSH2 0x65 JUMP JUMPDEST JUMPDEST PUSH0 DUP5 ADD MLOAD PUSH8 0xFFFFFFFFFFFFFFFF DUP2 GT ISZERO PUSH2 0x210 JUMPI PUSH2 0x20F PUSH2 0x69 JUMP JUMPDEST JUMPDEST PUSH2 0x21C DUP7 DUP3 DUP8 ADD PUSH2 0x17C JUMP JUMPDEST SWAP4 POP POP PUSH1 0x20 PUSH2 0x22D DUP7 DUP3 DUP8 ADD PUSH2 0x1C8 JUMP JUMPDEST SWAP3 POP POP PUSH1 0x40 PUSH2 0x23E DUP7 DUP3 DUP8 ADD PUSH2 0x1C8 JUMP JUMPDEST SWAP2 POP POP SWAP3 POP SWAP3 POP SWAP3 JUMP JUMPDEST PUSH0 DUP2 MLOAD SWAP1 POP SWAP2 SWAP1 POP JUMP JUMPDEST PUSH32 0x4E487B7100000000000000000000000000000000000000000000000000000000 PUSH0 MSTORE PUSH1 0x22 PUSH1 0x4 MSTORE PUSH1 0x24 PUSH0 REVERT JUMPDEST PUSH0 PUSH1 0x2 DUP3 DIV SWAP1 POP PUSH1 0x1 DUP3 AND DUP1 PUSH2 0x296 JUMPI PUSH1 0x7F DUP3 AND SWAP2 POP JUMPDEST PUSH1 0x20 DUP3 LT DUP2 SUB PUSH2 0x2A9 JUMPI PUSH2 0x2A8 PUSH2 0x252 JUMP JUMPDEST JUMPDEST POP SWAP2 SWAP1 POP JUMP JUMPDEST PUSH0 DUP2 SWAP1 POP DUP2 PUSH0 MSTORE PUSH1 0x20 PUSH0 KECCAK256 SWAP1 POP SWAP2 SWAP1 POP JUMP JUMPDEST PUSH0 PUSH1 0x20 PUSH1 0x1F DUP4 ADD DIV SWAP1 POP SWAP2 SWAP1 POP JUMP JUMPDEST PUSH0 DUP3 DUP3 SHL SWAP1 POP SWAP3 SWAP2 POP POP JUMP JUMPDEST PUSH0 PUSH1 0x8 DUP4 MUL PUSH2 0x30B PUSH32 0xFFFFFFFFFFFFFFFFFFFFFFFFFFFFFFFFFFFFFFFFFFFFFFFFFFFFFFFFFFFFFFFF DUP3 PUSH2 0x2D0 JUMP JUMPDEST PUSH2 0x315 DUP7 DUP4 PUSH2 0x2D0 JUMP JUMPDEST SWAP6 POP DUP1 NOT DUP5 AND SWAP4 POP DUP1 DUP7 AND DUP5 OR SWAP3 POP POP POP SWAP4 SWAP3 POP POP POP JUMP JUMPDEST PUSH0 DUP2 SWAP1 POP SWAP2 SWAP1 POP JUMP JUMPDEST PUSH0 PUSH2 0x350 PUSH2 0x34B PUSH2 0x346 DUP5 PUSH2 0x1A9 JUMP JUMPDEST PUSH2 0x32D JUMP JUMPDEST PUSH2 0x1A9 JUMP JUMPDEST SWAP1 POP SWAP2 SWAP1 POP JUMP JUMPDEST PUSH0 DUP2 SWAP1 POP SWAP2 SWAP1 POP JUMP JUMPDEST PUSH2 0x369 DUP4 PUSH2 0x336 JUMP JUMPDEST PUSH2 0x37D PUSH2 0x375 DUP3 PUSH2 0x357 JUMP JUMPDEST DUP5 DUP5 SLOAD PUSH2 0x2DC JUMP JUMPDEST DUP3 SSTORE POP POP POP POP JUMP JUMPDEST PUSH0 SWAP1 JUMP JUMPDEST PUSH2 0x391 PUSH2 0x385 JUMP JUMPDEST PUSH2 0x39C DUP2 DUP5 DUP5 PUSH2 0x360 JUMP JUMPDEST POP POP POP JUMP JUMPDEST JUMPDEST DUP2 DUP2 LT ISZERO PUSH2 0x3BF JUMPI PUSH2 0x3B4 PUSH0 DUP3 PUSH2 0x389 JUMP JUMPDEST PUSH1 0x1 DUP2 ADD SWAP1 POP PUSH2 0x3A2 JUMP JUMPDEST POP POP JUMP JUMPDEST PUSH1 0x1F DUP3 GT ISZERO PUSH2 0x404 JUMPI PUSH2 0x3D5 DUP2 PUSH2 0x2AF JUMP JUMPDEST PUSH2 0x3DE DUP5 PUSH2 0x2C1 JUMP JUMPDEST DUP2 ADD PUSH1 0x20 DUP6 LT ISZERO PUSH2 0x3ED JUMPI DUP2 SWAP1 POP JUMPDEST PUSH2 0x401 PUSH2 0x3F9 DUP6 PUSH2 0x2C1 JUMP JUMPDEST DUP4 ADD DUP3 PUSH2 0x3A1 JUMP JUMPDEST POP POP JUMPDEST POP POP POP JUMP JUMPDEST PUSH0 DUP3 DUP3 SHR SWAP1 POP SWAP3 SWAP2 POP POP JUMP JUMPDEST PUSH0 PUSH2 0x424 PUSH0 NOT DUP5 PUSH1 0x8 MUL PUSH2 0x409 JUMP JUMPDEST NOT DUP1 DUP4 AND SWAP2 POP POP SWAP3 SWAP2 POP POP JUMP JUMPDEST PUSH0 PUSH2 0x43C DUP4 DUP4 PUSH2 0x415 JUMP JUMPDEST SWAP2 POP DUP3 PUSH1 0x2 MUL DUP3 OR SWAP1 POP SWAP3 SWAP2 POP POP JUMP JUMPDEST PUSH2 0x455 DUP3 PUSH2 0x248 JUMP JUMPDEST PUSH8 0xFFFFFFFFFFFFFFFF DUP2 GT ISZERO PUSH2 0x46E JUMPI PUSH2 0x46D PUSH2 0x85 JUMP JUMPDEST JUMPDEST PUSH2 0x478 DUP3 SLOAD PUSH2 0x27F JUMP JUMPDEST PUSH2 0x483 DUP3 DUP3 DUP6 PUSH2 0x3C3 JUMP JUMPDEST PUSH0 PUSH1 0x20 SWAP1 POP PUSH1 0x1F DUP4 GT PUSH1 0x1 DUP2 EQ PUSH2 0x4B4 JUMPI PUSH0 DUP5 ISZERO PUSH2 0x4A2 JUMPI DUP3 DUP8 ADD MLOAD SWAP1 POP JUMPDEST PUSH2 0x4AC DUP6 DUP3 PUSH2 0x431 JUMP JUMPDEST DUP7 SSTORE POP PUSH2 0x513 JUMP JUMPDEST PUSH1 0x1F NOT DUP5 AND PUSH2 0x4C2 DUP7 PUSH2 0x2AF JUMP JUMPDEST PUSH0 JUMPDEST DUP3 DUP2 LT ISZERO PUSH2 0x4E9 JUMPI DUP5 DUP10 ADD MLOAD DUP3 SSTORE PUSH1 0x1 DUP3 ADD SWAP2 POP PUSH1 0x20 DUP6 ADD SWAP5 POP PUSH1 0x20 DUP2 ADD SWAP1 POP PUSH2 0x4C4 JUMP JUMPDEST DUP7 DUP4 LT ISZERO PUSH2 0x506 JUMPI DUP5 DUP10 ADD MLOAD PUSH2 0x502 PUSH1 0x1F DUP10 AND DUP3 PUSH2 0x415 JUMP JUMPDEST DUP4 SSTORE POP JUMPDEST PUSH1 0x1 PUSH1 0x2 DUP9 MUL ADD DUP9 SSTORE POP POP POP JUMPDEST POP POP POP POP POP POP JUMP JUMPDEST PUSH2 0x6F7 DUP1 PUSH2 0x528 PUSH0 CODECOPY PUSH0 RETURN INVALID PUSH1 0x80 PUSH1 0x40 MSTORE CALLVALUE DUP1 ISZERO PUSH2 0xF JUMPI PUSH0 DUP1 REVERT JUMPDEST POP PUSH1 0x4 CALLDATASIZE LT PUSH2 0x34 JUMPI PUSH0 CALLDATALOAD PUSH1 0xE0 SHR DUP1 PUSH4 0x86B714E2 EQ PUSH2 0x38 JUMPI DUP1 PUSH4 0xA70D5A1B EQ PUSH2 0x58 JUMPI JUMPDEST PUSH0 DUP1 REVERT JUMPDEST PUSH2 0x40 PUSH2 0x74 JUMP JUMPDEST PUSH1 0x40 MLOAD PUSH2 0x4F SWAP4 SWAP3 SWAP2 SWAP1 PUSH2 0x1E9 JUMP JUMPDEST PUSH1 0x40 MLOAD DUP1 SWAP2 SUB SWAP1 RETURN JUMPDEST PUSH2 0x72 PUSH1 0x4 DUP1 CALLDATASIZE SUB DUP2 ADD SWAP1 PUSH2 0x6D SWAP2 SWAP1 PUSH2 0x38C JUMP JUMPDEST PUSH2 0x110 JUMP JUMPDEST STOP JUMPDEST PUSH0 DUP1 PUSH0 ADD DUP1 SLOAD PUSH2 0x83 SWAP1 PUSH2 0x425 JUMP JUMPDEST DUP1 PUSH1 0x1F ADD PUSH1 0x20 DUP1 SWAP2 DIV MUL PUSH1 0x20 ADD PUSH1 0x40 MLOAD SWAP1 DUP2 ADD PUSH1 0x40 MSTORE DUP1 SWAP3 SWAP2 SWAP1 DUP2 DUP2 MSTORE PUSH1 0x20 ADD DUP3 DUP1 SLOAD PUSH2 0xAF SWAP1 PUSH2 0x425 JUMP JUMPDEST DUP1 ISZERO PUSH2 0xFA JUMPI DUP1 PUSH1 0x1F LT PUSH2 0xD1 JUMPI PUSH2 0x100 DUP1 DUP4 SLOAD DIV MUL DUP4 MSTORE SWAP2 PUSH1 0x20 ADD SWAP2 PUSH2 0xFA JUMP JUMPDEST DUP3 ADD SWAP2 SWAP1 PUSH0 MSTORE PUSH1 0x20 PUSH0 KECCAK256 SWAP1 JUMPDEST DUP2 SLOAD DUP2 MSTORE SWAP1 PUSH1 0x1 ADD SWAP1 PUSH1 0x20 ADD DUP1 DUP4 GT PUSH2 0xDD JUMPI DUP3 SWAP1 SUB PUSH1 0x1F AND DUP3 ADD SWAP2 JUMPDEST POP POP POP POP POP SWAP1 DUP1 PUSH1 0x1 ADD SLOAD SWAP1 DUP1 PUSH1 0x2 ADD SLOAD SWAP1 POP DUP4 JUMP JUMPDEST PUSH0 PUSH1 0x40 MLOAD DUP1 PUSH1 0x60 ADD PUSH1 0x40 MSTORE DUP1 DUP5 DUP2 MSTORE PUSH1 0x20 ADD DUP6 DUP2 MSTORE PUSH1 0x20 ADD DUP4 DUP2 MSTORE POP SWAP1 POP DUP1 PUSH0 DUP1 DUP3 ADD MLOAD DUP2 PUSH0 ADD SWAP1 DUP2 PUSH2 0x143 SWAP2 SWAP1 PUSH2 0x5F2 JUMP JUMPDEST POP PUSH1 0x20 DUP3 ADD MLOAD DUP2 PUSH1 0x1 ADD SSTORE PUSH1 0x40 DUP3 ADD MLOAD DUP2 PUSH1 0x2 ADD SSTORE SWAP1 POP POP POP POP POP POP JUMP JUMPDEST PUSH0 DUP2 MLOAD SWAP1 POP SWAP2 SWAP1 POP JUMP JUMPDEST PUSH0 DUP3 DUP3 MSTORE PUSH1 0x20 DUP3 ADD SWAP1 POP SWAP3 SWAP2 POP POP JUMP JUMPDEST DUP3 DUP2 DUP4 MCOPY PUSH0 DUP4 DUP4 ADD MSTORE POP POP POP JUMP JUMPDEST PUSH0 PUSH1 0x1F NOT PUSH1 0x1F DUP4 ADD AND SWAP1 POP SWAP2 SWAP1 POP JUMP JUMPDEST PUSH0 PUSH2 0x1A3 DUP3 PUSH2 0x161 JUMP JUMPDEST PUSH2 0x1AD DUP2 DUP6 PUSH2 0x16B JUMP JUMPDEST SWAP4 POP PUSH2 0x1BD DUP2 DUP6 PUSH1 0x20 DUP7 ADD PUSH2 0x17B JUMP JUMPDEST PUSH2 0x1C6 DUP2 PUSH2 0x189 JUMP JUMPDEST DUP5 ADD SWAP2 POP POP SWAP3 SWAP2 POP POP JUMP JUMPDEST PUSH0 DUP2 SWAP1 POP SWAP2 SWAP1 POP JUMP JUMPDEST PUSH2 0x1E3 DUP2 PUSH2 0x1D1 JUMP JUMPDEST DUP3 MSTORE POP POP JUMP JUMPDEST PUSH0 PUSH1 0x60 DUP3 ADD SWAP1 POP DUP2 DUP2 SUB PUSH0 DUP4 ADD MSTORE PUSH2 0x201 DUP2 DUP7 PUSH2 0x199 JUMP JUMPDEST SWAP1 POP PUSH2 0x210 PUSH1 0x20 DUP4 ADD DUP6 PUSH2 0x1DA JUMP JUMPDEST PUSH2 0x21D PUSH1 0x40 DUP4 ADD DUP5 PUSH2 0x1DA JUMP JUMPDEST SWAP5 SWAP4 POP POP POP POP JUMP JUMPDEST PUSH0 PUSH1 0x40 MLOAD SWAP1 POP SWAP1 JUMP JUMPDEST PUSH0 DUP1 REVERT JUMPDEST PUSH0 DUP1 REVERT JUMPDEST PUSH2 0x23F DUP2 PUSH2 0x1D1 JUMP JUMPDEST DUP2 EQ PUSH2 0x249 JUMPI PUSH0 DUP1 REVERT JUMPDEST POP JUMP JUMPDEST PUSH0 DUP2 CALLDATALOAD SWAP1 POP PUSH2 0x25A DUP2 PUSH2 0x236 JUMP JUMPDEST SWAP3 SWAP2 POP POP JUMP JUMPDEST PUSH0 DUP1 REVERT JUMPDEST PUSH0 DUP1 REVERT JUMPDEST PUSH32 0x4E487B7100000000000000000000000000000000000000000000000000000000 PUSH0 MSTORE PUSH1 0x41 PUSH1 0x4 MSTORE PUSH1 0x24 PUSH0 REVERT JUMPDEST PUSH2 0x29E DUP3 PUSH2 0x189 JUMP JUMPDEST DUP2 ADD DUP2 DUP2 LT PUSH8 0xFFFFFFFFFFFFFFFF DUP3 GT OR ISZERO PUSH2 0x2BD JUMPI PUSH2 0x2BC PUSH2 0x268 JUMP JUMPDEST JUMPDEST DUP1 PUSH1 0x40 MSTORE POP POP POP JUMP JUMPDEST PUSH0 PUSH2 0x2CF PUSH2 0x225 JUMP JUMPDEST SWAP1 POP PUSH2 0x2DB DUP3 DUP3 PUSH2 0x295 JUMP JUMPDEST SWAP2 SWAP1 POP JUMP JUMPDEST PUSH0 PUSH8 0xFFFFFFFFFFFFFFFF DUP3 GT ISZERO PUSH2 0x2FA JUMPI PUSH2 0x2F9 PUSH2 0x268 JUMP JUMPDEST JUMPDEST PUSH2 0x303 DUP3 PUSH2 0x189 JUMP JUMPDEST SWAP1 POP PUSH1 0x20 DUP2 ADD SWAP1 POP SWAP2 SWAP1 POP JUMP JUMPDEST DUP3 DUP2 DUP4 CALLDATACOPY PUSH0 DUP4 DUP4 ADD MSTORE POP POP POP JUMP JUMPDEST PUSH0 PUSH2 0x330 PUSH2 0x32B DUP5 PUSH2 0x2E0 JUMP JUMPDEST PUSH2 0x2C6 JUMP JUMPDEST SWAP1 POP DUP3 DUP2 MSTORE PUSH1 0x20 DUP2 ADD DUP5 DUP5 DUP5 ADD GT ISZERO PUSH2 0x34C JUMPI PUSH2 0x34B PUSH2 0x264 JUMP JUMPDEST JUMPDEST PUSH2 0x357 DUP5 DUP3 DUP6 PUSH2 0x310 JUMP JUMPDEST POP SWAP4 SWAP3 POP POP POP JUMP JUMPDEST PUSH0 DUP3 PUSH1 0x1F DUP4 ADD SLT PUSH2 0x373 JUMPI PUSH2 0x372 PUSH2 0x260 JUMP JUMPDEST JUMPDEST DUP2 CALLDATALOAD PUSH2 0x383 DUP5 DUP3 PUSH1 0x20 DUP7 ADD PUSH2 0x31E JUMP JUMPDEST SWAP2 POP POP SWAP3 SWAP2 POP POP JUMP JUMPDEST PUSH0 DUP1 PUSH0 PUSH1 0x60 DUP5 DUP7 SUB SLT ISZERO PUSH2 0x3A3 JUMPI PUSH2 0x3A2 PUSH2 0x22E JUMP JUMPDEST JUMPDEST PUSH0 PUSH2 0x3B0 DUP7 DUP3 DUP8 ADD PUSH2 0x24C JUMP JUMPDEST SWAP4 POP POP PUSH1 0x20 DUP5 ADD CALLDATALOAD PUSH8 0xFFFFFFFFFFFFFFFF DUP2 GT ISZERO PUSH2 0x3D1 JUMPI PUSH2 0x3D0 PUSH2 0x232 JUMP JUMPDEST JUMPDEST PUSH2 0x3DD DUP7 DUP3 DUP8 ADD PUSH2 0x35F JUMP JUMPDEST SWAP3 POP POP PUSH1 0x40 PUSH2 0x3EE DUP7 DUP3 DUP8 ADD PUSH2 0x24C JUMP JUMPDEST SWAP2 POP POP SWAP3 POP SWAP3 POP SWAP3 JUMP JUMPDEST PUSH32 0x4E487B7100000000000000000000000000000000000000000000000000000000 PUSH0 MSTORE PUSH1 0x22 PUSH1 0x4 MSTORE PUSH1 0x24 PUSH0 REVERT JUMPDEST PUSH0 PUSH1 0x2 DUP3 DIV SWAP1 POP PUSH1 0x1 DUP3 AND DUP1 PUSH2 0x43C JUMPI PUSH1 0x7F DUP3 AND SWAP2 POP JUMPDEST PUSH1 0x20 DUP3 LT DUP2 SUB PUSH2 0x44F JUMPI PUSH2 0x44E PUSH2 0x3F8 JUMP JUMPDEST JUMPDEST POP SWAP2 SWAP1 POP JUMP JUMPDEST PUSH0 DUP2 SWAP1 POP DUP2 PUSH0 MSTORE PUSH1 0x20 PUSH0 KECCAK256 SWAP1 POP SWAP2 SWAP1 POP JUMP JUMPDEST PUSH0 PUSH1 0x20 PUSH1 0x1F DUP4 ADD DIV SWAP1 POP SWAP2 SWAP1 POP JUMP JUMPDEST PUSH0 DUP3 DUP3 SHL SWAP1 POP SWAP3 SWAP2 POP POP JUMP JUMPDEST PUSH0 PUSH1 0x8 DUP4 MUL PUSH2 0x4B1 PUSH32 0xFFFFFFFFFFFFFFFFFFFFFFFFFFFFFFFFFFFFFFFFFFFFFFFFFFFFFFFFFFFFFFFF DUP3 PUSH2 0x476 JUMP JUMPDEST PUSH2 0x4BB DUP7 DUP4 PUSH2 0x476 JUMP JUMPDEST SWAP6 POP DUP1 NOT DUP5 AND SWAP4 POP DUP1 DUP7 AND DUP5 OR SWAP3 POP POP POP SWAP4 SWAP3 POP POP POP JUMP JUMPDEST PUSH0 DUP2 SWAP1 POP SWAP2 SWAP1 POP JUMP JUMPDEST PUSH0 PUSH2 0x4F6 PUSH2 0x4F1 PUSH2 0x4EC DUP5 PUSH2 0x1D1 JUMP JUMPDEST PUSH2 0x4D3 JUMP JUMPDEST PUSH2 0x1D1 JUMP JUMPDEST SWAP1 POP SWAP2 SWAP1 POP JUMP JUMPDEST PUSH0 DUP2 SWAP1 POP SWAP2 SWAP1 POP JUMP JUMPDEST PUSH2 0x50F DUP4 PUSH2 0x4DC JUMP JUMPDEST PUSH2 0x523 PUSH2 0x51B DUP3 PUSH2 0x4FD JUMP JUMPDEST DUP5 DUP5 SLOAD PUSH2 0x482 JUMP JUMPDEST DUP3 SSTORE POP POP POP POP JUMP JUMPDEST PUSH0 SWAP1 JUMP JUMPDEST PUSH2 0x537 PUSH2 0x52B JUMP JUMPDEST PUSH2 0x542 DUP2 DUP5 DUP5 PUSH2 0x506 JUMP JUMPDEST POP POP POP JUMP JUMPDEST JUMPDEST DUP2 DUP2 LT ISZERO PUSH2 0x565 JUMPI PUSH2 0x55A PUSH0 DUP3 PUSH2 0x52F JUMP JUMPDEST PUSH1 0x1 DUP2 ADD SWAP1 POP PUSH2 0x548 JUMP JUMPDEST POP POP JUMP JUMPDEST PUSH1 0x1F DUP3 GT ISZERO PUSH2 0x5AA JUMPI PUSH2 0x57B DUP2 PUSH2 0x455 JUMP JUMPDEST PUSH2 0x584 DUP5 PUSH2 0x467 JUMP JUMPDEST DUP2 ADD PUSH1 0x20 DUP6 LT ISZERO PUSH2 0x593 JUMPI DUP2 SWAP1 POP JUMPDEST PUSH2 0x5A7 PUSH2 0x59F DUP6 PUSH2 0x467 JUMP JUMPDEST DUP4 ADD DUP3 PUSH2 0x547 JUMP JUMPDEST POP POP JUMPDEST POP POP POP JUMP JUMPDEST PUSH0 DUP3 DUP3 SHR SWAP1 POP SWAP3 SWAP2 POP POP JUMP JUMPDEST PUSH0 PUSH2 0x5CA PUSH0 NOT DUP5 PUSH1 0x8 MUL PUSH2 0x5AF JUMP JUMPDEST NOT DUP1 DUP4 AND SWAP2 POP POP SWAP3 SWAP2 POP POP JUMP JUMPDEST PUSH0 PUSH2 0x5E2 DUP4 DUP4 PUSH2 0x5BB JUMP JUMPDEST SWAP2 POP DUP3 PUSH1 0x2 MUL DUP3 OR SWAP1 POP SWAP3 SWAP2 POP POP JUMP JUMPDEST PUSH2 0x5FB DUP3 PUSH2 0x161 JUMP JUMPDEST PUSH8 0xFFFFFFFFFFFFFFFF DUP2 GT ISZERO PUSH2 0x614 JUMPI PUSH2 0x613 PUSH2 0x268 JUMP JUMPDEST JUMPDEST PUSH2 0x61E DUP3 SLOAD PUSH2 0x425 JUMP JUMPDEST PUSH2 0x629 DUP3 DUP3 DUP6 PUSH2 0x569 JUMP JUMPDEST PUSH0 PUSH1 0x20 SWAP1 POP PUSH1 0x1F DUP4 GT PUSH1 0x1 DUP2 EQ PUSH2 0x65A JUMPI PUSH0 DUP5 ISZERO PUSH2 0x648 JUMPI DUP3 DUP8 ADD MLOAD SWAP1 POP JUMPDEST PUSH2 0x652 DUP6 DUP3 PUSH2 0x5D7 JUMP JUMPDEST DUP7 SSTORE POP PUSH2 0x6B9 JUMP JUMPDEST PUSH1 0x1F NOT DUP5 AND PUSH2 0x668 DUP7 PUSH2 0x455 JUMP JUMPDEST PUSH0 JUMPDEST DUP3 DUP2 LT ISZERO PUSH2 0x68F JUMPI DUP5 DUP10 ADD MLOAD DUP3 SSTORE PUSH1 0x1 DUP3 ADD SWAP2 POP PUSH1 0x20 DUP6 ADD SWAP5 POP PUSH1 0x20 DUP2 ADD SWAP1 POP PUSH2 0x66A JUMP JUMPDEST DUP7 DUP4 LT ISZERO PUSH2 0x6AC JUMPI DUP5 DUP10 ADD MLOAD PUSH2 0x6A8 PUSH1 0x1F DUP10 AND DUP3 PUSH2 0x5BB JUMP JUMPDEST DUP4 SSTORE POP JUMPDEST PUSH1 0x1 PUSH1 0x2 DUP9 MUL ADD DUP9 SSTORE POP POP POP JUMPDEST POP POP POP POP POP POP JUMP INVALID LOG2 PUSH5 0x6970667358 0x22 SLT KECCAK256 BLOCKHASH SLT ORIGIN 0xA9 0xD3 EQ 0xCB PUSH27 0x85A29AC7A814642B2A04B074BCBE07C982584C1F0C83766C64736F PUSH13 0x634300081A0033000000000000 "
		},
		"gasEstimates": {
			"creation": {
				"codeDepositCost": "356600",
				"executionCost": "infinite",
				"totalCost": "infinite"
			},
			"external": {
				"change(uint256,string,uint256)": "infinite",
				"s()": "infinite"
			}
		},
		"methodIdentifiers": {
			"change(uint256,string,uint256)": "a70d5a1b",
			"s()": "86b714e2"
		}
	},
	"abi": [
		{
			"inputs": [
				{
					"internalType": "string",
					"name": "name",
					"type": "string"
				},
				{
					"internalType": "uint256",
					"name": "rollNumber",
					"type": "uint256"
				},
				{
					"internalType": "uint256",
					"name": "age",
					"type": "uint256"
				}
			],
			"stateMutability": "nonpayable",
			"type": "constructor"
		},
		{
			"inputs": [
				{
					"internalType": "uint256",
					"name": "_rollNumber",
					"type": "uint256"
				},
				{
					"internalType": "string",
					"name": "_name",
					"type": "string"
				},
				{
					"internalType": "uint256",
					"name": "_age",
					"type": "uint256"
				}
			],
			"name": "change",
			"outputs": [],
			"stateMutability": "nonpayable",
			"type": "function"
		},
		{
			"inputs": [],
			"name": "s",
			"outputs": [
				{
					"internalType": "string",
					"name": "name",
					"type": "string"
				},
				{
					"internalType": "uint256",
					"name": "rollNumber",
					"type": "uint256"
				},
				{
					"internalType": "uint256",
					"name": "age",
					"type": "uint256"
				}
			],
			"stateMutability": "view",
			"type": "function"
		}
	]
}