{
	"five/storage_memory.sol": {
		"demo": {
			"abi": [
				{
					"inputs": [],
					"name": "mem",
					"outputs": [],
					"stateMutability": "view",
					"type": "function"
				},
				{
					"inputs": [],
					"name": "storageT",
					"outputs": [],
					"stateMutability": "nonpayable",
					"type": "function"
				},
				{
					"inputs": [
						{
							"internalType": "uint256",
							"name": "",
							"type": "uint256"
						}
					],
					"name": "student",
					"outputs": [
						{
							"internalType": "string",
							"name": "",
							"type": "string"
						}
					],
					"stateMutability": "view",
					"type": "function"
				}
			],
			"devdoc": {
				"kind": "dev",
				"methods": {},
				"version": 1
			},
			"evm": {
				"assembly": "    /* \"five/storage_memory.sol\":72:769  contract demo{... */\n  mstore(0x40, 0x80)\n    /* \"five/storage_memory.sol\":139:187  string[] public student=['Ravi', 'Rita', 'Aman'] */\n  mload(0x40)\n  dup1\n  0x60\n  add\n  0x40\n  mstore\n  dup1\n  mload(0x40)\n  dup1\n  0x40\n  add\n  0x40\n  mstore\n  dup1\n  0x04\n  dup2\n  mstore\n  0x20\n  add\n  0x5261766900000000000000000000000000000000000000000000000000000000\n  dup2\n  mstore\n  pop\n  dup2\n  mstore\n  0x20\n  add\n  mload(0x40)\n  dup1\n  0x40\n  add\n  0x40\n  mstore\n  dup1\n  0x04\n  dup2\n  mstore\n  0x20\n  add\n  0x5269746100000000000000000000000000000000000000000000000000000000\n  dup2\n  mstore\n  pop\n  dup2\n  mstore\n  0x20\n  add\n  mload(0x40)\n  dup1\n  0x40\n  add\n  0x40\n  mstore\n  dup1\n  0x04\n  dup2\n  mstore\n  0x20\n  add\n  0x416d616e00000000000000000000000000000000000000000000000000000000\n  dup2\n  mstore\n  pop\n  dup2\n  mstore\n  pop\n  0x00\n  swap1\n  0x03\n  tag_1\n  swap3\n  swap2\n  swap1\n  tag_2\n  jump\t// in\ntag_1:\n  pop\n    /* \"five/storage_memory.sol\":72:769  contract demo{... */\n  callvalue\n  dup1\n  iszero\n  tag_3\n  jumpi\n  0x00\n  dup1\n  revert\ntag_3:\n  pop\n  jump(tag_4)\ntag_2:\n  dup3\n  dup1\n  sload\n  dup3\n  dup3\n  sstore\n  swap1\n  0x00\n  mstore\n  keccak256(0x00, 0x20)\n  swap1\n  dup2\n  add\n  swap3\n  dup3\n  iszero\n  tag_5\n  jumpi\n  swap2\n  0x20\n  mul\n  dup3\n  add\ntag_6:\n  dup3\n  dup2\n  gt\n  iszero\n  tag_7\n  jumpi\n  dup3\n  mload\n  dup3\n  swap1\n  dup2\n  tag_8\n  swap2\n  swap1\n  tag_9\n  jump\t// in\ntag_8:\n  pop\n  swap2\n  0x20\n  add\n  swap2\n  swap1\n  0x01\n  add\n  swap1\n  jump(tag_6)\ntag_7:\ntag_5:\n  pop\n  swap1\n  pop\n  tag_10\n  swap2\n  swap1\n  tag_11\n  jump\t// in\ntag_10:\n  pop\n  swap1\n  jump\t// out\ntag_11:\ntag_12:\n  dup1\n  dup3\n  gt\n  iszero\n  tag_13\n  jumpi\n  0x00\n  dup2\n  dup2\n  tag_14\n  swap2\n  swap1\n  tag_15\n  jump\t// in\ntag_14:\n  pop\n  0x01\n  add\n  jump(tag_12)\ntag_13:\n  pop\n  swap1\n  jump\t// out\ntag_15:\n  pop\n  dup1\n  sload\n  tag_16\n  swap1\n  tag_17\n  jump\t// in\ntag_16:\n  0x00\n  dup3\n  sstore\n  dup1\n  0x1f\n  lt\n  tag_19\n  jumpi\n  pop\n  jump(tag_18)\ntag_19:\n  0x1f\n  add\n  0x20\n  swap1\n  div\n  swap1\n  0x00\n  mstore\n  keccak256(0x00, 0x20)\n  swap1\n  dup2\n  add\n  swap1\n  tag_20\n  swap2\n  swap1\n  tag_21\n  jump\t// in\ntag_20:\ntag_18:\n  pop\n  jump\t// out\ntag_21:\ntag_22:\n  dup1\n  dup3\n  gt\n  iszero\n  tag_23\n  jumpi\n  0x00\n  dup2\n  0x00\n  swap1\n  sstore\n  pop\n  0x01\n  add\n  jump(tag_22)\ntag_23:\n  pop\n  swap1\n  jump\t// out\n    /* \"#utility.yul\":7:106   */\ntag_24:\n    /* \"#utility.yul\":59:65   */\n  0x00\n    /* \"#utility.yul\":93:98   */\n  dup2\n    /* \"#utility.yul\":87:99   */\n  mload\n    /* \"#utility.yul\":77:99   */\n  swap1\n  pop\n    /* \"#utility.yul\":7:106   */\n  swap2\n  swap1\n  pop\n  jump\t// out\n    /* \"#utility.yul\":112:292   */\ntag_25:\n    /* \"#utility.yul\":160:237   */\n  0x4e487b7100000000000000000000000000000000000000000000000000000000\n    /* \"#utility.yul\":157:158   */\n  0x00\n    /* \"#utility.yul\":150:238   */\n  mstore\n    /* \"#utility.yul\":257:261   */\n  0x41\n    /* \"#utility.yul\":254:255   */\n  0x04\n    /* \"#utility.yul\":247:262   */\n  mstore\n    /* \"#utility.yul\":281:285   */\n  0x24\n    /* \"#utility.yul\":278:279   */\n  0x00\n    /* \"#utility.yul\":271:286   */\n  revert\n    /* \"#utility.yul\":298:478   */\ntag_26:\n    /* \"#utility.yul\":346:423   */\n  0x4e487b7100000000000000000000000000000000000000000000000000000000\n    /* \"#utility.yul\":343:344   */\n  0x00\n    /* \"#utility.yul\":336:424   */\n  mstore\n    /* \"#utility.yul\":443:447   */\n  0x22\n    /* \"#utility.yul\":440:441   */\n  0x04\n    /* \"#utility.yul\":433:448   */\n  mstore\n    /* \"#utility.yul\":467:471   */\n  0x24\n    /* \"#utility.yul\":464:465   */\n  0x00\n    /* \"#utility.yul\":457:472   */\n  revert\n    /* \"#utility.yul\":484:804   */\ntag_17:\n    /* \"#utility.yul\":528:534   */\n  0x00\n    /* \"#utility.yul\":565:566   */\n  0x02\n    /* \"#utility.yul\":559:563   */\n  dup3\n    /* \"#utility.yul\":555:567   */\n  div\n    /* \"#utility.yul\":545:567   */\n  swap1\n  pop\n    /* \"#utility.yul\":612:613   */\n  0x01\n    /* \"#utility.yul\":606:610   */\n  dup3\n    /* \"#utility.yul\":602:614   */\n  and\n    /* \"#utility.yul\":633:651   */\n  dup1\n    /* \"#utility.yul\":623:704   */\n  tag_48\n  jumpi\n    /* \"#utility.yul\":689:693   */\n  0x7f\n    /* \"#utility.yul\":681:687   */\n  dup3\n    /* \"#utility.yul\":677:694   */\n  and\n    /* \"#utility.yul\":667:694   */\n  swap2\n  pop\n    /* \"#utility.yul\":623:704   */\ntag_48:\n    /* \"#utility.yul\":751:753   */\n  0x20\n    /* \"#utility.yul\":743:749   */\n  dup3\n    /* \"#utility.yul\":740:754   */\n  lt\n    /* \"#utility.yul\":720:738   */\n  dup2\n    /* \"#utility.yul\":717:755   */\n  sub\n    /* \"#utility.yul\":714:798   */\n  tag_49\n  jumpi\n    /* \"#utility.yul\":770:788   */\n  tag_50\n  tag_26\n  jump\t// in\ntag_50:\n    /* \"#utility.yul\":714:798   */\ntag_49:\n    /* \"#utility.yul\":535:804   */\n  pop\n    /* \"#utility.yul\":484:804   */\n  swap2\n  swap1\n  pop\n  jump\t// out\n    /* \"#utility.yul\":810:951   */\ntag_27:\n    /* \"#utility.yul\":859:863   */\n  0x00\n    /* \"#utility.yul\":882:885   */\n  dup2\n    /* \"#utility.yul\":874:885   */\n  swap1\n  pop\n    /* \"#utility.yul\":905:908   */\n  dup2\n    /* \"#utility.yul\":902:903   */\n  0x00\n    /* \"#utility.yul\":895:909   */\n  mstore\n    /* \"#utility.yul\":939:943   */\n  0x20\n    /* \"#utility.yul\":936:937   */\n  0x00\n    /* \"#utility.yul\":926:944   */\n  keccak256\n    /* \"#utility.yul\":918:944   */\n  swap1\n  pop\n    /* \"#utility.yul\":810:951   */\n  swap2\n  swap1\n  pop\n  jump\t// out\n    /* \"#utility.yul\":957:1050   */\ntag_28:\n    /* \"#utility.yul\":994:1000   */\n  0x00\n    /* \"#utility.yul\":1041:1043   */\n  0x20\n    /* \"#utility.yul\":1036:1038   */\n  0x1f\n    /* \"#utility.yul\":1029:1034   */\n  dup4\n    /* \"#utility.yul\":1025:1039   */\n  add\n    /* \"#utility.yul\":1021:1044   */\n  div\n    /* \"#utility.yul\":1011:1044   */\n  swap1\n  pop\n    /* \"#utility.yul\":957:1050   */\n  swap2\n  swap1\n  pop\n  jump\t// out\n    /* \"#utility.yul\":1056:1163   */\ntag_29:\n    /* \"#utility.yul\":1100:1108   */\n  0x00\n    /* \"#utility.yul\":1150:1155   */\n  dup3\n    /* \"#utility.yul\":1144:1148   */\n  dup3\n    /* \"#utility.yul\":1140:1156   */\n  shl\n    /* \"#utility.yul\":1119:1156   */\n  swap1\n  pop\n    /* \"#utility.yul\":1056:1163   */\n  swap3\n  swap2\n  pop\n  pop\n  jump\t// out\n    /* \"#utility.yul\":1169:1562   */\ntag_30:\n    /* \"#utility.yul\":1238:1244   */\n  0x00\n    /* \"#utility.yul\":1288:1289   */\n  0x08\n    /* \"#utility.yul\":1276:1286   */\n  dup4\n    /* \"#utility.yul\":1272:1290   */\n  mul\n    /* \"#utility.yul\":1311:1408   */\n  tag_55\n    /* \"#utility.yul\":1341:1407   */\n  0xffffffffffffffffffffffffffffffffffffffffffffffffffffffffffffffff\n    /* \"#utility.yul\":1330:1339   */\n  dup3\n    /* \"#utility.yul\":1311:1408   */\n  tag_29\n  jump\t// in\ntag_55:\n    /* \"#utility.yul\":1429:1468   */\n  tag_56\n    /* \"#utility.yul\":1459:1467   */\n  dup7\n    /* \"#utility.yul\":1448:1457   */\n  dup4\n    /* \"#utility.yul\":1429:1468   */\n  tag_29\n  jump\t// in\ntag_56:\n    /* \"#utility.yul\":1417:1468   */\n  swap6\n  pop\n    /* \"#utility.yul\":1501:1505   */\n  dup1\n    /* \"#utility.yul\":1497:1506   */\n  not\n    /* \"#utility.yul\":1490:1495   */\n  dup5\n    /* \"#utility.yul\":1486:1507   */\n  and\n    /* \"#utility.yul\":1477:1507   */\n  swap4\n  pop\n    /* \"#utility.yul\":1550:1554   */\n  dup1\n    /* \"#utility.yul\":1540:1548   */\n  dup7\n    /* \"#utility.yul\":1536:1555   */\n  and\n    /* \"#utility.yul\":1529:1534   */\n  dup5\n    /* \"#utility.yul\":1526:1556   */\n  or\n    /* \"#utility.yul\":1516:1556   */\n  swap3\n  pop\n    /* \"#utility.yul\":1245:1562   */\n  pop\n  pop\n    /* \"#utility.yul\":1169:1562   */\n  swap4\n  swap3\n  pop\n  pop\n  pop\n  jump\t// out\n    /* \"#utility.yul\":1568:1645   */\ntag_31:\n    /* \"#utility.yul\":1605:1612   */\n  0x00\n    /* \"#utility.yul\":1634:1639   */\n  dup2\n    /* \"#utility.yul\":1623:1639   */\n  swap1\n  pop\n    /* \"#utility.yul\":1568:1645   */\n  swap2\n  swap1\n  pop\n  jump\t// out\n    /* \"#utility.yul\":1651:1711   */\ntag_32:\n    /* \"#utility.yul\":1679:1682   */\n  0x00\n    /* \"#utility.yul\":1700:1705   */\n  dup2\n    /* \"#utility.yul\":1693:1705   */\n  swap1\n  pop\n    /* \"#utility.yul\":1651:1711   */\n  swap2\n  swap1\n  pop\n  jump\t// out\n    /* \"#utility.yul\":1717:1859   */\ntag_33:\n    /* \"#utility.yul\":1767:1776   */\n  0x00\n    /* \"#utility.yul\":1800:1853   */\n  tag_60\n    /* \"#utility.yul\":1818:1852   */\n  tag_61\n    /* \"#utility.yul\":1827:1851   */\n  tag_62\n    /* \"#utility.yul\":1845:1850   */\n  dup5\n    /* \"#utility.yul\":1827:1851   */\n  tag_31\n  jump\t// in\ntag_62:\n    /* \"#utility.yul\":1818:1852   */\n  tag_32\n  jump\t// in\ntag_61:\n    /* \"#utility.yul\":1800:1853   */\n  tag_31\n  jump\t// in\ntag_60:\n    /* \"#utility.yul\":1787:1853   */\n  swap1\n  pop\n    /* \"#utility.yul\":1717:1859   */\n  swap2\n  swap1\n  pop\n  jump\t// out\n    /* \"#utility.yul\":1865:1940   */\ntag_34:\n    /* \"#utility.yul\":1908:1911   */\n  0x00\n    /* \"#utility.yul\":1929:1934   */\n  dup2\n    /* \"#utility.yul\":1922:1934   */\n  swap1\n  pop\n    /* \"#utility.yul\":1865:1940   */\n  swap2\n  swap1\n  pop\n  jump\t// out\n    /* \"#utility.yul\":1946:2215   */\ntag_35:\n    /* \"#utility.yul\":2056:2095   */\n  tag_65\n    /* \"#utility.yul\":2087:2094   */\n  dup4\n    /* \"#utility.yul\":2056:2095   */\n  tag_33\n  jump\t// in\ntag_65:\n    /* \"#utility.yul\":2117:2208   */\n  tag_66\n    /* \"#utility.yul\":2166:2207   */\n  tag_67\n    /* \"#utility.yul\":2190:2206   */\n  dup3\n    /* \"#utility.yul\":2166:2207   */\n  tag_34\n  jump\t// in\ntag_67:\n    /* \"#utility.yul\":2158:2164   */\n  dup5\n    /* \"#utility.yul\":2151:2155   */\n  dup5\n    /* \"#utility.yul\":2145:2156   */\n  sload\n    /* \"#utility.yul\":2117:2208   */\n  tag_30\n  jump\t// in\ntag_66:\n    /* \"#utility.yul\":2111:2115   */\n  dup3\n    /* \"#utility.yul\":2104:2209   */\n  sstore\n    /* \"#utility.yul\":2022:2215   */\n  pop\n    /* \"#utility.yul\":1946:2215   */\n  pop\n  pop\n  pop\n  jump\t// out\n    /* \"#utility.yul\":2221:2294   */\ntag_36:\n    /* \"#utility.yul\":2266:2269   */\n  0x00\n    /* \"#utility.yul\":2221:2294   */\n  swap1\n  jump\t// out\n    /* \"#utility.yul\":2300:2489   */\ntag_37:\n    /* \"#utility.yul\":2377:2409   */\n  tag_70\n  tag_36\n  jump\t// in\ntag_70:\n    /* \"#utility.yul\":2418:2483   */\n  tag_71\n    /* \"#utility.yul\":2476:2482   */\n  dup2\n    /* \"#utility.yul\":2468:2474   */\n  dup5\n    /* \"#utility.yul\":2462:2466   */\n  dup5\n    /* \"#utility.yul\":2418:2483   */\n  tag_35\n  jump\t// in\ntag_71:\n    /* \"#utility.yul\":2353:2489   */\n  pop\n    /* \"#utility.yul\":2300:2489   */\n  pop\n  pop\n  jump\t// out\n    /* \"#utility.yul\":2495:2681   */\ntag_38:\n    /* \"#utility.yul\":2555:2675   */\ntag_73:\n    /* \"#utility.yul\":2572:2575   */\n  dup2\n    /* \"#utility.yul\":2565:2570   */\n  dup2\n    /* \"#utility.yul\":2562:2576   */\n  lt\n    /* \"#utility.yul\":2555:2675   */\n  iszero\n  tag_75\n  jumpi\n    /* \"#utility.yul\":2626:2665   */\n  tag_76\n    /* \"#utility.yul\":2663:2664   */\n  0x00\n    /* \"#utility.yul\":2656:2661   */\n  dup3\n    /* \"#utility.yul\":2626:2665   */\n  tag_37\n  jump\t// in\ntag_76:\n    /* \"#utility.yul\":2599:2600   */\n  0x01\n    /* \"#utility.yul\":2592:2597   */\n  dup2\n    /* \"#utility.yul\":2588:2601   */\n  add\n    /* \"#utility.yul\":2579:2601   */\n  swap1\n  pop\n    /* \"#utility.yul\":2555:2675   */\n  jump(tag_73)\ntag_75:\n    /* \"#utility.yul\":2495:2681   */\n  pop\n  pop\n  jump\t// out\n    /* \"#utility.yul\":2687:3230   */\ntag_39:\n    /* \"#utility.yul\":2788:2790   */\n  0x1f\n    /* \"#utility.yul\":2783:2786   */\n  dup3\n    /* \"#utility.yul\":2780:2791   */\n  gt\n    /* \"#utility.yul\":2777:3223   */\n  iszero\n  tag_78\n  jumpi\n    /* \"#utility.yul\":2822:2860   */\n  tag_79\n    /* \"#utility.yul\":2854:2859   */\n  dup2\n    /* \"#utility.yul\":2822:2860   */\n  tag_27\n  jump\t// in\ntag_79:\n    /* \"#utility.yul\":2906:2935   */\n  tag_80\n    /* \"#utility.yul\":2924:2934   */\n  dup5\n    /* \"#utility.yul\":2906:2935   */\n  tag_28\n  jump\t// in\ntag_80:\n    /* \"#utility.yul\":2896:2904   */\n  dup2\n    /* \"#utility.yul\":2892:2936   */\n  add\n    /* \"#utility.yul\":3089:3091   */\n  0x20\n    /* \"#utility.yul\":3077:3087   */\n  dup6\n    /* \"#utility.yul\":3074:3092   */\n  lt\n    /* \"#utility.yul\":3071:3120   */\n  iszero\n  tag_81\n  jumpi\n    /* \"#utility.yul\":3110:3118   */\n  dup2\n    /* \"#utility.yul\":3095:3118   */\n  swap1\n  pop\n    /* \"#utility.yul\":3071:3120   */\ntag_81:\n    /* \"#utility.yul\":3133:3213   */\n  tag_82\n    /* \"#utility.yul\":3189:3211   */\n  tag_83\n    /* \"#utility.yul\":3207:3210   */\n  dup6\n    /* \"#utility.yul\":3189:3211   */\n  tag_28\n  jump\t// in\ntag_83:\n    /* \"#utility.yul\":3179:3187   */\n  dup4\n    /* \"#utility.yul\":3175:3212   */\n  add\n    /* \"#utility.yul\":3162:3173   */\n  dup3\n    /* \"#utility.yul\":3133:3213   */\n  tag_38\n  jump\t// in\ntag_82:\n    /* \"#utility.yul\":2792:3223   */\n  pop\n  pop\n    /* \"#utility.yul\":2777:3223   */\ntag_78:\n    /* \"#utility.yul\":2687:3230   */\n  pop\n  pop\n  pop\n  jump\t// out\n    /* \"#utility.yul\":3236:3353   */\ntag_40:\n    /* \"#utility.yul\":3290:3298   */\n  0x00\n    /* \"#utility.yul\":3340:3345   */\n  dup3\n    /* \"#utility.yul\":3334:3338   */\n  dup3\n    /* \"#utility.yul\":3330:3346   */\n  shr\n    /* \"#utility.yul\":3309:3346   */\n  swap1\n  pop\n    /* \"#utility.yul\":3236:3353   */\n  swap3\n  swap2\n  pop\n  pop\n  jump\t// out\n    /* \"#utility.yul\":3359:3528   */\ntag_41:\n    /* \"#utility.yul\":3403:3409   */\n  0x00\n    /* \"#utility.yul\":3436:3487   */\n  tag_86\n    /* \"#utility.yul\":3484:3485   */\n  0x00\n    /* \"#utility.yul\":3480:3486   */\n  not\n    /* \"#utility.yul\":3472:3477   */\n  dup5\n    /* \"#utility.yul\":3469:3470   */\n  0x08\n    /* \"#utility.yul\":3465:3478   */\n  mul\n    /* \"#utility.yul\":3436:3487   */\n  tag_40\n  jump\t// in\ntag_86:\n    /* \"#utility.yul\":3432:3488   */\n  not\n    /* \"#utility.yul\":3517:3521   */\n  dup1\n    /* \"#utility.yul\":3511:3515   */\n  dup4\n    /* \"#utility.yul\":3507:3522   */\n  and\n    /* \"#utility.yul\":3497:3522   */\n  swap2\n  pop\n    /* \"#utility.yul\":3410:3528   */\n  pop\n    /* \"#utility.yul\":3359:3528   */\n  swap3\n  swap2\n  pop\n  pop\n  jump\t// out\n    /* \"#utility.yul\":3533:3828   */\ntag_42:\n    /* \"#utility.yul\":3609:3613   */\n  0x00\n    /* \"#utility.yul\":3755:3784   */\n  tag_88\n    /* \"#utility.yul\":3780:3783   */\n  dup4\n    /* \"#utility.yul\":3774:3778   */\n  dup4\n    /* \"#utility.yul\":3755:3784   */\n  tag_41\n  jump\t// in\ntag_88:\n    /* \"#utility.yul\":3747:3784   */\n  swap2\n  pop\n    /* \"#utility.yul\":3817:3820   */\n  dup3\n    /* \"#utility.yul\":3814:3815   */\n  0x02\n    /* \"#utility.yul\":3810:3821   */\n  mul\n    /* \"#utility.yul\":3804:3808   */\n  dup3\n    /* \"#utility.yul\":3801:3822   */\n  or\n    /* \"#utility.yul\":3793:3822   */\n  swap1\n  pop\n    /* \"#utility.yul\":3533:3828   */\n  swap3\n  swap2\n  pop\n  pop\n  jump\t// out\n    /* \"#utility.yul\":3833:5228   */\ntag_9:\n    /* \"#utility.yul\":3950:3987   */\n  tag_90\n    /* \"#utility.yul\":3983:3986   */\n  dup3\n    /* \"#utility.yul\":3950:3987   */\n  tag_24\n  jump\t// in\ntag_90:\n    /* \"#utility.yul\":4052:4070   */\n  0xffffffffffffffff\n    /* \"#utility.yul\":4044:4050   */\n  dup2\n    /* \"#utility.yul\":4041:4071   */\n  gt\n    /* \"#utility.yul\":4038:4094   */\n  iszero\n  tag_91\n  jumpi\n    /* \"#utility.yul\":4074:4092   */\n  tag_92\n  tag_25\n  jump\t// in\ntag_92:\n    /* \"#utility.yul\":4038:4094   */\ntag_91:\n    /* \"#utility.yul\":4118:4156   */\n  tag_93\n    /* \"#utility.yul\":4150:4154   */\n  dup3\n    /* \"#utility.yul\":4144:4155   */\n  sload\n    /* \"#utility.yul\":4118:4156   */\n  tag_17\n  jump\t// in\ntag_93:\n    /* \"#utility.yul\":4203:4270   */\n  tag_94\n    /* \"#utility.yul\":4263:4269   */\n  dup3\n    /* \"#utility.yul\":4255:4261   */\n  dup3\n    /* \"#utility.yul\":4249:4253   */\n  dup6\n    /* \"#utility.yul\":4203:4270   */\n  tag_39\n  jump\t// in\ntag_94:\n    /* \"#utility.yul\":4297:4298   */\n  0x00\n    /* \"#utility.yul\":4321:4325   */\n  0x20\n    /* \"#utility.yul\":4308:4325   */\n  swap1\n  pop\n    /* \"#utility.yul\":4353:4355   */\n  0x1f\n    /* \"#utility.yul\":4345:4351   */\n  dup4\n    /* \"#utility.yul\":4342:4356   */\n  gt\n    /* \"#utility.yul\":4370:4371   */\n  0x01\n    /* \"#utility.yul\":4365:4983   */\n  dup2\n  eq\n  tag_96\n  jumpi\n    /* \"#utility.yul\":5027:5028   */\n  0x00\n    /* \"#utility.yul\":5044:5050   */\n  dup5\n    /* \"#utility.yul\":5041:5118   */\n  iszero\n  tag_97\n  jumpi\n    /* \"#utility.yul\":5093:5102   */\n  dup3\n    /* \"#utility.yul\":5088:5091   */\n  dup8\n    /* \"#utility.yul\":5084:5103   */\n  add\n    /* \"#utility.yul\":5078:5104   */\n  mload\n    /* \"#utility.yul\":5069:5104   */\n  swap1\n  pop\n    /* \"#utility.yul\":5041:5118   */\ntag_97:\n    /* \"#utility.yul\":5144:5211   */\n  tag_98\n    /* \"#utility.yul\":5204:5210   */\n  dup6\n    /* \"#utility.yul\":5197:5202   */\n  dup3\n    /* \"#utility.yul\":5144:5211   */\n  tag_42\n  jump\t// in\ntag_98:\n    /* \"#utility.yul\":5138:5142   */\n  dup7\n    /* \"#utility.yul\":5131:5212   */\n  sstore\n    /* \"#utility.yul\":5000:5222   */\n  pop\n    /* \"#utility.yul\":4335:5222   */\n  jump(tag_95)\n    /* \"#utility.yul\":4365:4983   */\ntag_96:\n    /* \"#utility.yul\":4417:4421   */\n  0x1f\n    /* \"#utility.yul\":4413:4422   */\n  not\n    /* \"#utility.yul\":4405:4411   */\n  dup5\n    /* \"#utility.yul\":4401:4423   */\n  and\n    /* \"#utility.yul\":4451:4488   */\n  tag_99\n    /* \"#utility.yul\":4483:4487   */\n  dup7\n    /* \"#utility.yul\":4451:4488   */\n  tag_27\n  jump\t// in\ntag_99:\n    /* \"#utility.yul\":4510:4511   */\n  0x00\n    /* \"#utility.yul\":4524:4732   */\ntag_100:\n    /* \"#utility.yul\":4538:4545   */\n  dup3\n    /* \"#utility.yul\":4535:4536   */\n  dup2\n    /* \"#utility.yul\":4532:4546   */\n  lt\n    /* \"#utility.yul\":4524:4732   */\n  iszero\n  tag_102\n  jumpi\n    /* \"#utility.yul\":4617:4626   */\n  dup5\n    /* \"#utility.yul\":4612:4615   */\n  dup10\n    /* \"#utility.yul\":4608:4627   */\n  add\n    /* \"#utility.yul\":4602:4628   */\n  mload\n    /* \"#utility.yul\":4594:4600   */\n  dup3\n    /* \"#utility.yul\":4587:4629   */\n  sstore\n    /* \"#utility.yul\":4668:4669   */\n  0x01\n    /* \"#utility.yul\":4660:4666   */\n  dup3\n    /* \"#utility.yul\":4656:4670   */\n  add\n    /* \"#utility.yul\":4646:4670   */\n  swap2\n  pop\n    /* \"#utility.yul\":4715:4717   */\n  0x20\n    /* \"#utility.yul\":4704:4713   */\n  dup6\n    /* \"#utility.yul\":4700:4718   */\n  add\n    /* \"#utility.yul\":4687:4718   */\n  swap5\n  pop\n    /* \"#utility.yul\":4561:4565   */\n  0x20\n    /* \"#utility.yul\":4558:4559   */\n  dup2\n    /* \"#utility.yul\":4554:4566   */\n  add\n    /* \"#utility.yul\":4549:4566   */\n  swap1\n  pop\n    /* \"#utility.yul\":4524:4732   */\n  jump(tag_100)\ntag_102:\n    /* \"#utility.yul\":4760:4766   */\n  dup7\n    /* \"#utility.yul\":4751:4758   */\n  dup4\n    /* \"#utility.yul\":4748:4767   */\n  lt\n    /* \"#utility.yul\":4745:4924   */\n  iszero\n  tag_103\n  jumpi\n    /* \"#utility.yul\":4818:4827   */\n  dup5\n    /* \"#utility.yul\":4813:4816   */\n  dup10\n    /* \"#utility.yul\":4809:4828   */\n  add\n    /* \"#utility.yul\":4803:4829   */\n  mload\n    /* \"#utility.yul\":4861:4909   */\n  tag_104\n    /* \"#utility.yul\":4903:4907   */\n  0x1f\n    /* \"#utility.yul\":4895:4901   */\n  dup10\n    /* \"#utility.yul\":4891:4908   */\n  and\n    /* \"#utility.yul\":4880:4889   */\n  dup3\n    /* \"#utility.yul\":4861:4909   */\n  tag_41\n  jump\t// in\ntag_104:\n    /* \"#utility.yul\":4853:4859   */\n  dup4\n    /* \"#utility.yul\":4846:4910   */\n  sstore\n    /* \"#utility.yul\":4768:4924   */\n  pop\n    /* \"#utility.yul\":4745:4924   */\ntag_103:\n    /* \"#utility.yul\":4970:4971   */\n  0x01\n    /* \"#utility.yul\":4966:4967   */\n  0x02\n    /* \"#utility.yul\":4958:4964   */\n  dup9\n    /* \"#utility.yul\":4954:4968   */\n  mul\n    /* \"#utility.yul\":4950:4972   */\n  add\n    /* \"#utility.yul\":4944:4948   */\n  dup9\n    /* \"#utility.yul\":4937:4973   */\n  sstore\n    /* \"#utility.yul\":4372:4983   */\n  pop\n  pop\n  pop\n    /* \"#utility.yul\":4335:5222   */\ntag_95:\n  pop\n    /* \"#utility.yul\":3925:5228   */\n  pop\n  pop\n  pop\n    /* \"#utility.yul\":3833:5228   */\n  pop\n  pop\n  jump\t// out\n    /* \"five/storage_memory.sol\":72:769  contract demo{... */\ntag_4:\n  dataSize(sub_0)\n  dup1\n  dataOffset(sub_0)\n  0x00\n  codecopy\n  0x00\n  return\nstop\n\nsub_0: assembly {\n        /* \"five/storage_memory.sol\":72:769  contract demo{... */\n      mstore(0x40, 0x80)\n      callvalue\n      dup1\n      iszero\n      tag_1\n      jumpi\n      0x00\n      dup1\n      revert\n    tag_1:\n      pop\n      jumpi(tag_2, lt(calldatasize, 0x04))\n      shr(0xe0, calldataload(0x00))\n      dup1\n      0x16fff074\n      eq\n      tag_3\n      jumpi\n      dup1\n      0x35f34232\n      eq\n      tag_4\n      jumpi\n      dup1\n      0x85883d8c\n      eq\n      tag_5\n      jumpi\n    tag_2:\n      0x00\n      dup1\n      revert\n        /* \"five/storage_memory.sol\":537:767  function storageT() public {... */\n    tag_3:\n      tag_6\n      tag_7\n      jump\t// in\n    tag_6:\n      stop\n        /* \"five/storage_memory.sol\":139:187  string[] public student=['Ravi', 'Rita', 'Aman'] */\n    tag_4:\n      tag_8\n      0x04\n      dup1\n      calldatasize\n      sub\n      dup2\n      add\n      swap1\n      tag_9\n      swap2\n      swap1\n      tag_10\n      jump\t// in\n    tag_9:\n      tag_11\n      jump\t// in\n    tag_8:\n      mload(0x40)\n      tag_12\n      swap2\n      swap1\n      tag_13\n      jump\t// in\n    tag_12:\n      mload(0x40)\n      dup1\n      swap2\n      sub\n      swap1\n      return\n        /* \"five/storage_memory.sol\":194:532  function mem() public view {... */\n    tag_5:\n      tag_14\n      tag_15\n      jump\t// in\n    tag_14:\n      stop\n        /* \"five/storage_memory.sol\":537:767  function storageT() public {... */\n    tag_7:\n        /* \"five/storage_memory.sol\":574:593  string[] storage s2 */\n      0x00\n        /* \"five/storage_memory.sol\":613:626  s2[0]='Akash' */\n      mload(0x40)\n      dup1\n      0x40\n      add\n      0x40\n      mstore\n      dup1\n      0x05\n      dup2\n      mstore\n      0x20\n      add\n      0x416b617368000000000000000000000000000000000000000000000000000000\n      dup2\n      mstore\n      pop\n        /* \"five/storage_memory.sol\":613:615  s2 */\n      dup2\n        /* \"five/storage_memory.sol\":616:617  0 */\n      0x00\n        /* \"five/storage_memory.sol\":613:618  s2[0] */\n      dup2\n      sload\n      dup2\n      lt\n      tag_17\n      jumpi\n      tag_18\n      tag_19\n      jump\t// in\n    tag_18:\n    tag_17:\n      swap1\n      0x00\n      mstore\n      keccak256(0x00, 0x20)\n      add\n        /* \"five/storage_memory.sol\":613:626  s2[0]='Akash' */\n      swap1\n      dup2\n      tag_21\n      swap2\n      swap1\n      tag_22\n      jump\t// in\n    tag_21:\n      pop\n        /* \"five/storage_memory.sol\":564:767  {... */\n      pop\n        /* \"five/storage_memory.sol\":537:767  function storageT() public {... */\n      jump\t// out\n        /* \"five/storage_memory.sol\":139:187  string[] public student=['Ravi', 'Rita', 'Aman'] */\n    tag_11:\n      0x00\n      dup2\n      dup2\n      sload\n      dup2\n      lt\n      tag_23\n      jumpi\n      0x00\n      dup1\n      revert\n    tag_23:\n      swap1\n      0x00\n      mstore\n      keccak256(0x00, 0x20)\n      add\n      0x00\n      swap2\n      pop\n      swap1\n      pop\n      dup1\n      sload\n      tag_25\n      swap1\n      tag_26\n      jump\t// in\n    tag_25:\n      dup1\n      0x1f\n      add\n      0x20\n      dup1\n      swap2\n      div\n      mul\n      0x20\n      add\n      mload(0x40)\n      swap1\n      dup2\n      add\n      0x40\n      mstore\n      dup1\n      swap3\n      swap2\n      swap1\n      dup2\n      dup2\n      mstore\n      0x20\n      add\n      dup3\n      dup1\n      sload\n      tag_27\n      swap1\n      tag_26\n      jump\t// in\n    tag_27:\n      dup1\n      iszero\n      tag_28\n      jumpi\n      dup1\n      0x1f\n      lt\n      tag_29\n      jumpi\n      0x0100\n      dup1\n      dup4\n      sload\n      div\n      mul\n      dup4\n      mstore\n      swap2\n      0x20\n      add\n      swap2\n      jump(tag_28)\n    tag_29:\n      dup3\n      add\n      swap2\n      swap1\n      0x00\n      mstore\n      keccak256(0x00, 0x20)\n      swap1\n    tag_30:\n      dup2\n      sload\n      dup2\n      mstore\n      swap1\n      0x01\n      add\n      swap1\n      0x20\n      add\n      dup1\n      dup4\n      gt\n      tag_30\n      jumpi\n      dup3\n      swap1\n      sub\n      0x1f\n      and\n      dup3\n      add\n      swap2\n    tag_28:\n      pop\n      pop\n      pop\n      pop\n      pop\n      dup2\n      jump\t// out\n        /* \"five/storage_memory.sol\":194:532  function mem() public view {... */\n    tag_15:\n        /* \"five/storage_memory.sol\":338:356  string[] memory s1 */\n      0x00\n        /* \"five/storage_memory.sol\":359:366  student */\n      dup1\n        /* \"five/storage_memory.sol\":338:366  string[] memory s1 = student */\n      dup1\n      sload\n      dup1\n      0x20\n      mul\n      0x20\n      add\n      mload(0x40)\n      swap1\n      dup2\n      add\n      0x40\n      mstore\n      dup1\n      swap3\n      swap2\n      swap1\n      dup2\n      dup2\n      mstore\n      0x20\n      add\n      0x00\n      swap1\n    tag_32:\n      dup3\n      dup3\n      lt\n      iszero\n      tag_33\n      jumpi\n      dup4\n      dup3\n      swap1\n      0x00\n      mstore\n      keccak256(0x00, 0x20)\n      add\n      dup1\n      sload\n      tag_35\n      swap1\n      tag_26\n      jump\t// in\n    tag_35:\n      dup1\n      0x1f\n      add\n      0x20\n      dup1\n      swap2\n      div\n      mul\n      0x20\n      add\n      mload(0x40)\n      swap1\n      dup2\n      add\n      0x40\n      mstore\n      dup1\n      swap3\n      swap2\n      swap1\n      dup2\n      dup2\n      mstore\n      0x20\n      add\n      dup3\n      dup1\n      sload\n      tag_36\n      swap1\n      tag_26\n      jump\t// in\n    tag_36:\n      dup1\n      iszero\n      tag_37\n      jumpi\n      dup1\n      0x1f\n      lt\n      tag_38\n      jumpi\n      0x0100\n      dup1\n      dup4\n      sload\n      div\n      mul\n      dup4\n      mstore\n      swap2\n      0x20\n      add\n      swap2\n      jump(tag_37)\n    tag_38:\n      dup3\n      add\n      swap2\n      swap1\n      0x00\n      mstore\n      keccak256(0x00, 0x20)\n      swap1\n    tag_39:\n      dup2\n      sload\n      dup2\n      mstore\n      swap1\n      0x01\n      add\n      swap1\n      0x20\n      add\n      dup1\n      dup4\n      gt\n      tag_39\n      jumpi\n      dup3\n      swap1\n      sub\n      0x1f\n      and\n      dup3\n      add\n      swap2\n    tag_37:\n      pop\n      pop\n      pop\n      pop\n      pop\n      dup2\n      mstore\n      0x20\n      add\n      swap1\n      0x01\n      add\n      swap1\n      jump(tag_32)\n    tag_33:\n      pop\n      pop\n      pop\n      pop\n      swap1\n      pop\n        /* \"five/storage_memory.sol\":376:389  s1[0]='Akash' */\n      mload(0x40)\n      dup1\n      0x40\n      add\n      0x40\n      mstore\n      dup1\n      0x05\n      dup2\n      mstore\n      0x20\n      add\n      0x416b617368000000000000000000000000000000000000000000000000000000\n      dup2\n      mstore\n      pop\n        /* \"five/storage_memory.sol\":376:378  s1 */\n      dup2\n        /* \"five/storage_memory.sol\":379:380  0 */\n      0x00\n        /* \"five/storage_memory.sol\":376:381  s1[0] */\n      dup2\n      mload\n      dup2\n      lt\n      tag_40\n      jumpi\n      tag_41\n      tag_19\n      jump\t// in\n    tag_41:\n    tag_40:\n      0x20\n      mul\n      0x20\n      add\n      add\n        /* \"five/storage_memory.sol\":376:389  s1[0]='Akash' */\n      dup2\n      swap1\n      mstore\n      pop\n        /* \"five/storage_memory.sol\":221:532  {... */\n      pop\n        /* \"five/storage_memory.sol\":194:532  function mem() public view {... */\n      jump\t// out\n        /* \"#utility.yul\":88:205   */\n    tag_43:\n        /* \"#utility.yul\":197:198   */\n      0x00\n        /* \"#utility.yul\":194:195   */\n      dup1\n        /* \"#utility.yul\":187:199   */\n      revert\n        /* \"#utility.yul\":334:411   */\n    tag_45:\n        /* \"#utility.yul\":371:378   */\n      0x00\n        /* \"#utility.yul\":400:405   */\n      dup2\n        /* \"#utility.yul\":389:405   */\n      swap1\n      pop\n        /* \"#utility.yul\":334:411   */\n      swap2\n      swap1\n      pop\n      jump\t// out\n        /* \"#utility.yul\":417:539   */\n    tag_46:\n        /* \"#utility.yul\":490:514   */\n      tag_76\n        /* \"#utility.yul\":508:513   */\n      dup2\n        /* \"#utility.yul\":490:514   */\n      tag_45\n      jump\t// in\n    tag_76:\n        /* \"#utility.yul\":483:488   */\n      dup2\n        /* \"#utility.yul\":480:515   */\n      eq\n        /* \"#utility.yul\":470:533   */\n      tag_77\n      jumpi\n        /* \"#utility.yul\":529:530   */\n      0x00\n        /* \"#utility.yul\":526:527   */\n      dup1\n        /* \"#utility.yul\":519:531   */\n      revert\n        /* \"#utility.yul\":470:533   */\n    tag_77:\n        /* \"#utility.yul\":417:539   */\n      pop\n      jump\t// out\n        /* \"#utility.yul\":545:684   */\n    tag_47:\n        /* \"#utility.yul\":591:596   */\n      0x00\n        /* \"#utility.yul\":629:635   */\n      dup2\n        /* \"#utility.yul\":616:636   */\n      calldataload\n        /* \"#utility.yul\":607:636   */\n      swap1\n      pop\n        /* \"#utility.yul\":645:678   */\n      tag_79\n        /* \"#utility.yul\":672:677   */\n      dup2\n        /* \"#utility.yul\":645:678   */\n      tag_46\n      jump\t// in\n    tag_79:\n        /* \"#utility.yul\":545:684   */\n      swap3\n      swap2\n      pop\n      pop\n      jump\t// out\n        /* \"#utility.yul\":690:1019   */\n    tag_10:\n        /* \"#utility.yul\":749:755   */\n      0x00\n        /* \"#utility.yul\":798:800   */\n      0x20\n        /* \"#utility.yul\":786:795   */\n      dup3\n        /* \"#utility.yul\":777:784   */\n      dup5\n        /* \"#utility.yul\":773:796   */\n      sub\n        /* \"#utility.yul\":769:801   */\n      slt\n        /* \"#utility.yul\":766:885   */\n      iszero\n      tag_81\n      jumpi\n        /* \"#utility.yul\":804:883   */\n      tag_82\n      tag_43\n      jump\t// in\n    tag_82:\n        /* \"#utility.yul\":766:885   */\n    tag_81:\n        /* \"#utility.yul\":924:925   */\n      0x00\n        /* \"#utility.yul\":949:1002   */\n      tag_83\n        /* \"#utility.yul\":994:1001   */\n      dup5\n        /* \"#utility.yul\":985:991   */\n      dup3\n        /* \"#utility.yul\":974:983   */\n      dup6\n        /* \"#utility.yul\":970:992   */\n      add\n        /* \"#utility.yul\":949:1002   */\n      tag_47\n      jump\t// in\n    tag_83:\n        /* \"#utility.yul\":939:1002   */\n      swap2\n      pop\n        /* \"#utility.yul\":895:1012   */\n      pop\n        /* \"#utility.yul\":690:1019   */\n      swap3\n      swap2\n      pop\n      pop\n      jump\t// out\n        /* \"#utility.yul\":1025:1124   */\n    tag_48:\n        /* \"#utility.yul\":1077:1083   */\n      0x00\n        /* \"#utility.yul\":1111:1116   */\n      dup2\n        /* \"#utility.yul\":1105:1117   */\n      mload\n        /* \"#utility.yul\":1095:1117   */\n      swap1\n      pop\n        /* \"#utility.yul\":1025:1124   */\n      swap2\n      swap1\n      pop\n      jump\t// out\n        /* \"#utility.yul\":1130:1299   */\n    tag_49:\n        /* \"#utility.yul\":1214:1225   */\n      0x00\n        /* \"#utility.yul\":1248:1254   */\n      dup3\n        /* \"#utility.yul\":1243:1246   */\n      dup3\n        /* \"#utility.yul\":1236:1255   */\n      mstore\n        /* \"#utility.yul\":1288:1292   */\n      0x20\n        /* \"#utility.yul\":1283:1286   */\n      dup3\n        /* \"#utility.yul\":1279:1293   */\n      add\n        /* \"#utility.yul\":1264:1293   */\n      swap1\n      pop\n        /* \"#utility.yul\":1130:1299   */\n      swap3\n      swap2\n      pop\n      pop\n      jump\t// out\n        /* \"#utility.yul\":1305:1444   */\n    tag_50:\n        /* \"#utility.yul\":1394:1400   */\n      dup3\n        /* \"#utility.yul\":1389:1392   */\n      dup2\n        /* \"#utility.yul\":1384:1387   */\n      dup4\n        /* \"#utility.yul\":1378:1401   */\n      mcopy\n        /* \"#utility.yul\":1435:1436   */\n      0x00\n        /* \"#utility.yul\":1426:1432   */\n      dup4\n        /* \"#utility.yul\":1421:1424   */\n      dup4\n        /* \"#utility.yul\":1417:1433   */\n      add\n        /* \"#utility.yul\":1410:1437   */\n      mstore\n        /* \"#utility.yul\":1305:1444   */\n      pop\n      pop\n      pop\n      jump\t// out\n        /* \"#utility.yul\":1450:1552   */\n    tag_51:\n        /* \"#utility.yul\":1491:1497   */\n      0x00\n        /* \"#utility.yul\":1542:1544   */\n      0x1f\n        /* \"#utility.yul\":1538:1545   */\n      not\n        /* \"#utility.yul\":1533:1535   */\n      0x1f\n        /* \"#utility.yul\":1526:1531   */\n      dup4\n        /* \"#utility.yul\":1522:1536   */\n      add\n        /* \"#utility.yul\":1518:1546   */\n      and\n        /* \"#utility.yul\":1508:1546   */\n      swap1\n      pop\n        /* \"#utility.yul\":1450:1552   */\n      swap2\n      swap1\n      pop\n      jump\t// out\n        /* \"#utility.yul\":1558:1935   */\n    tag_52:\n        /* \"#utility.yul\":1646:1649   */\n      0x00\n        /* \"#utility.yul\":1674:1713   */\n      tag_89\n        /* \"#utility.yul\":1707:1712   */\n      dup3\n        /* \"#utility.yul\":1674:1713   */\n      tag_48\n      jump\t// in\n    tag_89:\n        /* \"#utility.yul\":1729:1800   */\n      tag_90\n        /* \"#utility.yul\":1793:1799   */\n      dup2\n        /* \"#utility.yul\":1788:1791   */\n      dup6\n        /* \"#utility.yul\":1729:1800   */\n      tag_49\n      jump\t// in\n    tag_90:\n        /* \"#utility.yul\":1722:1800   */\n      swap4\n      pop\n        /* \"#utility.yul\":1809:1874   */\n      tag_91\n        /* \"#utility.yul\":1867:1873   */\n      dup2\n        /* \"#utility.yul\":1862:1865   */\n      dup6\n        /* \"#utility.yul\":1855:1859   */\n      0x20\n        /* \"#utility.yul\":1848:1853   */\n      dup7\n        /* \"#utility.yul\":1844:1860   */\n      add\n        /* \"#utility.yul\":1809:1874   */\n      tag_50\n      jump\t// in\n    tag_91:\n        /* \"#utility.yul\":1899:1928   */\n      tag_92\n        /* \"#utility.yul\":1921:1927   */\n      dup2\n        /* \"#utility.yul\":1899:1928   */\n      tag_51\n      jump\t// in\n    tag_92:\n        /* \"#utility.yul\":1894:1897   */\n      dup5\n        /* \"#utility.yul\":1890:1929   */\n      add\n        /* \"#utility.yul\":1883:1929   */\n      swap2\n      pop\n        /* \"#utility.yul\":1650:1935   */\n      pop\n        /* \"#utility.yul\":1558:1935   */\n      swap3\n      swap2\n      pop\n      pop\n      jump\t// out\n        /* \"#utility.yul\":1941:2254   */\n    tag_13:\n        /* \"#utility.yul\":2054:2058   */\n      0x00\n        /* \"#utility.yul\":2092:2094   */\n      0x20\n        /* \"#utility.yul\":2081:2090   */\n      dup3\n        /* \"#utility.yul\":2077:2095   */\n      add\n        /* \"#utility.yul\":2069:2095   */\n      swap1\n      pop\n        /* \"#utility.yul\":2141:2150   */\n      dup2\n        /* \"#utility.yul\":2135:2139   */\n      dup2\n        /* \"#utility.yul\":2131:2151   */\n      sub\n        /* \"#utility.yul\":2127:2128   */\n      0x00\n        /* \"#utility.yul\":2116:2125   */\n      dup4\n        /* \"#utility.yul\":2112:2129   */\n      add\n        /* \"#utility.yul\":2105:2152   */\n      mstore\n        /* \"#utility.yul\":2169:2247   */\n      tag_94\n        /* \"#utility.yul\":2242:2246   */\n      dup2\n        /* \"#utility.yul\":2233:2239   */\n      dup5\n        /* \"#utility.yul\":2169:2247   */\n      tag_52\n      jump\t// in\n    tag_94:\n        /* \"#utility.yul\":2161:2247   */\n      swap1\n      pop\n        /* \"#utility.yul\":1941:2254   */\n      swap3\n      swap2\n      pop\n      pop\n      jump\t// out\n        /* \"#utility.yul\":2260:2440   */\n    tag_19:\n        /* \"#utility.yul\":2308:2385   */\n      0x4e487b7100000000000000000000000000000000000000000000000000000000\n        /* \"#utility.yul\":2305:2306   */\n      0x00\n        /* \"#utility.yul\":2298:2386   */\n      mstore\n        /* \"#utility.yul\":2405:2409   */\n      0x32\n        /* \"#utility.yul\":2402:2403   */\n      0x04\n        /* \"#utility.yul\":2395:2410   */\n      mstore\n        /* \"#utility.yul\":2429:2433   */\n      0x24\n        /* \"#utility.yul\":2426:2427   */\n      0x00\n        /* \"#utility.yul\":2419:2434   */\n      revert\n        /* \"#utility.yul\":2446:2626   */\n    tag_53:\n        /* \"#utility.yul\":2494:2571   */\n      0x4e487b7100000000000000000000000000000000000000000000000000000000\n        /* \"#utility.yul\":2491:2492   */\n      0x00\n        /* \"#utility.yul\":2484:2572   */\n      mstore\n        /* \"#utility.yul\":2591:2595   */\n      0x41\n        /* \"#utility.yul\":2588:2589   */\n      0x04\n        /* \"#utility.yul\":2581:2596   */\n      mstore\n        /* \"#utility.yul\":2615:2619   */\n      0x24\n        /* \"#utility.yul\":2612:2613   */\n      0x00\n        /* \"#utility.yul\":2605:2620   */\n      revert\n        /* \"#utility.yul\":2632:2812   */\n    tag_54:\n        /* \"#utility.yul\":2680:2757   */\n      0x4e487b7100000000000000000000000000000000000000000000000000000000\n        /* \"#utility.yul\":2677:2678   */\n      0x00\n        /* \"#utility.yul\":2670:2758   */\n      mstore\n        /* \"#utility.yul\":2777:2781   */\n      0x22\n        /* \"#utility.yul\":2774:2775   */\n      0x04\n        /* \"#utility.yul\":2767:2782   */\n      mstore\n        /* \"#utility.yul\":2801:2805   */\n      0x24\n        /* \"#utility.yul\":2798:2799   */\n      0x00\n        /* \"#utility.yul\":2791:2806   */\n      revert\n        /* \"#utility.yul\":2818:3138   */\n    tag_26:\n        /* \"#utility.yul\":2862:2868   */\n      0x00\n        /* \"#utility.yul\":2899:2900   */\n      0x02\n        /* \"#utility.yul\":2893:2897   */\n      dup3\n        /* \"#utility.yul\":2889:2901   */\n      div\n        /* \"#utility.yul\":2879:2901   */\n      swap1\n      pop\n        /* \"#utility.yul\":2946:2947   */\n      0x01\n        /* \"#utility.yul\":2940:2944   */\n      dup3\n        /* \"#utility.yul\":2936:2948   */\n      and\n        /* \"#utility.yul\":2967:2985   */\n      dup1\n        /* \"#utility.yul\":2957:3038   */\n      tag_99\n      jumpi\n        /* \"#utility.yul\":3023:3027   */\n      0x7f\n        /* \"#utility.yul\":3015:3021   */\n      dup3\n        /* \"#utility.yul\":3011:3028   */\n      and\n        /* \"#utility.yul\":3001:3028   */\n      swap2\n      pop\n        /* \"#utility.yul\":2957:3038   */\n    tag_99:\n        /* \"#utility.yul\":3085:3087   */\n      0x20\n        /* \"#utility.yul\":3077:3083   */\n      dup3\n        /* \"#utility.yul\":3074:3088   */\n      lt\n        /* \"#utility.yul\":3054:3072   */\n      dup2\n        /* \"#utility.yul\":3051:3089   */\n      sub\n        /* \"#utility.yul\":3048:3132   */\n      tag_100\n      jumpi\n        /* \"#utility.yul\":3104:3122   */\n      tag_101\n      tag_54\n      jump\t// in\n    tag_101:\n        /* \"#utility.yul\":3048:3132   */\n    tag_100:\n        /* \"#utility.yul\":2869:3138   */\n      pop\n        /* \"#utility.yul\":2818:3138   */\n      swap2\n      swap1\n      pop\n      jump\t// out\n        /* \"#utility.yul\":3144:3285   */\n    tag_55:\n        /* \"#utility.yul\":3193:3197   */\n      0x00\n        /* \"#utility.yul\":3216:3219   */\n      dup2\n        /* \"#utility.yul\":3208:3219   */\n      swap1\n      pop\n        /* \"#utility.yul\":3239:3242   */\n      dup2\n        /* \"#utility.yul\":3236:3237   */\n      0x00\n        /* \"#utility.yul\":3229:3243   */\n      mstore\n        /* \"#utility.yul\":3273:3277   */\n      0x20\n        /* \"#utility.yul\":3270:3271   */\n      0x00\n        /* \"#utility.yul\":3260:3278   */\n      keccak256\n        /* \"#utility.yul\":3252:3278   */\n      swap1\n      pop\n        /* \"#utility.yul\":3144:3285   */\n      swap2\n      swap1\n      pop\n      jump\t// out\n        /* \"#utility.yul\":3291:3384   */\n    tag_56:\n        /* \"#utility.yul\":3328:3334   */\n      0x00\n        /* \"#utility.yul\":3375:3377   */\n      0x20\n        /* \"#utility.yul\":3370:3372   */\n      0x1f\n        /* \"#utility.yul\":3363:3368   */\n      dup4\n        /* \"#utility.yul\":3359:3373   */\n      add\n        /* \"#utility.yul\":3355:3378   */\n      div\n        /* \"#utility.yul\":3345:3378   */\n      swap1\n      pop\n        /* \"#utility.yul\":3291:3384   */\n      swap2\n      swap1\n      pop\n      jump\t// out\n        /* \"#utility.yul\":3390:3497   */\n    tag_57:\n        /* \"#utility.yul\":3434:3442   */\n      0x00\n        /* \"#utility.yul\":3484:3489   */\n      dup3\n        /* \"#utility.yul\":3478:3482   */\n      dup3\n        /* \"#utility.yul\":3474:3490   */\n      shl\n        /* \"#utility.yul\":3453:3490   */\n      swap1\n      pop\n        /* \"#utility.yul\":3390:3497   */\n      swap3\n      swap2\n      pop\n      pop\n      jump\t// out\n        /* \"#utility.yul\":3503:3896   */\n    tag_58:\n        /* \"#utility.yul\":3572:3578   */\n      0x00\n        /* \"#utility.yul\":3622:3623   */\n      0x08\n        /* \"#utility.yul\":3610:3620   */\n      dup4\n        /* \"#utility.yul\":3606:3624   */\n      mul\n        /* \"#utility.yul\":3645:3742   */\n      tag_106\n        /* \"#utility.yul\":3675:3741   */\n      0xffffffffffffffffffffffffffffffffffffffffffffffffffffffffffffffff\n        /* \"#utility.yul\":3664:3673   */\n      dup3\n        /* \"#utility.yul\":3645:3742   */\n      tag_57\n      jump\t// in\n    tag_106:\n        /* \"#utility.yul\":3763:3802   */\n      tag_107\n        /* \"#utility.yul\":3793:3801   */\n      dup7\n        /* \"#utility.yul\":3782:3791   */\n      dup4\n        /* \"#utility.yul\":3763:3802   */\n      tag_57\n      jump\t// in\n    tag_107:\n        /* \"#utility.yul\":3751:3802   */\n      swap6\n      pop\n        /* \"#utility.yul\":3835:3839   */\n      dup1\n        /* \"#utility.yul\":3831:3840   */\n      not\n        /* \"#utility.yul\":3824:3829   */\n      dup5\n        /* \"#utility.yul\":3820:3841   */\n      and\n        /* \"#utility.yul\":3811:3841   */\n      swap4\n      pop\n        /* \"#utility.yul\":3884:3888   */\n      dup1\n        /* \"#utility.yul\":3874:3882   */\n      dup7\n        /* \"#utility.yul\":3870:3889   */\n      and\n        /* \"#utility.yul\":3863:3868   */\n      dup5\n        /* \"#utility.yul\":3860:3890   */\n      or\n        /* \"#utility.yul\":3850:3890   */\n      swap3\n      pop\n        /* \"#utility.yul\":3579:3896   */\n      pop\n      pop\n        /* \"#utility.yul\":3503:3896   */\n      swap4\n      swap3\n      pop\n      pop\n      pop\n      jump\t// out\n        /* \"#utility.yul\":3902:3962   */\n    tag_59:\n        /* \"#utility.yul\":3930:3933   */\n      0x00\n        /* \"#utility.yul\":3951:3956   */\n      dup2\n        /* \"#utility.yul\":3944:3956   */\n      swap1\n      pop\n        /* \"#utility.yul\":3902:3962   */\n      swap2\n      swap1\n      pop\n      jump\t// out\n        /* \"#utility.yul\":3968:4110   */\n    tag_60:\n        /* \"#utility.yul\":4018:4027   */\n      0x00\n        /* \"#utility.yul\":4051:4104   */\n      tag_110\n        /* \"#utility.yul\":4069:4103   */\n      tag_111\n        /* \"#utility.yul\":4078:4102   */\n      tag_112\n        /* \"#utility.yul\":4096:4101   */\n      dup5\n        /* \"#utility.yul\":4078:4102   */\n      tag_45\n      jump\t// in\n    tag_112:\n        /* \"#utility.yul\":4069:4103   */\n      tag_59\n      jump\t// in\n    tag_111:\n        /* \"#utility.yul\":4051:4104   */\n      tag_45\n      jump\t// in\n    tag_110:\n        /* \"#utility.yul\":4038:4104   */\n      swap1\n      pop\n        /* \"#utility.yul\":3968:4110   */\n      swap2\n      swap1\n      pop\n      jump\t// out\n        /* \"#utility.yul\":4116:4191   */\n    tag_61:\n        /* \"#utility.yul\":4159:4162   */\n      0x00\n        /* \"#utility.yul\":4180:4185   */\n      dup2\n        /* \"#utility.yul\":4173:4185   */\n      swap1\n      pop\n        /* \"#utility.yul\":4116:4191   */\n      swap2\n      swap1\n      pop\n      jump\t// out\n        /* \"#utility.yul\":4197:4466   */\n    tag_62:\n        /* \"#utility.yul\":4307:4346   */\n      tag_115\n        /* \"#utility.yul\":4338:4345   */\n      dup4\n        /* \"#utility.yul\":4307:4346   */\n      tag_60\n      jump\t// in\n    tag_115:\n        /* \"#utility.yul\":4368:4459   */\n      tag_116\n        /* \"#utility.yul\":4417:4458   */\n      tag_117\n        /* \"#utility.yul\":4441:4457   */\n      dup3\n        /* \"#utility.yul\":4417:4458   */\n      tag_61\n      jump\t// in\n    tag_117:\n        /* \"#utility.yul\":4409:4415   */\n      dup5\n        /* \"#utility.yul\":4402:4406   */\n      dup5\n        /* \"#utility.yul\":4396:4407   */\n      sload\n        /* \"#utility.yul\":4368:4459   */\n      tag_58\n      jump\t// in\n    tag_116:\n        /* \"#utility.yul\":4362:4366   */\n      dup3\n        /* \"#utility.yul\":4355:4460   */\n      sstore\n        /* \"#utility.yul\":4273:4466   */\n      pop\n        /* \"#utility.yul\":4197:4466   */\n      pop\n      pop\n      pop\n      jump\t// out\n        /* \"#utility.yul\":4472:4545   */\n    tag_63:\n        /* \"#utility.yul\":4517:4520   */\n      0x00\n        /* \"#utility.yul\":4472:4545   */\n      swap1\n      jump\t// out\n        /* \"#utility.yul\":4551:4740   */\n    tag_64:\n        /* \"#utility.yul\":4628:4660   */\n      tag_120\n      tag_63\n      jump\t// in\n    tag_120:\n        /* \"#utility.yul\":4669:4734   */\n      tag_121\n        /* \"#utility.yul\":4727:4733   */\n      dup2\n        /* \"#utility.yul\":4719:4725   */\n      dup5\n        /* \"#utility.yul\":4713:4717   */\n      dup5\n        /* \"#utility.yul\":4669:4734   */\n      tag_62\n      jump\t// in\n    tag_121:\n        /* \"#utility.yul\":4604:4740   */\n      pop\n        /* \"#utility.yul\":4551:4740   */\n      pop\n      pop\n      jump\t// out\n        /* \"#utility.yul\":4746:4932   */\n    tag_65:\n        /* \"#utility.yul\":4806:4926   */\n    tag_123:\n        /* \"#utility.yul\":4823:4826   */\n      dup2\n        /* \"#utility.yul\":4816:4821   */\n      dup2\n        /* \"#utility.yul\":4813:4827   */\n      lt\n        /* \"#utility.yul\":4806:4926   */\n      iszero\n      tag_125\n      jumpi\n        /* \"#utility.yul\":4877:4916   */\n      tag_126\n        /* \"#utility.yul\":4914:4915   */\n      0x00\n        /* \"#utility.yul\":4907:4912   */\n      dup3\n        /* \"#utility.yul\":4877:4916   */\n      tag_64\n      jump\t// in\n    tag_126:\n        /* \"#utility.yul\":4850:4851   */\n      0x01\n        /* \"#utility.yul\":4843:4848   */\n      dup2\n        /* \"#utility.yul\":4839:4852   */\n      add\n        /* \"#utility.yul\":4830:4852   */\n      swap1\n      pop\n        /* \"#utility.yul\":4806:4926   */\n      jump(tag_123)\n    tag_125:\n        /* \"#utility.yul\":4746:4932   */\n      pop\n      pop\n      jump\t// out\n        /* \"#utility.yul\":4938:5481   */\n    tag_66:\n        /* \"#utility.yul\":5039:5041   */\n      0x1f\n        /* \"#utility.yul\":5034:5037   */\n      dup3\n        /* \"#utility.yul\":5031:5042   */\n      gt\n        /* \"#utility.yul\":5028:5474   */\n      iszero\n      tag_128\n      jumpi\n        /* \"#utility.yul\":5073:5111   */\n      tag_129\n        /* \"#utility.yul\":5105:5110   */\n      dup2\n        /* \"#utility.yul\":5073:5111   */\n      tag_55\n      jump\t// in\n    tag_129:\n        /* \"#utility.yul\":5157:5186   */\n      tag_130\n        /* \"#utility.yul\":5175:5185   */\n      dup5\n        /* \"#utility.yul\":5157:5186   */\n      tag_56\n      jump\t// in\n    tag_130:\n        /* \"#utility.yul\":5147:5155   */\n      dup2\n        /* \"#utility.yul\":5143:5187   */\n      add\n        /* \"#utility.yul\":5340:5342   */\n      0x20\n        /* \"#utility.yul\":5328:5338   */\n      dup6\n        /* \"#utility.yul\":5325:5343   */\n      lt\n        /* \"#utility.yul\":5322:5371   */\n      iszero\n      tag_131\n      jumpi\n        /* \"#utility.yul\":5361:5369   */\n      dup2\n        /* \"#utility.yul\":5346:5369   */\n      swap1\n      pop\n        /* \"#utility.yul\":5322:5371   */\n    tag_131:\n        /* \"#utility.yul\":5384:5464   */\n      tag_132\n        /* \"#utility.yul\":5440:5462   */\n      tag_133\n        /* \"#utility.yul\":5458:5461   */\n      dup6\n        /* \"#utility.yul\":5440:5462   */\n      tag_56\n      jump\t// in\n    tag_133:\n        /* \"#utility.yul\":5430:5438   */\n      dup4\n        /* \"#utility.yul\":5426:5463   */\n      add\n        /* \"#utility.yul\":5413:5424   */\n      dup3\n        /* \"#utility.yul\":5384:5464   */\n      tag_65\n      jump\t// in\n    tag_132:\n        /* \"#utility.yul\":5043:5474   */\n      pop\n      pop\n        /* \"#utility.yul\":5028:5474   */\n    tag_128:\n        /* \"#utility.yul\":4938:5481   */\n      pop\n      pop\n      pop\n      jump\t// out\n        /* \"#utility.yul\":5487:5604   */\n    tag_67:\n        /* \"#utility.yul\":5541:5549   */\n      0x00\n        /* \"#utility.yul\":5591:5596   */\n      dup3\n        /* \"#utility.yul\":5585:5589   */\n      dup3\n        /* \"#utility.yul\":5581:5597   */\n      shr\n        /* \"#utility.yul\":5560:5597   */\n      swap1\n      pop\n        /* \"#utility.yul\":5487:5604   */\n      swap3\n      swap2\n      pop\n      pop\n      jump\t// out\n        /* \"#utility.yul\":5610:5779   */\n    tag_68:\n        /* \"#utility.yul\":5654:5660   */\n      0x00\n        /* \"#utility.yul\":5687:5738   */\n      tag_136\n        /* \"#utility.yul\":5735:5736   */\n      0x00\n        /* \"#utility.yul\":5731:5737   */\n      not\n        /* \"#utility.yul\":5723:5728   */\n      dup5\n        /* \"#utility.yul\":5720:5721   */\n      0x08\n        /* \"#utility.yul\":5716:5729   */\n      mul\n        /* \"#utility.yul\":5687:5738   */\n      tag_67\n      jump\t// in\n    tag_136:\n        /* \"#utility.yul\":5683:5739   */\n      not\n        /* \"#utility.yul\":5768:5772   */\n      dup1\n        /* \"#utility.yul\":5762:5766   */\n      dup4\n        /* \"#utility.yul\":5758:5773   */\n      and\n        /* \"#utility.yul\":5748:5773   */\n      swap2\n      pop\n        /* \"#utility.yul\":5661:5779   */\n      pop\n        /* \"#utility.yul\":5610:5779   */\n      swap3\n      swap2\n      pop\n      pop\n      jump\t// out\n        /* \"#utility.yul\":5784:6079   */\n    tag_69:\n        /* \"#utility.yul\":5860:5864   */\n      0x00\n        /* \"#utility.yul\":6006:6035   */\n      tag_138\n        /* \"#utility.yul\":6031:6034   */\n      dup4\n        /* \"#utility.yul\":6025:6029   */\n      dup4\n        /* \"#utility.yul\":6006:6035   */\n      tag_68\n      jump\t// in\n    tag_138:\n        /* \"#utility.yul\":5998:6035   */\n      swap2\n      pop\n        /* \"#utility.yul\":6068:6071   */\n      dup3\n        /* \"#utility.yul\":6065:6066   */\n      0x02\n        /* \"#utility.yul\":6061:6072   */\n      mul\n        /* \"#utility.yul\":6055:6059   */\n      dup3\n        /* \"#utility.yul\":6052:6073   */\n      or\n        /* \"#utility.yul\":6044:6073   */\n      swap1\n      pop\n        /* \"#utility.yul\":5784:6079   */\n      swap3\n      swap2\n      pop\n      pop\n      jump\t// out\n        /* \"#utility.yul\":6084:7479   */\n    tag_22:\n        /* \"#utility.yul\":6201:6238   */\n      tag_140\n        /* \"#utility.yul\":6234:6237   */\n      dup3\n        /* \"#utility.yul\":6201:6238   */\n      tag_48\n      jump\t// in\n    tag_140:\n        /* \"#utility.yul\":6303:6321   */\n      0xffffffffffffffff\n        /* \"#utility.yul\":6295:6301   */\n      dup2\n        /* \"#utility.yul\":6292:6322   */\n      gt\n        /* \"#utility.yul\":6289:6345   */\n      iszero\n      tag_141\n      jumpi\n        /* \"#utility.yul\":6325:6343   */\n      tag_142\n      tag_53\n      jump\t// in\n    tag_142:\n        /* \"#utility.yul\":6289:6345   */\n    tag_141:\n        /* \"#utility.yul\":6369:6407   */\n      tag_143\n        /* \"#utility.yul\":6401:6405   */\n      dup3\n        /* \"#utility.yul\":6395:6406   */\n      sload\n        /* \"#utility.yul\":6369:6407   */\n      tag_26\n      jump\t// in\n    tag_143:\n        /* \"#utility.yul\":6454:6521   */\n      tag_144\n        /* \"#utility.yul\":6514:6520   */\n      dup3\n        /* \"#utility.yul\":6506:6512   */\n      dup3\n        /* \"#utility.yul\":6500:6504   */\n      dup6\n        /* \"#utility.yul\":6454:6521   */\n      tag_66\n      jump\t// in\n    tag_144:\n        /* \"#utility.yul\":6548:6549   */\n      0x00\n        /* \"#utility.yul\":6572:6576   */\n      0x20\n        /* \"#utility.yul\":6559:6576   */\n      swap1\n      pop\n        /* \"#utility.yul\":6604:6606   */\n      0x1f\n        /* \"#utility.yul\":6596:6602   */\n      dup4\n        /* \"#utility.yul\":6593:6607   */\n      gt\n        /* \"#utility.yul\":6621:6622   */\n      0x01\n        /* \"#utility.yul\":6616:7234   */\n      dup2\n      eq\n      tag_146\n      jumpi\n        /* \"#utility.yul\":7278:7279   */\n      0x00\n        /* \"#utility.yul\":7295:7301   */\n      dup5\n        /* \"#utility.yul\":7292:7369   */\n      iszero\n      tag_147\n      jumpi\n        /* \"#utility.yul\":7344:7353   */\n      dup3\n        /* \"#utility.yul\":7339:7342   */\n      dup8\n        /* \"#utility.yul\":7335:7354   */\n      add\n        /* \"#utility.yul\":7329:7355   */\n      mload\n        /* \"#utility.yul\":7320:7355   */\n      swap1\n      pop\n        /* \"#utility.yul\":7292:7369   */\n    tag_147:\n        /* \"#utility.yul\":7395:7462   */\n      tag_148\n        /* \"#utility.yul\":7455:7461   */\n      dup6\n        /* \"#utility.yul\":7448:7453   */\n      dup3\n        /* \"#utility.yul\":7395:7462   */\n      tag_69\n      jump\t// in\n    tag_148:\n        /* \"#utility.yul\":7389:7393   */\n      dup7\n        /* \"#utility.yul\":7382:7463   */\n      sstore\n        /* \"#utility.yul\":7251:7473   */\n      pop\n        /* \"#utility.yul\":6586:7473   */\n      jump(tag_145)\n        /* \"#utility.yul\":6616:7234   */\n    tag_146:\n        /* \"#utility.yul\":6668:6672   */\n      0x1f\n        /* \"#utility.yul\":6664:6673   */\n      not\n        /* \"#utility.yul\":6656:6662   */\n      dup5\n        /* \"#utility.yul\":6652:6674   */\n      and\n        /* \"#utility.yul\":6702:6739   */\n      tag_149\n        /* \"#utility.yul\":6734:6738   */\n      dup7\n        /* \"#utility.yul\":6702:6739   */\n      tag_55\n      jump\t// in\n    tag_149:\n        /* \"#utility.yul\":6761:6762   */\n      0x00\n        /* \"#utility.yul\":6775:6983   */\n    tag_150:\n        /* \"#utility.yul\":6789:6796   */\n      dup3\n        /* \"#utility.yul\":6786:6787   */\n      dup2\n        /* \"#utility.yul\":6783:6797   */\n      lt\n        /* \"#utility.yul\":6775:6983   */\n      iszero\n      tag_152\n      jumpi\n        /* \"#utility.yul\":6868:6877   */\n      dup5\n        /* \"#utility.yul\":6863:6866   */\n      dup10\n        /* \"#utility.yul\":6859:6878   */\n      add\n        /* \"#utility.yul\":6853:6879   */\n      mload\n        /* \"#utility.yul\":6845:6851   */\n      dup3\n        /* \"#utility.yul\":6838:6880   */\n      sstore\n        /* \"#utility.yul\":6919:6920   */\n      0x01\n        /* \"#utility.yul\":6911:6917   */\n      dup3\n        /* \"#utility.yul\":6907:6921   */\n      add\n        /* \"#utility.yul\":6897:6921   */\n      swap2\n      pop\n        /* \"#utility.yul\":6966:6968   */\n      0x20\n        /* \"#utility.yul\":6955:6964   */\n      dup6\n        /* \"#utility.yul\":6951:6969   */\n      add\n        /* \"#utility.yul\":6938:6969   */\n      swap5\n      pop\n        /* \"#utility.yul\":6812:6816   */\n      0x20\n        /* \"#utility.yul\":6809:6810   */\n      dup2\n        /* \"#utility.yul\":6805:6817   */\n      add\n        /* \"#utility.yul\":6800:6817   */\n      swap1\n      pop\n        /* \"#utility.yul\":6775:6983   */\n      jump(tag_150)\n    tag_152:\n        /* \"#utility.yul\":7011:7017   */\n      dup7\n        /* \"#utility.yul\":7002:7009   */\n      dup4\n        /* \"#utility.yul\":6999:7018   */\n      lt\n        /* \"#utility.yul\":6996:7175   */\n      iszero\n      tag_153\n      jumpi\n        /* \"#utility.yul\":7069:7078   */\n      dup5\n        /* \"#utility.yul\":7064:7067   */\n      dup10\n        /* \"#utility.yul\":7060:7079   */\n      add\n        /* \"#utility.yul\":7054:7080   */\n      mload\n        /* \"#utility.yul\":7112:7160   */\n      tag_154\n        /* \"#utility.yul\":7154:7158   */\n      0x1f\n        /* \"#utility.yul\":7146:7152   */\n      dup10\n        /* \"#utility.yul\":7142:7159   */\n      and\n        /* \"#utility.yul\":7131:7140   */\n      dup3\n        /* \"#utility.yul\":7112:7160   */\n      tag_68\n      jump\t// in\n    tag_154:\n        /* \"#utility.yul\":7104:7110   */\n      dup4\n        /* \"#utility.yul\":7097:7161   */\n      sstore\n        /* \"#utility.yul\":7019:7175   */\n      pop\n        /* \"#utility.yul\":6996:7175   */\n    tag_153:\n        /* \"#utility.yul\":7221:7222   */\n      0x01\n        /* \"#utility.yul\":7217:7218   */\n      0x02\n        /* \"#utility.yul\":7209:7215   */\n      dup9\n        /* \"#utility.yul\":7205:7219   */\n      mul\n        /* \"#utility.yul\":7201:7223   */\n      add\n        /* \"#utility.yul\":7195:7199   */\n      dup9\n        /* \"#utility.yul\":7188:7224   */\n      sstore\n        /* \"#utility.yul\":6623:7234   */\n      pop\n      pop\n      pop\n        /* \"#utility.yul\":6586:7473   */\n    tag_145:\n      pop\n        /* \"#utility.yul\":6176:7479   */\n      pop\n      pop\n      pop\n        /* \"#utility.yul\":6084:7479   */\n      pop\n      pop\n      jump\t// out\n\n    auxdata: 0xa2646970667358221220a3a1ceadf680f70579837b5f25239ff57c829c5fa6d839bc63fa9cee4f4cab3864736f6c634300081a0033\n}\n",
				"bytecode": {
					"linkReferences": {},
					"object": "608060405260405180606001604052806040518060400160405280600481526020017f526176690000000000000000000000000000000000000000000000000000000081525081526020016040518060400160405280600481526020017f526974610000000000000000000000000000000000000000000000000000000081525081526020016040518060400160405280600481526020017f416d616e000000000000000000000000000000000000000000000000000000008152508152505f9060036100cd9291906100df565b503480156100d9575f80fd5b506104ba565b828054828255905f5260205f20908101928215610125579160200282015b8281111561012457825182908161011491906103eb565b50916020019190600101906100fd565b5b5090506101329190610136565b5090565b5b80821115610155575f818161014c9190610159565b50600101610137565b5090565b50805461016590610215565b5f825580601f106101765750610193565b601f0160209004905f5260205f20908101906101929190610196565b5b50565b5b808211156101ad575f815f905550600101610197565b5090565b5f81519050919050565b7f4e487b71000000000000000000000000000000000000000000000000000000005f52604160045260245ffd5b7f4e487b71000000000000000000000000000000000000000000000000000000005f52602260045260245ffd5b5f600282049050600182168061022c57607f821691505b60208210810361023f5761023e6101e8565b5b50919050565b5f819050815f5260205f209050919050565b5f6020601f8301049050919050565b5f82821b905092915050565b5f600883026102a17fffffffffffffffffffffffffffffffffffffffffffffffffffffffffffffffff82610266565b6102ab8683610266565b95508019841693508086168417925050509392505050565b5f819050919050565b5f819050919050565b5f6102ef6102ea6102e5846102c3565b6102cc565b6102c3565b9050919050565b5f819050919050565b610308836102d5565b61031c610314826102f6565b848454610272565b825550505050565b5f90565b610330610324565b61033b8184846102ff565b505050565b5b8181101561035e576103535f82610328565b600181019050610341565b5050565b601f8211156103a35761037481610245565b61037d84610257565b8101602085101561038c578190505b6103a061039885610257565b830182610340565b50505b505050565b5f82821c905092915050565b5f6103c35f19846008026103a8565b1980831691505092915050565b5f6103db83836103b4565b9150826002028217905092915050565b6103f4826101b1565b67ffffffffffffffff81111561040d5761040c6101bb565b5b6104178254610215565b610422828285610362565b5f60209050601f831160018114610453575f8415610441578287015190505b61044b85826103d0565b8655506104b2565b601f19841661046186610245565b5f5b8281101561048857848901518255600182019150602085019450602081019050610463565b868310156104a557848901516104a1601f8916826103b4565b8355505b6001600288020188555050505b505050505050565b6106ff806104c75f395ff3fe608060405234801561000f575f80fd5b506004361061003f575f3560e01c806316fff0741461004357806335f342321461004d57806385883d8c1461007d575b5f80fd5b61004b610087565b005b610067600480360381019061006291906102eb565b6100e9565b6040516100749190610386565b60405180910390f35b61008561018e565b005b5f6040518060400160405280600581526020017f416b617368000000000000000000000000000000000000000000000000000000815250815f815481106100d1576100d06103a6565b5b905f5260205f200190816100e591906105fa565b5050565b5f81815481106100f7575f80fd5b905f5260205f20015f91509050805461010f9061042d565b80601f016020809104026020016040519081016040528092919081815260200182805461013b9061042d565b80156101865780601f1061015d57610100808354040283529160200191610186565b820191905f5260205f20905b81548152906001019060200180831161016957829003601f168201915b505050505081565b5f80805480602002602001604051908101604052809291908181526020015f905b82821015610257578382905f5260205f200180546101cc9061042d565b80601f01602080910402602001604051908101604052809291908181526020018280546101f89061042d565b80156102435780601f1061021a57610100808354040283529160200191610243565b820191905f5260205f20905b81548152906001019060200180831161022657829003601f168201915b5050505050815260200190600101906101af565b5050505090506040518060400160405280600581526020017f416b617368000000000000000000000000000000000000000000000000000000815250815f815181106102a6576102a56103a6565b5b602002602001018190525050565b5f80fd5b5f819050919050565b6102ca816102b8565b81146102d4575f80fd5b50565b5f813590506102e5816102c1565b92915050565b5f60208284031215610300576102ff6102b4565b5b5f61030d848285016102d7565b91505092915050565b5f81519050919050565b5f82825260208201905092915050565b8281835e5f83830152505050565b5f601f19601f8301169050919050565b5f61035882610316565b6103628185610320565b9350610372818560208601610330565b61037b8161033e565b840191505092915050565b5f6020820190508181035f83015261039e818461034e565b905092915050565b7f4e487b71000000000000000000000000000000000000000000000000000000005f52603260045260245ffd5b7f4e487b71000000000000000000000000000000000000000000000000000000005f52604160045260245ffd5b7f4e487b71000000000000000000000000000000000000000000000000000000005f52602260045260245ffd5b5f600282049050600182168061044457607f821691505b60208210810361045757610456610400565b5b50919050565b5f819050815f5260205f209050919050565b5f6020601f8301049050919050565b5f82821b905092915050565b5f600883026104b97fffffffffffffffffffffffffffffffffffffffffffffffffffffffffffffffff8261047e565b6104c3868361047e565b95508019841693508086168417925050509392505050565b5f819050919050565b5f6104fe6104f96104f4846102b8565b6104db565b6102b8565b9050919050565b5f819050919050565b610517836104e4565b61052b61052382610505565b84845461048a565b825550505050565b5f90565b61053f610533565b61054a81848461050e565b505050565b5b8181101561056d576105625f82610537565b600181019050610550565b5050565b601f8211156105b2576105838161045d565b61058c8461046f565b8101602085101561059b578190505b6105af6105a78561046f565b83018261054f565b50505b505050565b5f82821c905092915050565b5f6105d25f19846008026105b7565b1980831691505092915050565b5f6105ea83836105c3565b9150826002028217905092915050565b61060382610316565b67ffffffffffffffff81111561061c5761061b6103d3565b5b610626825461042d565b610631828285610571565b5f60209050601f831160018114610662575f8415610650578287015190505b61065a85826105df565b8655506106c1565b601f1984166106708661045d565b5f5b8281101561069757848901518255600182019150602085019450602081019050610672565b868310156106b457848901516106b0601f8916826105c3565b8355505b6001600288020188555050505b50505050505056fea2646970667358221220a3a1ceadf680f70579837b5f25239ff57c829c5fa6d839bc63fa9cee4f4cab3864736f6c634300081a0033",
					"opcodes": "PUSH1 0x80 PUSH1 0x40 MSTORE PUSH1 0x40 MLOAD DUP1 PUSH1 0x60 ADD PUSH1 0x40 MSTORE DUP1 PUSH1 0x40 MLOAD DUP1 PUSH1 0x40 ADD PUSH1 0x40 MSTORE DUP1 PUSH1 0x4 DUP2 MSTORE PUSH1 0x20 ADD PUSH32 0x5261766900000000000000000000000000000000000000000000000000000000 DUP2 MSTORE POP DUP2 MSTORE PUSH1 0x20 ADD PUSH1 0x40 MLOAD DUP1 PUSH1 0x40 ADD PUSH1 0x40 MSTORE DUP1 PUSH1 0x4 DUP2 MSTORE PUSH1 0x20 ADD PUSH32 0x5269746100000000000000000000000000000000000000000000000000000000 DUP2 MSTORE POP DUP2 MSTORE PUSH1 0x20 ADD PUSH1 0x40 MLOAD DUP1 PUSH1 0x40 ADD PUSH1 0x40 MSTORE DUP1 PUSH1 0x4 DUP2 MSTORE PUSH1 0x20 ADD PUSH32 0x416D616E00000000000000000000000000000000000000000000000000000000 DUP2 MSTORE POP DUP2 MSTORE POP PUSH0 SWAP1 PUSH1 0x3 PUSH2 0xCD SWAP3 SWAP2 SWAP1 PUSH2 0xDF JUMP JUMPDEST POP CALLVALUE DUP1 ISZERO PUSH2 0xD9 JUMPI PUSH0 DUP1 REVERT JUMPDEST POP PUSH2 0x4BA JUMP JUMPDEST DUP3 DUP1 SLOAD DUP3 DUP3 SSTORE SWAP1 PUSH0 MSTORE PUSH1 0x20 PUSH0 KECCAK256 SWAP1 DUP2 ADD SWAP3 DUP3 ISZERO PUSH2 0x125 JUMPI SWAP2 PUSH1 0x20 MUL DUP3 ADD JUMPDEST DUP3 DUP2 GT ISZERO PUSH2 0x124 JUMPI DUP3 MLOAD DUP3 SWAP1 DUP2 PUSH2 0x114 SWAP2 SWAP1 PUSH2 0x3EB JUMP JUMPDEST POP SWAP2 PUSH1 0x20 ADD SWAP2 SWAP1 PUSH1 0x1 ADD SWAP1 PUSH2 0xFD JUMP JUMPDEST JUMPDEST POP SWAP1 POP PUSH2 0x132 SWAP2 SWAP1 PUSH2 0x136 JUMP JUMPDEST POP SWAP1 JUMP JUMPDEST JUMPDEST DUP1 DUP3 GT ISZERO PUSH2 0x155 JUMPI PUSH0 DUP2 DUP2 PUSH2 0x14C SWAP2 SWAP1 PUSH2 0x159 JUMP JUMPDEST POP PUSH1 0x1 ADD PUSH2 0x137 JUMP JUMPDEST POP SWAP1 JUMP JUMPDEST POP DUP1 SLOAD PUSH2 0x165 SWAP1 PUSH2 0x215 JUMP JUMPDEST PUSH0 DUP3 SSTORE DUP1 PUSH1 0x1F LT PUSH2 0x176 JUMPI POP PUSH2 0x193 JUMP JUMPDEST PUSH1 0x1F ADD PUSH1 0x20 SWAP1 DIV SWAP1 PUSH0 MSTORE PUSH1 0x20 PUSH0 KECCAK256 SWAP1 DUP2 ADD SWAP1 PUSH2 0x192 SWAP2 SWAP1 PUSH2 0x196 JUMP JUMPDEST JUMPDEST POP JUMP JUMPDEST JUMPDEST DUP1 DUP3 GT ISZERO PUSH2 0x1AD JUMPI PUSH0 DUP2 PUSH0 SWAP1 SSTORE POP PUSH1 0x1 ADD PUSH2 0x197 JUMP JUMPDEST POP SWAP1 JUMP JUMPDEST PUSH0 DUP2 MLOAD SWAP1 POP SWAP2 SWAP1 POP JUMP JUMPDEST PUSH32 0x4E487B7100000000000000000000000000000000000000000000000000000000 PUSH0 MSTORE PUSH1 0x41 PUSH1 0x4 MSTORE PUSH1 0x24 PUSH0 REVERT JUMPDEST PUSH32 0x4E487B7100000000000000000000000000000000000000000000000000000000 PUSH0 MSTORE PUSH1 0x22 PUSH1 0x4 MSTORE PUSH1 0x24 PUSH0 REVERT JUMPDEST PUSH0 PUSH1 0x2 DUP3 DIV SWAP1 POP PUSH1 0x1 DUP3 AND DUP1 PUSH2 0x22C JUMPI PUSH1 0x7F DUP3 AND SWAP2 POP JUMPDEST PUSH1 0x20 DUP3 LT DUP2 SUB PUSH2 0x23F JUMPI PUSH2 0x23E PUSH2 0x1E8 JUMP JUMPDEST JUMPDEST POP SWAP2 SWAP1 POP JUMP JUMPDEST PUSH0 DUP2 SWAP1 POP DUP2 PUSH0 MSTORE PUSH1 0x20 PUSH0 KECCAK256 SWAP1 POP SWAP2 SWAP1 POP JUMP JUMPDEST PUSH0 PUSH1 0x20 PUSH1 0x1F DUP4 ADD DIV SWAP1 POP SWAP2 SWAP1 POP JUMP JUMPDEST PUSH0 DUP3 DUP3 SHL SWAP1 POP SWAP3 SWAP2 POP POP JUMP JUMPDEST PUSH0 PUSH1 0x8 DUP4 MUL PUSH2 0x2A1 PUSH32 0xFFFFFFFFFFFFFFFFFFFFFFFFFFFFFFFFFFFFFFFFFFFFFFFFFFFFFFFFFFFFFFFF DUP3 PUSH2 0x266 JUMP JUMPDEST PUSH2 0x2AB DUP7 DUP4 PUSH2 0x266 JUMP JUMPDEST SWAP6 POP DUP1 NOT DUP5 AND SWAP4 POP DUP1 DUP7 AND DUP5 OR SWAP3 POP POP POP SWAP4 SWAP3 POP POP POP JUMP JUMPDEST PUSH0 DUP2 SWAP1 POP SWAP2 SWAP1 POP JUMP JUMPDEST PUSH0 DUP2 SWAP1 POP SWAP2 SWAP1 POP JUMP JUMPDEST PUSH0 PUSH2 0x2EF PUSH2 0x2EA PUSH2 0x2E5 DUP5 PUSH2 0x2C3 JUMP JUMPDEST PUSH2 0x2CC JUMP JUMPDEST PUSH2 0x2C3 JUMP JUMPDEST SWAP1 POP SWAP2 SWAP1 POP JUMP JUMPDEST PUSH0 DUP2 SWAP1 POP SWAP2 SWAP1 POP JUMP JUMPDEST PUSH2 0x308 DUP4 PUSH2 0x2D5 JUMP JUMPDEST PUSH2 0x31C PUSH2 0x314 DUP3 PUSH2 0x2F6 JUMP JUMPDEST DUP5 DUP5 SLOAD PUSH2 0x272 JUMP JUMPDEST DUP3 SSTORE POP POP POP POP JUMP JUMPDEST PUSH0 SWAP1 JUMP JUMPDEST PUSH2 0x330 PUSH2 0x324 JUMP JUMPDEST PUSH2 0x33B DUP2 DUP5 DUP5 PUSH2 0x2FF JUMP JUMPDEST POP POP POP JUMP JUMPDEST JUMPDEST DUP2 DUP2 LT ISZERO PUSH2 0x35E JUMPI PUSH2 0x353 PUSH0 DUP3 PUSH2 0x328 JUMP JUMPDEST PUSH1 0x1 DUP2 ADD SWAP1 POP PUSH2 0x341 JUMP JUMPDEST POP POP JUMP JUMPDEST PUSH1 0x1F DUP3 GT ISZERO PUSH2 0x3A3 JUMPI PUSH2 0x374 DUP2 PUSH2 0x245 JUMP JUMPDEST PUSH2 0x37D DUP5 PUSH2 0x257 JUMP JUMPDEST DUP2 ADD PUSH1 0x20 DUP6 LT ISZERO PUSH2 0x38C JUMPI DUP2 SWAP1 POP JUMPDEST PUSH2 0x3A0 PUSH2 0x398 DUP6 PUSH2 0x257 JUMP JUMPDEST DUP4 ADD DUP3 PUSH2 0x340 JUMP JUMPDEST POP POP JUMPDEST POP POP POP JUMP JUMPDEST PUSH0 DUP3 DUP3 SHR SWAP1 POP SWAP3 SWAP2 POP POP JUMP JUMPDEST PUSH0 PUSH2 0x3C3 PUSH0 NOT DUP5 PUSH1 0x8 MUL PUSH2 0x3A8 JUMP JUMPDEST NOT DUP1 DUP4 AND SWAP2 POP POP SWAP3 SWAP2 POP POP JUMP JUMPDEST PUSH0 PUSH2 0x3DB DUP4 DUP4 PUSH2 0x3B4 JUMP JUMPDEST SWAP2 POP DUP3 PUSH1 0x2 MUL DUP3 OR SWAP1 POP SWAP3 SWAP2 POP POP JUMP JUMPDEST PUSH2 0x3F4 DUP3 PUSH2 0x1B1 JUMP JUMPDEST PUSH8 0xFFFFFFFFFFFFFFFF DUP2 GT ISZERO PUSH2 0x40D JUMPI PUSH2 0x40C PUSH2 0x1BB JUMP JUMPDEST JUMPDEST PUSH2 0x417 DUP3 SLOAD PUSH2 0x215 JUMP JUMPDEST PUSH2 0x422 DUP3 DUP3 DUP6 PUSH2 0x362 JUMP JUMPDEST PUSH0 PUSH1 0x20 SWAP1 POP PUSH1 0x1F DUP4 GT PUSH1 0x1 DUP2 EQ PUSH2 0x453 JUMPI PUSH0 DUP5 ISZERO PUSH2 0x441 JUMPI DUP3 DUP8 ADD MLOAD SWAP1 POP JUMPDEST PUSH2 0x44B DUP6 DUP3 PUSH2 0x3D0 JUMP JUMPDEST DUP7 SSTORE POP PUSH2 0x4B2 JUMP JUMPDEST PUSH1 0x1F NOT DUP5 AND PUSH2 0x461 DUP7 PUSH2 0x245 JUMP JUMPDEST PUSH0 JUMPDEST DUP3 DUP2 LT ISZERO PUSH2 0x488 JUMPI DUP5 DUP10 ADD MLOAD DUP3 SSTORE PUSH1 0x1 DUP3 ADD SWAP2 POP PUSH1 0x20 DUP6 ADD SWAP5 POP PUSH1 0x20 DUP2 ADD SWAP1 POP PUSH2 0x463 JUMP JUMPDEST DUP7 DUP4 LT ISZERO PUSH2 0x4A5 JUMPI DUP5 DUP10 ADD MLOAD PUSH2 0x4A1 PUSH1 0x1F DUP10 AND DUP3 PUSH2 0x3B4 JUMP JUMPDEST DUP4 SSTORE POP JUMPDEST PUSH1 0x1 PUSH1 0x2 DUP9 MUL ADD DUP9 SSTORE POP POP POP JUMPDEST POP POP POP POP POP POP JUMP JUMPDEST PUSH2 0x6FF DUP1 PUSH2 0x4C7 PUSH0 CODECOPY PUSH0 RETURN INVALID PUSH1 0x80 PUSH1 0x40 MSTORE CALLVALUE DUP1 ISZERO PUSH2 0xF JUMPI PUSH0 DUP1 REVERT JUMPDEST POP PUSH1 0x4 CALLDATASIZE LT PUSH2 0x3F JUMPI PUSH0 CALLDATALOAD PUSH1 0xE0 SHR DUP1 PUSH4 0x16FFF074 EQ PUSH2 0x43 JUMPI DUP1 PUSH4 0x35F34232 EQ PUSH2 0x4D JUMPI DUP1 PUSH4 0x85883D8C EQ PUSH2 0x7D JUMPI JUMPDEST PUSH0 DUP1 REVERT JUMPDEST PUSH2 0x4B PUSH2 0x87 JUMP JUMPDEST STOP JUMPDEST PUSH2 0x67 PUSH1 0x4 DUP1 CALLDATASIZE SUB DUP2 ADD SWAP1 PUSH2 0x62 SWAP2 SWAP1 PUSH2 0x2EB JUMP JUMPDEST PUSH2 0xE9 JUMP JUMPDEST PUSH1 0x40 MLOAD PUSH2 0x74 SWAP2 SWAP1 PUSH2 0x386 JUMP JUMPDEST PUSH1 0x40 MLOAD DUP1 SWAP2 SUB SWAP1 RETURN JUMPDEST PUSH2 0x85 PUSH2 0x18E JUMP JUMPDEST STOP JUMPDEST PUSH0 PUSH1 0x40 MLOAD DUP1 PUSH1 0x40 ADD PUSH1 0x40 MSTORE DUP1 PUSH1 0x5 DUP2 MSTORE PUSH1 0x20 ADD PUSH32 0x416B617368000000000000000000000000000000000000000000000000000000 DUP2 MSTORE POP DUP2 PUSH0 DUP2 SLOAD DUP2 LT PUSH2 0xD1 JUMPI PUSH2 0xD0 PUSH2 0x3A6 JUMP JUMPDEST JUMPDEST SWAP1 PUSH0 MSTORE PUSH1 0x20 PUSH0 KECCAK256 ADD SWAP1 DUP2 PUSH2 0xE5 SWAP2 SWAP1 PUSH2 0x5FA JUMP JUMPDEST POP POP JUMP JUMPDEST PUSH0 DUP2 DUP2 SLOAD DUP2 LT PUSH2 0xF7 JUMPI PUSH0 DUP1 REVERT JUMPDEST SWAP1 PUSH0 MSTORE PUSH1 0x20 PUSH0 KECCAK256 ADD PUSH0 SWAP2 POP SWAP1 POP DUP1 SLOAD PUSH2 0x10F SWAP1 PUSH2 0x42D JUMP JUMPDEST DUP1 PUSH1 0x1F ADD PUSH1 0x20 DUP1 SWAP2 DIV MUL PUSH1 0x20 ADD PUSH1 0x40 MLOAD SWAP1 DUP2 ADD PUSH1 0x40 MSTORE DUP1 SWAP3 SWAP2 SWAP1 DUP2 DUP2 MSTORE PUSH1 0x20 ADD DUP3 DUP1 SLOAD PUSH2 0x13B SWAP1 PUSH2 0x42D JUMP JUMPDEST DUP1 ISZERO PUSH2 0x186 JUMPI DUP1 PUSH1 0x1F LT PUSH2 0x15D JUMPI PUSH2 0x100 DUP1 DUP4 SLOAD DIV MUL DUP4 MSTORE SWAP2 PUSH1 0x20 ADD SWAP2 PUSH2 0x186 JUMP JUMPDEST DUP3 ADD SWAP2 SWAP1 PUSH0 MSTORE PUSH1 0x20 PUSH0 KECCAK256 SWAP1 JUMPDEST DUP2 SLOAD DUP2 MSTORE SWAP1 PUSH1 0x1 ADD SWAP1 PUSH1 0x20 ADD DUP1 DUP4 GT PUSH2 0x169 JUMPI DUP3 SWAP1 SUB PUSH1 0x1F AND DUP3 ADD SWAP2 JUMPDEST POP POP POP POP POP DUP2 JUMP JUMPDEST PUSH0 DUP1 DUP1 SLOAD DUP1 PUSH1 0x20 MUL PUSH1 0x20 ADD PUSH1 0x40 MLOAD SWAP1 DUP2 ADD PUSH1 0x40 MSTORE DUP1 SWAP3 SWAP2 SWAP1 DUP2 DUP2 MSTORE PUSH1 0x20 ADD PUSH0 SWAP1 JUMPDEST DUP3 DUP3 LT ISZERO PUSH2 0x257 JUMPI DUP4 DUP3 SWAP1 PUSH0 MSTORE PUSH1 0x20 PUSH0 KECCAK256 ADD DUP1 SLOAD PUSH2 0x1CC SWAP1 PUSH2 0x42D JUMP JUMPDEST DUP1 PUSH1 0x1F ADD PUSH1 0x20 DUP1 SWAP2 DIV MUL PUSH1 0x20 ADD PUSH1 0x40 MLOAD SWAP1 DUP2 ADD PUSH1 0x40 MSTORE DUP1 SWAP3 SWAP2 SWAP1 DUP2 DUP2 MSTORE PUSH1 0x20 ADD DUP3 DUP1 SLOAD PUSH2 0x1F8 SWAP1 PUSH2 0x42D JUMP JUMPDEST DUP1 ISZERO PUSH2 0x243 JUMPI DUP1 PUSH1 0x1F LT PUSH2 0x21A JUMPI PUSH2 0x100 DUP1 DUP4 SLOAD DIV MUL DUP4 MSTORE SWAP2 PUSH1 0x20 ADD SWAP2 PUSH2 0x243 JUMP JUMPDEST DUP3 ADD SWAP2 SWAP1 PUSH0 MSTORE PUSH1 0x20 PUSH0 KECCAK256 SWAP1 JUMPDEST DUP2 SLOAD DUP2 MSTORE SWAP1 PUSH1 0x1 ADD SWAP1 PUSH1 0x20 ADD DUP1 DUP4 GT PUSH2 0x226 JUMPI DUP3 SWAP1 SUB PUSH1 0x1F AND DUP3 ADD SWAP2 JUMPDEST POP POP POP POP POP DUP2 MSTORE PUSH1 0x20 ADD SWAP1 PUSH1 0x1 ADD SWAP1 PUSH2 0x1AF JUMP JUMPDEST POP POP POP POP SWAP1 POP PUSH1 0x40 MLOAD DUP1 PUSH1 0x40 ADD PUSH1 0x40 MSTORE DUP1 PUSH1 0x5 DUP2 MSTORE PUSH1 0x20 ADD PUSH32 0x416B617368000000000000000000000000000000000000000000000000000000 DUP2 MSTORE POP DUP2 PUSH0 DUP2 MLOAD DUP2 LT PUSH2 0x2A6 JUMPI PUSH2 0x2A5 PUSH2 0x3A6 JUMP JUMPDEST JUMPDEST PUSH1 0x20 MUL PUSH1 0x20 ADD ADD DUP2 SWAP1 MSTORE POP POP JUMP JUMPDEST PUSH0 DUP1 REVERT JUMPDEST PUSH0 DUP2 SWAP1 POP SWAP2 SWAP1 POP JUMP JUMPDEST PUSH2 0x2CA DUP2 PUSH2 0x2B8 JUMP JUMPDEST DUP2 EQ PUSH2 0x2D4 JUMPI PUSH0 DUP1 REVERT JUMPDEST POP JUMP JUMPDEST PUSH0 DUP2 CALLDATALOAD SWAP1 POP PUSH2 0x2E5 DUP2 PUSH2 0x2C1 JUMP JUMPDEST SWAP3 SWAP2 POP POP JUMP JUMPDEST PUSH0 PUSH1 0x20 DUP3 DUP5 SUB SLT ISZERO PUSH2 0x300 JUMPI PUSH2 0x2FF PUSH2 0x2B4 JUMP JUMPDEST JUMPDEST PUSH0 PUSH2 0x30D DUP5 DUP3 DUP6 ADD PUSH2 0x2D7 JUMP JUMPDEST SWAP2 POP POP SWAP3 SWAP2 POP POP JUMP JUMPDEST PUSH0 DUP2 MLOAD SWAP1 POP SWAP2 SWAP1 POP JUMP JUMPDEST PUSH0 DUP3 DUP3 MSTORE PUSH1 0x20 DUP3 ADD SWAP1 POP SWAP3 SWAP2 POP POP JUMP JUMPDEST DUP3 DUP2 DUP4 MCOPY PUSH0 DUP4 DUP4 ADD MSTORE POP POP POP JUMP JUMPDEST PUSH0 PUSH1 0x1F NOT PUSH1 0x1F DUP4 ADD AND SWAP1 POP SWAP2 SWAP1 POP JUMP JUMPDEST PUSH0 PUSH2 0x358 DUP3 PUSH2 0x316 JUMP JUMPDEST PUSH2 0x362 DUP2 DUP6 PUSH2 0x320 JUMP JUMPDEST SWAP4 POP PUSH2 0x372 DUP2 DUP6 PUSH1 0x20 DUP7 ADD PUSH2 0x330 JUMP JUMPDEST PUSH2 0x37B DUP2 PUSH2 0x33E JUMP JUMPDEST DUP5 ADD SWAP2 POP POP SWAP3 SWAP2 POP POP JUMP JUMPDEST PUSH0 PUSH1 0x20 DUP3 ADD SWAP1 POP DUP2 DUP2 SUB PUSH0 DUP4 ADD MSTORE PUSH2 0x39E DUP2 DUP5 PUSH2 0x34E JUMP JUMPDEST SWAP1 POP SWAP3 SWAP2 POP POP JUMP JUMPDEST PUSH32 0x4E487B7100000000000000000000000000000000000000000000000000000000 PUSH0 MSTORE PUSH1 0x32 PUSH1 0x4 MSTORE PUSH1 0x24 PUSH0 REVERT JUMPDEST PUSH32 0x4E487B7100000000000000000000000000000000000000000000000000000000 PUSH0 MSTORE PUSH1 0x41 PUSH1 0x4 MSTORE PUSH1 0x24 PUSH0 REVERT JUMPDEST PUSH32 0x4E487B7100000000000000000000000000000000000000000000000000000000 PUSH0 MSTORE PUSH1 0x22 PUSH1 0x4 MSTORE PUSH1 0x24 PUSH0 REVERT JUMPDEST PUSH0 PUSH1 0x2 DUP3 DIV SWAP1 POP PUSH1 0x1 DUP3 AND DUP1 PUSH2 0x444 JUMPI PUSH1 0x7F DUP3 AND SWAP2 POP JUMPDEST PUSH1 0x20 DUP3 LT DUP2 SUB PUSH2 0x457 JUMPI PUSH2 0x456 PUSH2 0x400 JUMP JUMPDEST JUMPDEST POP SWAP2 SWAP1 POP JUMP JUMPDEST PUSH0 DUP2 SWAP1 POP DUP2 PUSH0 MSTORE PUSH1 0x20 PUSH0 KECCAK256 SWAP1 POP SWAP2 SWAP1 POP JUMP JUMPDEST PUSH0 PUSH1 0x20 PUSH1 0x1F DUP4 ADD DIV SWAP1 POP SWAP2 SWAP1 POP JUMP JUMPDEST PUSH0 DUP3 DUP3 SHL SWAP1 POP SWAP3 SWAP2 POP POP JUMP JUMPDEST PUSH0 PUSH1 0x8 DUP4 MUL PUSH2 0x4B9 PUSH32 0xFFFFFFFFFFFFFFFFFFFFFFFFFFFFFFFFFFFFFFFFFFFFFFFFFFFFFFFFFFFFFFFF DUP3 PUSH2 0x47E JUMP JUMPDEST PUSH2 0x4C3 DUP7 DUP4 PUSH2 0x47E JUMP JUMPDEST SWAP6 POP DUP1 NOT DUP5 AND SWAP4 POP DUP1 DUP7 AND DUP5 OR SWAP3 POP POP POP SWAP4 SWAP3 POP POP POP JUMP JUMPDEST PUSH0 DUP2 SWAP1 POP SWAP2 SWAP1 POP JUMP JUMPDEST PUSH0 PUSH2 0x4FE PUSH2 0x4F9 PUSH2 0x4F4 DUP5 PUSH2 0x2B8 JUMP JUMPDEST PUSH2 0x4DB JUMP JUMPDEST PUSH2 0x2B8 JUMP JUMPDEST SWAP1 POP SWAP2 SWAP1 POP JUMP JUMPDEST PUSH0 DUP2 SWAP1 POP SWAP2 SWAP1 POP JUMP JUMPDEST PUSH2 0x517 DUP4 PUSH2 0x4E4 JUMP JUMPDEST PUSH2 0x52B PUSH2 0x523 DUP3 PUSH2 0x505 JUMP JUMPDEST DUP5 DUP5 SLOAD PUSH2 0x48A JUMP JUMPDEST DUP3 SSTORE POP POP POP POP JUMP JUMPDEST PUSH0 SWAP1 JUMP JUMPDEST PUSH2 0x53F PUSH2 0x533 JUMP JUMPDEST PUSH2 0x54A DUP2 DUP5 DUP5 PUSH2 0x50E JUMP JUMPDEST POP POP POP JUMP JUMPDEST JUMPDEST DUP2 DUP2 LT ISZERO PUSH2 0x56D JUMPI PUSH2 0x562 PUSH0 DUP3 PUSH2 0x537 JUMP JUMPDEST PUSH1 0x1 DUP2 ADD SWAP1 POP PUSH2 0x550 JUMP JUMPDEST POP POP JUMP JUMPDEST PUSH1 0x1F DUP3 GT ISZERO PUSH2 0x5B2 JUMPI PUSH2 0x583 DUP2 PUSH2 0x45D JUMP JUMPDEST PUSH2 0x58C DUP5 PUSH2 0x46F JUMP JUMPDEST DUP2 ADD PUSH1 0x20 DUP6 LT ISZERO PUSH2 0x59B JUMPI DUP2 SWAP1 POP JUMPDEST PUSH2 0x5AF PUSH2 0x5A7 DUP6 PUSH2 0x46F JUMP JUMPDEST DUP4 ADD DUP3 PUSH2 0x54F JUMP JUMPDEST POP POP JUMPDEST POP POP POP JUMP JUMPDEST PUSH0 DUP3 DUP3 SHR SWAP1 POP SWAP3 SWAP2 POP POP JUMP JUMPDEST PUSH0 PUSH2 0x5D2 PUSH0 NOT DUP5 PUSH1 0x8 MUL PUSH2 0x5B7 JUMP JUMPDEST NOT DUP1 DUP4 AND SWAP2 POP POP SWAP3 SWAP2 POP POP JUMP JUMPDEST PUSH0 PUSH2 0x5EA DUP4 DUP4 PUSH2 0x5C3 JUMP JUMPDEST SWAP2 POP DUP3 PUSH1 0x2 MUL DUP3 OR SWAP1 POP SWAP3 SWAP2 POP POP JUMP JUMPDEST PUSH2 0x603 DUP3 PUSH2 0x316 JUMP JUMPDEST PUSH8 0xFFFFFFFFFFFFFFFF DUP2 GT ISZERO PUSH2 0x61C JUMPI PUSH2 0x61B PUSH2 0x3D3 JUMP JUMPDEST JUMPDEST PUSH2 0x626 DUP3 SLOAD PUSH2 0x42D JUMP JUMPDEST PUSH2 0x631 DUP3 DUP3 DUP6 PUSH2 0x571 JUMP JUMPDEST PUSH0 PUSH1 0x20 SWAP1 POP PUSH1 0x1F DUP4 GT PUSH1 0x1 DUP2 EQ PUSH2 0x662 JUMPI PUSH0 DUP5 ISZERO PUSH2 0x650 JUMPI DUP3 DUP8 ADD MLOAD SWAP1 POP JUMPDEST PUSH2 0x65A DUP6 DUP3 PUSH2 0x5DF JUMP JUMPDEST DUP7 SSTORE POP PUSH2 0x6C1 JUMP JUMPDEST PUSH1 0x1F NOT DUP5 AND PUSH2 0x670 DUP7 PUSH2 0x45D JUMP JUMPDEST PUSH0 JUMPDEST DUP3 DUP2 LT ISZERO PUSH2 0x697 JUMPI DUP5 DUP10 ADD MLOAD DUP3 SSTORE PUSH1 0x1 DUP3 ADD SWAP2 POP PUSH1 0x20 DUP6 ADD SWAP5 POP PUSH1 0x20 DUP2 ADD SWAP1 POP PUSH2 0x672 JUMP JUMPDEST DUP7 DUP4 LT ISZERO PUSH2 0x6B4 JUMPI DUP5 DUP10 ADD MLOAD PUSH2 0x6B0 PUSH1 0x1F DUP10 AND DUP3 PUSH2 0x5C3 JUMP JUMPDEST DUP4 SSTORE POP JUMPDEST PUSH1 0x1 PUSH1 0x2 DUP9 MUL ADD DUP9 SSTORE POP POP POP JUMPDEST POP POP POP POP POP POP JUMP INVALID LOG2 PUSH5 0x6970667358 0x22 SLT KECCAK256 LOG3 LOG1 0xCE 0xAD 0xF6 DUP1 0xF7 SDIV PUSH26 0x837B5F25239FF57C829C5FA6D839BC63FA9CEE4F4CAB3864736F PUSH13 0x634300081A0033000000000000 "
				},
				"gasEstimates": {
					"creation": {
						"codeDepositCost": "358200",
						"executionCost": "infinite",
						"totalCost": "infinite"
					},
					"external": {
						"mem()": "infinite",
						"storageT()": "infinite",
						"student(uint256)": "infinite"
					}
				},
				"methodIdentifiers": {
					"mem()": "85883d8c",
					"storageT()": "16fff074",
					"student(uint256)": "35f34232"
				}
			},
			"storageLayout": {
				"storage": [
					{
						"astId": 8,
						"contract": "five/storage_memory.sol:demo",
						"label": "student",
						"offset": 0,
						"slot": "0",
						"type": "t_array(t_string_storage)dyn_storage"
					}
				],
				"types": {
					"t_array(t_string_storage)dyn_storage": {
						"base": "t_string_storage",
						"encoding": "dynamic_array",
						"label": "string[]",
						"numberOfBytes": "32"
					},
					"t_string_storage": {
						"encoding": "bytes",
						"label": "string",
						"numberOfBytes": "32"
					}
				}
			},
			"userdoc": {
				"kind": "user",
				"methods": {},
				"version": 1
			}
		}
	}
}