{
	"data": {
		"bytecode": {
			"linkReferences": {},
			"object": "6080604052348015600e575f80fd5b506102558061001c5f395ff3fe608060405234801561000f575f80fd5b5060043610610029575f3560e01c80639943d6691461002d575b5f80fd5b61004760048036038101906100429190610164565b61005d565b60405161005491906101ff565b60405180910390f35b60608060018313156100a6576040518060400160405280601281526020017f67726561746572207468616e207a65726f2e00000000000000000000000000008152509050610124565b5f83036100ea576040518060400160405280600e81526020017f457175616c20746f207a65726f2e0000000000000000000000000000000000008152509050610123565b6040518060400160405280600f81526020017f6c657373207468616e207a65726f2e000000000000000000000000000000000081525090505b5b80915050919050565b5f80fd5b5f819050919050565b61014381610131565b811461014d575f80fd5b50565b5f8135905061015e8161013a565b92915050565b5f602082840312156101795761017861012d565b5b5f61018684828501610150565b91505092915050565b5f81519050919050565b5f82825260208201905092915050565b8281835e5f83830152505050565b5f601f19601f8301169050919050565b5f6101d18261018f565b6101db8185610199565b93506101eb8185602086016101a9565b6101f4816101b7565b840191505092915050565b5f6020820190508181035f83015261021781846101c7565b90509291505056fea2646970667358221220ed51d1fb0dab9a80f82216587489715327ac9127f234494716ef21a61761a1ed64736f6c634300081a0033",
			"opcodes": "PUSH1 0x80 PUSH1 0x40 MSTORE CALLVALUE DUP1 ISZERO PUSH1 0xE JUMPI PUSH0 DUP1 REVERT JUMPDEST POP PUSH2 0x255 DUP1 PUSH2 0x1C PUSH0 CODECOPY PUSH0 RETURN INVALID PUSH1 0x80 PUSH1 0x40 MSTORE CALLVALUE DUP1 ISZERO PUSH2 0xF JUMPI PUSH0 DUP1 REVERT JUMPDEST POP PUSH1 0x4 CALLDATASIZE LT PUSH2 0x29 JUMPI PUSH0 CALLDATALOAD PUSH1 0xE0 SHR DUP1 PUSH4 0x9943D669 EQ PUSH2 0x2D JUMPI JUMPDEST PUSH0 DUP1 REVERT JUMPDEST PUSH2 0x47 PUSH1 0x4 DUP1 CALLDATASIZE SUB DUP2 ADD SWAP1 PUSH2 0x42 SWAP2 SWAP1 PUSH2 0x164 JUMP JUMPDEST PUSH2 0x5D JUMP JUMPDEST PUSH1 0x40 MLOAD PUSH2 0x54 SWAP2 SWAP1 PUSH2 0x1FF JUMP JUMPDEST PUSH1 0x40 MLOAD DUP1 SWAP2 SUB SWAP1 RETURN JUMPDEST PUSH1 0x60 DUP1 PUSH1 0x1 DUP4 SGT ISZERO PUSH2 0xA6 JUMPI PUSH1 0x40 MLOAD DUP1 PUSH1 0x40 ADD PUSH1 0x40 MSTORE DUP1 PUSH1 0x12 DUP2 MSTORE PUSH1 0x20 ADD PUSH32 0x67726561746572207468616E207A65726F2E0000000000000000000000000000 DUP2 MSTORE POP SWAP1 POP PUSH2 0x124 JUMP JUMPDEST PUSH0 DUP4 SUB PUSH2 0xEA JUMPI PUSH1 0x40 MLOAD DUP1 PUSH1 0x40 ADD PUSH1 0x40 MSTORE DUP1 PUSH1 0xE DUP2 MSTORE PUSH1 0x20 ADD PUSH32 0x457175616C20746F207A65726F2E000000000000000000000000000000000000 DUP2 MSTORE POP SWAP1 POP PUSH2 0x123 JUMP JUMPDEST PUSH1 0x40 MLOAD DUP1 PUSH1 0x40 ADD PUSH1 0x40 MSTORE DUP1 PUSH1 0xF DUP2 MSTORE PUSH1 0x20 ADD PUSH32 0x6C657373207468616E207A65726F2E0000000000000000000000000000000000 DUP2 MSTORE POP SWAP1 POP JUMPDEST JUMPDEST DUP1 SWAP2 POP POP SWAP2 SWAP1 POP JUMP JUMPDEST PUSH0 DUP1 REVERT JUMPDEST PUSH0 DUP2 SWAP1 POP SWAP2 SWAP1 POP JUMP JUMPDEST PUSH2 0x143 DUP2 PUSH2 0x131 JUMP JUMPDEST DUP2 EQ PUSH2 0x14D JUMPI PUSH0 DUP1 REVERT JUMPDEST POP JUMP JUMPDEST PUSH0 DUP2 CALLDATALOAD SWAP1 POP PUSH2 0x15E DUP2 PUSH2 0x13A JUMP JUMPDEST SWAP3 SWAP2 POP POP JUMP JUMPDEST PUSH0 PUSH1 0x20 DUP3 DUP5 SUB SLT ISZERO PUSH2 0x179 JUMPI PUSH2 0x178 PUSH2 0x12D JUMP JUMPDEST JUMPDEST PUSH0 PUSH2 0x186 DUP5 DUP3 DUP6 ADD PUSH2 0x150 JUMP JUMPDEST SWAP2 POP POP SWAP3 SWAP2 POP POP JUMP JUMPDEST PUSH0 DUP2 MLOAD SWAP1 POP SWAP2 SWAP1 POP JUMP JUMPDEST PUSH0 DUP3 DUP3 MSTORE PUSH1 0x20 DUP3 ADD SWAP1 POP SWAP3 SWAP2 POP POP JUMP JUMPDEST DUP3 DUP2 DUP4 MCOPY PUSH0 DUP4 DUP4 ADD MSTORE POP POP POP JUMP JUMPDEST PUSH0 PUSH1 0x1F NOT PUSH1 0x1F DUP4 ADD AND SWAP1 POP SWAP2 SWAP1 POP JUMP JUMPDEST PUSH0 PUSH2 0x1D1 DUP3 PUSH2 0x18F JUMP JUMPDEST PUSH2 0x1DB DUP2 DUP6 PUSH2 0x199 JUMP JUMPDEST SWAP4 POP PUSH2 0x1EB DUP2 DUP6 PUSH1 0x20 DUP7 ADD PUSH2 0x1A9 JUMP JUMPDEST PUSH2 0x1F4 DUP2 PUSH2 0x1B7 JUMP JUMPDEST DUP5 ADD SWAP2 POP POP SWAP3 SWAP2 POP POP JUMP JUMPDEST PUSH0 PUSH1 0x20 DUP3 ADD SWAP1 POP DUP2 DUP2 SUB PUSH0 DUP4 ADD MSTORE PUSH2 0x217 DUP2 DUP5 PUSH2 0x1C7 JUMP JUMPDEST SWAP1 POP SWAP3 SWAP2 POP POP JUMP INVALID LOG2 PUSH5 0x6970667358 0x22 SLT KECCAK256 0xED MLOAD 0xD1 0xFB 0xD 0xAB SWAP11 DUP1 0xF8 0x22 AND PC PUSH21 0x89715327AC9127F234494716EF21A61761A1ED6473 PUSH16 0x6C634300081A00330000000000000000 "
		},
		"gasEstimates": {
			"creation": {
				"codeDepositCost": "119400",
				"executionCost": "163",
				"totalCost": "119563"
			},
			"external": {
				"check(int256)": "infinite"
			}
		},
		"methodIdentifiers": {
			"check(int256)": "9943d669"
		}
	},
	"abi": [
		{
			"inputs": [
				{
					"internalType": "int256",
					"name": "a",
					"type": "int256"
				}
			],
			"name": "check",
			"outputs": [
				{
					"internalType": "string",
					"name": "",
					"type": "string"
				}
			],
			"stateMutability": "pure",
			"type": "function"
		}
	]
}