{
	"data": {
		"bytecode": {
			"linkReferences": {},
			"object": "6080604052348015600e575f80fd5b506102fe8061001c5f395ff3fe608060405234801561000f575f80fd5b5060043610610055575f3560e01c806306661abd1461005957806371e5ee5f14610077578063c0d44075146100a7578063e7c898ef146100b1578063fc0e6008146100bb575b5f80fd5b6100616100c5565b60405161006e91906101b5565b60405180910390f35b610091600480360381019061008c91906101fc565b6100cb565b60405161009e91906101b5565b60405180910390f35b6100af6100e3565b005b6100b9610123565b005b6100c3610169565b005b60035481565b5f81600381106100d9575f80fd5b015f915090505481565b5b6003545f600354600381106100fc576100fb610227565b5b018190555060035f81548092919061011390610281565b919050555060038054106100e457565b5b600380541015610167576003545f6003546003811061014657610145610227565b5b018190555060035f81548092919061015d90610281565b9190505550610124565b565b5f5b600381101561019a57805f826003811061018857610187610227565b5b0181905550808060010191505061016b565b50565b5f819050919050565b6101af8161019d565b82525050565b5f6020820190506101c85f8301846101a6565b92915050565b5f80fd5b6101db8161019d565b81146101e5575f80fd5b50565b5f813590506101f6816101d2565b92915050565b5f60208284031215610211576102106101ce565b5b5f61021e848285016101e8565b91505092915050565b7f4e487b71000000000000000000000000000000000000000000000000000000005f52603260045260245ffd5b7f4e487b71000000000000000000000000000000000000000000000000000000005f52601160045260245ffd5b5f61028b8261019d565b91507fffffffffffffffffffffffffffffffffffffffffffffffffffffffffffffffff82036102bd576102bc610254565b5b60018201905091905056fea264697066735822122009bc8c367d2e1eab702e19fe90a55af17734fb3bfcc48579469cccfa376f43be64736f6c634300081a0033",
			"opcodes": "PUSH1 0x80 PUSH1 0x40 MSTORE CALLVALUE DUP1 ISZERO PUSH1 0xE JUMPI PUSH0 DUP1 REVERT JUMPDEST POP PUSH2 0x2FE DUP1 PUSH2 0x1C PUSH0 CODECOPY PUSH0 RETURN INVALID PUSH1 0x80 PUSH1 0x40 MSTORE CALLVALUE DUP1 ISZERO PUSH2 0xF JUMPI PUSH0 DUP1 REVERT JUMPDEST POP PUSH1 0x4 CALLDATASIZE LT PUSH2 0x55 JUMPI PUSH0 CALLDATALOAD PUSH1 0xE0 SHR DUP1 PUSH4 0x6661ABD EQ PUSH2 0x59 JUMPI DUP1 PUSH4 0x71E5EE5F EQ PUSH2 0x77 JUMPI DUP1 PUSH4 0xC0D44075 EQ PUSH2 0xA7 JUMPI DUP1 PUSH4 0xE7C898EF EQ PUSH2 0xB1 JUMPI DUP1 PUSH4 0xFC0E6008 EQ PUSH2 0xBB JUMPI JUMPDEST PUSH0 DUP1 REVERT JUMPDEST PUSH2 0x61 PUSH2 0xC5 JUMP JUMPDEST PUSH1 0x40 MLOAD PUSH2 0x6E SWAP2 SWAP1 PUSH2 0x1B5 JUMP JUMPDEST PUSH1 0x40 MLOAD DUP1 SWAP2 SUB SWAP1 RETURN JUMPDEST PUSH2 0x91 PUSH1 0x4 DUP1 CALLDATASIZE SUB DUP2 ADD SWAP1 PUSH2 0x8C SWAP2 SWAP1 PUSH2 0x1FC JUMP JUMPDEST PUSH2 0xCB JUMP JUMPDEST PUSH1 0x40 MLOAD PUSH2 0x9E SWAP2 SWAP1 PUSH2 0x1B5 JUMP JUMPDEST PUSH1 0x40 MLOAD DUP1 SWAP2 SUB SWAP1 RETURN JUMPDEST PUSH2 0xAF PUSH2 0xE3 JUMP JUMPDEST STOP JUMPDEST PUSH2 0xB9 PUSH2 0x123 JUMP JUMPDEST STOP JUMPDEST PUSH2 0xC3 PUSH2 0x169 JUMP JUMPDEST STOP JUMPDEST PUSH1 0x3 SLOAD DUP2 JUMP JUMPDEST PUSH0 DUP2 PUSH1 0x3 DUP2 LT PUSH2 0xD9 JUMPI PUSH0 DUP1 REVERT JUMPDEST ADD PUSH0 SWAP2 POP SWAP1 POP SLOAD DUP2 JUMP JUMPDEST JUMPDEST PUSH1 0x3 SLOAD PUSH0 PUSH1 0x3 SLOAD PUSH1 0x3 DUP2 LT PUSH2 0xFC JUMPI PUSH2 0xFB PUSH2 0x227 JUMP JUMPDEST JUMPDEST ADD DUP2 SWAP1 SSTORE POP PUSH1 0x3 PUSH0 DUP2 SLOAD DUP1 SWAP3 SWAP2 SWAP1 PUSH2 0x113 SWAP1 PUSH2 0x281 JUMP JUMPDEST SWAP2 SWAP1 POP SSTORE POP PUSH1 0x3 DUP1 SLOAD LT PUSH2 0xE4 JUMPI JUMP JUMPDEST JUMPDEST PUSH1 0x3 DUP1 SLOAD LT ISZERO PUSH2 0x167 JUMPI PUSH1 0x3 SLOAD PUSH0 PUSH1 0x3 SLOAD PUSH1 0x3 DUP2 LT PUSH2 0x146 JUMPI PUSH2 0x145 PUSH2 0x227 JUMP JUMPDEST JUMPDEST ADD DUP2 SWAP1 SSTORE POP PUSH1 0x3 PUSH0 DUP2 SLOAD DUP1 SWAP3 SWAP2 SWAP1 PUSH2 0x15D SWAP1 PUSH2 0x281 JUMP JUMPDEST SWAP2 SWAP1 POP SSTORE POP PUSH2 0x124 JUMP JUMPDEST JUMP JUMPDEST PUSH0 JUMPDEST PUSH1 0x3 DUP2 LT ISZERO PUSH2 0x19A JUMPI DUP1 PUSH0 DUP3 PUSH1 0x3 DUP2 LT PUSH2 0x188 JUMPI PUSH2 0x187 PUSH2 0x227 JUMP JUMPDEST JUMPDEST ADD DUP2 SWAP1 SSTORE POP DUP1 DUP1 PUSH1 0x1 ADD SWAP2 POP POP PUSH2 0x16B JUMP JUMPDEST POP JUMP JUMPDEST PUSH0 DUP2 SWAP1 POP SWAP2 SWAP1 POP JUMP JUMPDEST PUSH2 0x1AF DUP2 PUSH2 0x19D JUMP JUMPDEST DUP3 MSTORE POP POP JUMP JUMPDEST PUSH0 PUSH1 0x20 DUP3 ADD SWAP1 POP PUSH2 0x1C8 PUSH0 DUP4 ADD DUP5 PUSH2 0x1A6 JUMP JUMPDEST SWAP3 SWAP2 POP POP JUMP JUMPDEST PUSH0 DUP1 REVERT JUMPDEST PUSH2 0x1DB DUP2 PUSH2 0x19D JUMP JUMPDEST DUP2 EQ PUSH2 0x1E5 JUMPI PUSH0 DUP1 REVERT JUMPDEST POP JUMP JUMPDEST PUSH0 DUP2 CALLDATALOAD SWAP1 POP PUSH2 0x1F6 DUP2 PUSH2 0x1D2 JUMP JUMPDEST SWAP3 SWAP2 POP POP JUMP JUMPDEST PUSH0 PUSH1 0x20 DUP3 DUP5 SUB SLT ISZERO PUSH2 0x211 JUMPI PUSH2 0x210 PUSH2 0x1CE JUMP JUMPDEST JUMPDEST PUSH0 PUSH2 0x21E DUP5 DUP3 DUP6 ADD PUSH2 0x1E8 JUMP JUMPDEST SWAP2 POP POP SWAP3 SWAP2 POP POP JUMP JUMPDEST PUSH32 0x4E487B7100000000000000000000000000000000000000000000000000000000 PUSH0 MSTORE PUSH1 0x32 PUSH1 0x4 MSTORE PUSH1 0x24 PUSH0 REVERT JUMPDEST PUSH32 0x4E487B7100000000000000000000000000000000000000000000000000000000 PUSH0 MSTORE PUSH1 0x11 PUSH1 0x4 MSTORE PUSH1 0x24 PUSH0 REVERT JUMPDEST PUSH0 PUSH2 0x28B DUP3 PUSH2 0x19D JUMP JUMPDEST SWAP2 POP PUSH32 0xFFFFFFFFFFFFFFFFFFFFFFFFFFFFFFFFFFFFFFFFFFFFFFFFFFFFFFFFFFFFFFFF DUP3 SUB PUSH2 0x2BD JUMPI PUSH2 0x2BC PUSH2 0x254 JUMP JUMPDEST JUMPDEST PUSH1 0x1 DUP3 ADD SWAP1 POP SWAP2 SWAP1 POP JUMP INVALID LOG2 PUSH5 0x6970667358 0x22 SLT KECCAK256 MULMOD 0xBC DUP13 CALLDATASIZE PUSH30 0x2E1EAB702E19FE90A55AF17734FB3BFCC48579469CCCFA376F43BE64736F PUSH13 0x634300081A0033000000000000 "
		},
		"gasEstimates": {
			"creation": {
				"codeDepositCost": "153200",
				"executionCost": "194",
				"totalCost": "153394"
			},
			"external": {
				"arr(uint256)": "infinite",
				"count()": "2403",
				"doWhile()": "infinite",
				"forLoop()": "infinite",
				"whileLoop()": "infinite"
			}
		},
		"methodIdentifiers": {
			"arr(uint256)": "71e5ee5f",
			"count()": "06661abd",
			"doWhile()": "c0d44075",
			"forLoop()": "fc0e6008",
			"whileLoop()": "e7c898ef"
		}
	},
	"abi": [
		{
			"inputs": [
				{
					"internalType": "uint256",
					"name": "",
					"type": "uint256"
				}
			],
			"name": "arr",
			"outputs": [
				{
					"internalType": "uint256",
					"name": "",
					"type": "uint256"
				}
			],
			"stateMutability": "view",
			"type": "function"
		},
		{
			"inputs": [],
			"name": "count",
			"outputs": [
				{
					"internalType": "uint256",
					"name": "",
					"type": "uint256"
				}
			],
			"stateMutability": "view",
			"type": "function"
		},
		{
			"inputs": [],
			"name": "doWhile",
			"outputs": [],
			"stateMutability": "nonpayable",
			"type": "function"
		},
		{
			"inputs": [],
			"name": "forLoop",
			"outputs": [],
			"stateMutability": "nonpayable",
			"type": "function"
		},
		{
			"inputs": [],
			"name": "whileLoop",
			"outputs": [],
			"stateMutability": "nonpayable",
			"type": "function"
		}
	]
}