{
	"four/venom.sol": {
		"state": {
			"abi": [
				{
					"inputs": [],
					"name": "changeOwner",
					"outputs": [],
					"stateMutability": "nonpayable",
					"type": "function"
				},
				{
					"inputs": [],
					"name": "lottery",
					"outputs": [
						{
							"internalType": "uint256",
							"name": "",
							"type": "uint256"
						}
					],
					"stateMutability": "view",
					"type": "function"
				},
				{
					"inputs": [],
					"name": "owner",
					"outputs": [],
					"stateMutability": "nonpayable",
					"type": "function"
				},
				{
					"inputs": [],
					"name": "user1",
					"outputs": [
						{
							"internalType": "enum state.user",
							"name": "",
							"type": "uint8"
						}
					],
					"stateMutability": "view",
					"type": "function"
				}
			],
			"devdoc": {
				"kind": "dev",
				"methods": {},
				"version": 1
			},
			"evm": {
				"assembly": "    /* \"four/venom.sol\":227:615  contract state{... */\n  mstore(0x40, 0x80)\n    /* \"four/venom.sol\":386:398  user.allowed */\n  0x00\n    /* \"four/venom.sol\":366:398  user public user1 = user.allowed */\n  dup1\n  exp(0x0100, 0x00)\n  dup2\n  sload\n  dup2\n  0xff\n  mul\n  not\n  and\n  swap1\n  dup4\n  0x02\n  dup2\n  gt\n  iszero\n  tag_1\n  jumpi\n  tag_2\n  tag_3\n  jump\t// in\ntag_2:\ntag_1:\n  mul\n  or\n  swap1\n  sstore\n  pop\n    /* \"four/venom.sol\":428:432  1000 */\n  0x03e8\n    /* \"four/venom.sol\":408:432  uint public lottery=1000 */\n  0x01\n  sstore\n    /* \"four/venom.sol\":227:615  contract state{... */\n  callvalue\n  dup1\n  iszero\n  tag_4\n  jumpi\n  0x00\n  dup1\n  revert\ntag_4:\n  pop\n  jump(tag_5)\n    /* \"#utility.yul\":7:187   */\ntag_3:\n    /* \"#utility.yul\":55:132   */\n  0x4e487b7100000000000000000000000000000000000000000000000000000000\n    /* \"#utility.yul\":52:53   */\n  0x00\n    /* \"#utility.yul\":45:133   */\n  mstore\n    /* \"#utility.yul\":152:156   */\n  0x21\n    /* \"#utility.yul\":149:150   */\n  0x04\n    /* \"#utility.yul\":142:157   */\n  mstore\n    /* \"#utility.yul\":176:180   */\n  0x24\n    /* \"#utility.yul\":173:174   */\n  0x00\n    /* \"#utility.yul\":166:181   */\n  revert\n    /* \"four/venom.sol\":227:615  contract state{... */\ntag_5:\n  dataSize(sub_0)\n  dup1\n  dataOffset(sub_0)\n  0x00\n  codecopy\n  0x00\n  return\nstop\n\nsub_0: assembly {\n        /* \"four/venom.sol\":227:615  contract state{... */\n      mstore(0x40, 0x80)\n      callvalue\n      dup1\n      iszero\n      tag_1\n      jumpi\n      0x00\n      dup1\n      revert\n    tag_1:\n      pop\n      jumpi(tag_2, lt(calldatasize, 0x04))\n      shr(0xe0, calldataload(0x00))\n      dup1\n      0x62a09477\n      eq\n      tag_3\n      jumpi\n      dup1\n      0x8da5cb5b\n      eq\n      tag_4\n      jumpi\n      dup1\n      0xac1717b0\n      eq\n      tag_5\n      jumpi\n      dup1\n      0xba13a572\n      eq\n      tag_6\n      jumpi\n    tag_2:\n      0x00\n      dup1\n      revert\n        /* \"four/venom.sol\":543:613  function changeOwner() public {... */\n    tag_3:\n      tag_7\n      tag_8\n      jump\t// in\n    tag_7:\n      stop\n        /* \"four/venom.sol\":438:537  function owner() public {... */\n    tag_4:\n      tag_9\n      tag_10\n      jump\t// in\n    tag_9:\n      stop\n        /* \"four/venom.sol\":366:398  user public user1 = user.allowed */\n    tag_5:\n      tag_11\n      tag_12\n      jump\t// in\n    tag_11:\n      mload(0x40)\n      tag_13\n      swap2\n      swap1\n      tag_14\n      jump\t// in\n    tag_13:\n      mload(0x40)\n      dup1\n      swap2\n      sub\n      swap1\n      return\n        /* \"four/venom.sol\":408:432  uint public lottery=1000 */\n    tag_6:\n      tag_15\n      tag_16\n      jump\t// in\n    tag_15:\n      mload(0x40)\n      tag_17\n      swap2\n      swap1\n      tag_18\n      jump\t// in\n    tag_17:\n      mload(0x40)\n      dup1\n      swap2\n      sub\n      swap1\n      return\n        /* \"four/venom.sol\":543:613  function changeOwner() public {... */\n    tag_8:\n        /* \"four/venom.sol\":591:606  user.notallowed */\n      0x01\n        /* \"four/venom.sol\":583:588  user1 */\n      0x00\n      dup1\n        /* \"four/venom.sol\":583:606  user1 = user.notallowed */\n      0x0100\n      exp\n      dup2\n      sload\n      dup2\n      0xff\n      mul\n      not\n      and\n      swap1\n      dup4\n      0x02\n      dup2\n      gt\n      iszero\n      tag_20\n      jumpi\n      tag_21\n      tag_22\n      jump\t// in\n    tag_21:\n    tag_20:\n      mul\n      or\n      swap1\n      sstore\n      pop\n        /* \"four/venom.sol\":543:613  function changeOwner() public {... */\n      jump\t// out\n        /* \"four/venom.sol\":438:537  function owner() public {... */\n    tag_10:\n        /* \"four/venom.sol\":484:496  user.allowed */\n      0x00\n        /* \"four/venom.sol\":475:496  user1 == user.allowed */\n      0x02\n      dup2\n      gt\n      iszero\n      tag_24\n      jumpi\n      tag_25\n      tag_22\n      jump\t// in\n    tag_25:\n    tag_24:\n        /* \"four/venom.sol\":475:480  user1 */\n      0x00\n      dup1\n      sload\n      swap1\n      0x0100\n      exp\n      swap1\n      div\n      0xff\n      and\n        /* \"four/venom.sol\":475:496  user1 == user.allowed */\n      0x02\n      dup2\n      gt\n      iszero\n      tag_26\n      jumpi\n      tag_27\n      tag_22\n      jump\t// in\n    tag_27:\n    tag_26:\n      sub\n        /* \"four/venom.sol\":472:531  if(user1 == user.allowed){... */\n      tag_28\n      jumpi\n        /* \"four/venom.sol\":519:520  0 */\n      0x00\n        /* \"four/venom.sol\":511:518  lottery */\n      0x01\n        /* \"four/venom.sol\":511:520  lottery=0 */\n      dup2\n      swap1\n      sstore\n      pop\n        /* \"four/venom.sol\":472:531  if(user1 == user.allowed){... */\n    tag_28:\n        /* \"four/venom.sol\":438:537  function owner() public {... */\n      jump\t// out\n        /* \"four/venom.sol\":366:398  user public user1 = user.allowed */\n    tag_12:\n      0x00\n      dup1\n      sload\n      swap1\n      0x0100\n      exp\n      swap1\n      div\n      0xff\n      and\n      dup2\n      jump\t// out\n        /* \"four/venom.sol\":408:432  uint public lottery=1000 */\n    tag_16:\n      sload(0x01)\n      dup2\n      jump\t// out\n        /* \"#utility.yul\":7:187   */\n    tag_22:\n        /* \"#utility.yul\":55:132   */\n      0x4e487b7100000000000000000000000000000000000000000000000000000000\n        /* \"#utility.yul\":52:53   */\n      0x00\n        /* \"#utility.yul\":45:133   */\n      mstore\n        /* \"#utility.yul\":152:156   */\n      0x21\n        /* \"#utility.yul\":149:150   */\n      0x04\n        /* \"#utility.yul\":142:157   */\n      mstore\n        /* \"#utility.yul\":176:180   */\n      0x24\n        /* \"#utility.yul\":173:174   */\n      0x00\n        /* \"#utility.yul\":166:181   */\n      revert\n        /* \"#utility.yul\":193:304   */\n    tag_29:\n        /* \"#utility.yul\":272:273   */\n      0x03\n        /* \"#utility.yul\":265:270   */\n      dup2\n        /* \"#utility.yul\":262:274   */\n      lt\n        /* \"#utility.yul\":252:298   */\n      tag_38\n      jumpi\n        /* \"#utility.yul\":278:296   */\n      tag_39\n      tag_22\n      jump\t// in\n    tag_39:\n        /* \"#utility.yul\":252:298   */\n    tag_38:\n        /* \"#utility.yul\":193:304   */\n      pop\n      jump\t// out\n        /* \"#utility.yul\":310:433   */\n    tag_30:\n        /* \"#utility.yul\":353:360   */\n      0x00\n        /* \"#utility.yul\":382:387   */\n      dup2\n        /* \"#utility.yul\":371:387   */\n      swap1\n      pop\n        /* \"#utility.yul\":388:427   */\n      tag_41\n        /* \"#utility.yul\":421:426   */\n      dup3\n        /* \"#utility.yul\":388:427   */\n      tag_29\n      jump\t// in\n    tag_41:\n        /* \"#utility.yul\":310:433   */\n      swap2\n      swap1\n      pop\n      jump\t// out\n        /* \"#utility.yul\":439:562   */\n    tag_31:\n        /* \"#utility.yul\":493:502   */\n      0x00\n        /* \"#utility.yul\":526:556   */\n      tag_43\n        /* \"#utility.yul\":550:555   */\n      dup3\n        /* \"#utility.yul\":526:556   */\n      tag_30\n      jump\t// in\n    tag_43:\n        /* \"#utility.yul\":513:556   */\n      swap1\n      pop\n        /* \"#utility.yul\":439:562   */\n      swap2\n      swap1\n      pop\n      jump\t// out\n        /* \"#utility.yul\":568:707   */\n    tag_32:\n        /* \"#utility.yul\":659:700   */\n      tag_45\n        /* \"#utility.yul\":694:699   */\n      dup2\n        /* \"#utility.yul\":659:700   */\n      tag_31\n      jump\t// in\n    tag_45:\n        /* \"#utility.yul\":654:657   */\n      dup3\n        /* \"#utility.yul\":647:701   */\n      mstore\n        /* \"#utility.yul\":568:707   */\n      pop\n      pop\n      jump\t// out\n        /* \"#utility.yul\":713:943   */\n    tag_14:\n        /* \"#utility.yul\":810:814   */\n      0x00\n        /* \"#utility.yul\":848:850   */\n      0x20\n        /* \"#utility.yul\":837:846   */\n      dup3\n        /* \"#utility.yul\":833:851   */\n      add\n        /* \"#utility.yul\":825:851   */\n      swap1\n      pop\n        /* \"#utility.yul\":861:936   */\n      tag_47\n        /* \"#utility.yul\":933:934   */\n      0x00\n        /* \"#utility.yul\":922:931   */\n      dup4\n        /* \"#utility.yul\":918:935   */\n      add\n        /* \"#utility.yul\":909:915   */\n      dup5\n        /* \"#utility.yul\":861:936   */\n      tag_32\n      jump\t// in\n    tag_47:\n        /* \"#utility.yul\":713:943   */\n      swap3\n      swap2\n      pop\n      pop\n      jump\t// out\n        /* \"#utility.yul\":949:1026   */\n    tag_33:\n        /* \"#utility.yul\":986:993   */\n      0x00\n        /* \"#utility.yul\":1015:1020   */\n      dup2\n        /* \"#utility.yul\":1004:1020   */\n      swap1\n      pop\n        /* \"#utility.yul\":949:1026   */\n      swap2\n      swap1\n      pop\n      jump\t// out\n        /* \"#utility.yul\":1032:1150   */\n    tag_34:\n        /* \"#utility.yul\":1119:1143   */\n      tag_50\n        /* \"#utility.yul\":1137:1142   */\n      dup2\n        /* \"#utility.yul\":1119:1143   */\n      tag_33\n      jump\t// in\n    tag_50:\n        /* \"#utility.yul\":1114:1117   */\n      dup3\n        /* \"#utility.yul\":1107:1144   */\n      mstore\n        /* \"#utility.yul\":1032:1150   */\n      pop\n      pop\n      jump\t// out\n        /* \"#utility.yul\":1156:1378   */\n    tag_18:\n        /* \"#utility.yul\":1249:1253   */\n      0x00\n        /* \"#utility.yul\":1287:1289   */\n      0x20\n        /* \"#utility.yul\":1276:1285   */\n      dup3\n        /* \"#utility.yul\":1272:1290   */\n      add\n        /* \"#utility.yul\":1264:1290   */\n      swap1\n      pop\n        /* \"#utility.yul\":1300:1371   */\n      tag_52\n        /* \"#utility.yul\":1368:1369   */\n      0x00\n        /* \"#utility.yul\":1357:1366   */\n      dup4\n        /* \"#utility.yul\":1353:1370   */\n      add\n        /* \"#utility.yul\":1344:1350   */\n      dup5\n        /* \"#utility.yul\":1300:1371   */\n      tag_34\n      jump\t// in\n    tag_52:\n        /* \"#utility.yul\":1156:1378   */\n      swap3\n      swap2\n      pop\n      pop\n      jump\t// out\n\n    auxdata: 0xa26469706673582212203d974104e6f9628f23d348828be9e1a29f92c00d000a5bd26c6675c49cb633c764736f6c634300081a0033\n}\n",
				"bytecode": {
					"linkReferences": {},
					"object": "60806040525f805f6101000a81548160ff021916908360028111156024576023603e565b5b02179055506103e86001553480156039575f80fd5b50606b565b7f4e487b71000000000000000000000000000000000000000000000000000000005f52602160045260245ffd5b610213806100785f395ff3fe608060405234801561000f575f80fd5b506004361061004a575f3560e01c806362a094771461004e5780638da5cb5b14610058578063ac1717b014610062578063ba13a57214610080575b5f80fd5b61005661009e565b005b6100606100c9565b005b61006a61010a565b6040516100779190610193565b60405180910390f35b61008861011a565b60405161009591906101c4565b60405180910390f35b60015f806101000a81548160ff021916908360028111156100c2576100c1610120565b5b0217905550565b5f60028111156100dc576100db610120565b5b5f8054906101000a900460ff1660028111156100fb576100fa610120565b5b03610108575f6001819055505b565b5f8054906101000a900460ff1681565b60015481565b7f4e487b71000000000000000000000000000000000000000000000000000000005f52602160045260245ffd5b6003811061015e5761015d610120565b5b50565b5f81905061016e8261014d565b919050565b5f61017d82610161565b9050919050565b61018d81610173565b82525050565b5f6020820190506101a65f830184610184565b92915050565b5f819050919050565b6101be816101ac565b82525050565b5f6020820190506101d75f8301846101b5565b9291505056fea26469706673582212203d974104e6f9628f23d348828be9e1a29f92c00d000a5bd26c6675c49cb633c764736f6c634300081a0033",
					"opcodes": "PUSH1 0x80 PUSH1 0x40 MSTORE PUSH0 DUP1 PUSH0 PUSH2 0x100 EXP DUP2 SLOAD DUP2 PUSH1 0xFF MUL NOT AND SWAP1 DUP4 PUSH1 0x2 DUP2 GT ISZERO PUSH1 0x24 JUMPI PUSH1 0x23 PUSH1 0x3E JUMP JUMPDEST JUMPDEST MUL OR SWAP1 SSTORE POP PUSH2 0x3E8 PUSH1 0x1 SSTORE CALLVALUE DUP1 ISZERO PUSH1 0x39 JUMPI PUSH0 DUP1 REVERT JUMPDEST POP PUSH1 0x6B JUMP JUMPDEST PUSH32 0x4E487B7100000000000000000000000000000000000000000000000000000000 PUSH0 MSTORE PUSH1 0x21 PUSH1 0x4 MSTORE PUSH1 0x24 PUSH0 REVERT JUMPDEST PUSH2 0x213 DUP1 PUSH2 0x78 PUSH0 CODECOPY PUSH0 RETURN INVALID PUSH1 0x80 PUSH1 0x40 MSTORE CALLVALUE DUP1 ISZERO PUSH2 0xF JUMPI PUSH0 DUP1 REVERT JUMPDEST POP PUSH1 0x4 CALLDATASIZE LT PUSH2 0x4A JUMPI PUSH0 CALLDATALOAD PUSH1 0xE0 SHR DUP1 PUSH4 0x62A09477 EQ PUSH2 0x4E JUMPI DUP1 PUSH4 0x8DA5CB5B EQ PUSH2 0x58 JUMPI DUP1 PUSH4 0xAC1717B0 EQ PUSH2 0x62 JUMPI DUP1 PUSH4 0xBA13A572 EQ PUSH2 0x80 JUMPI JUMPDEST PUSH0 DUP1 REVERT JUMPDEST PUSH2 0x56 PUSH2 0x9E JUMP JUMPDEST STOP JUMPDEST PUSH2 0x60 PUSH2 0xC9 JUMP JUMPDEST STOP JUMPDEST PUSH2 0x6A PUSH2 0x10A JUMP JUMPDEST PUSH1 0x40 MLOAD PUSH2 0x77 SWAP2 SWAP1 PUSH2 0x193 JUMP JUMPDEST PUSH1 0x40 MLOAD DUP1 SWAP2 SUB SWAP1 RETURN JUMPDEST PUSH2 0x88 PUSH2 0x11A JUMP JUMPDEST PUSH1 0x40 MLOAD PUSH2 0x95 SWAP2 SWAP1 PUSH2 0x1C4 JUMP JUMPDEST PUSH1 0x40 MLOAD DUP1 SWAP2 SUB SWAP1 RETURN JUMPDEST PUSH1 0x1 PUSH0 DUP1 PUSH2 0x100 EXP DUP2 SLOAD DUP2 PUSH1 0xFF MUL NOT AND SWAP1 DUP4 PUSH1 0x2 DUP2 GT ISZERO PUSH2 0xC2 JUMPI PUSH2 0xC1 PUSH2 0x120 JUMP JUMPDEST JUMPDEST MUL OR SWAP1 SSTORE POP JUMP JUMPDEST PUSH0 PUSH1 0x2 DUP2 GT ISZERO PUSH2 0xDC JUMPI PUSH2 0xDB PUSH2 0x120 JUMP JUMPDEST JUMPDEST PUSH0 DUP1 SLOAD SWAP1 PUSH2 0x100 EXP SWAP1 DIV PUSH1 0xFF AND PUSH1 0x2 DUP2 GT ISZERO PUSH2 0xFB JUMPI PUSH2 0xFA PUSH2 0x120 JUMP JUMPDEST JUMPDEST SUB PUSH2 0x108 JUMPI PUSH0 PUSH1 0x1 DUP2 SWAP1 SSTORE POP JUMPDEST JUMP JUMPDEST PUSH0 DUP1 SLOAD SWAP1 PUSH2 0x100 EXP SWAP1 DIV PUSH1 0xFF AND DUP2 JUMP JUMPDEST PUSH1 0x1 SLOAD DUP2 JUMP JUMPDEST PUSH32 0x4E487B7100000000000000000000000000000000000000000000000000000000 PUSH0 MSTORE PUSH1 0x21 PUSH1 0x4 MSTORE PUSH1 0x24 PUSH0 REVERT JUMPDEST PUSH1 0x3 DUP2 LT PUSH2 0x15E JUMPI PUSH2 0x15D PUSH2 0x120 JUMP JUMPDEST JUMPDEST POP JUMP JUMPDEST PUSH0 DUP2 SWAP1 POP PUSH2 0x16E DUP3 PUSH2 0x14D JUMP JUMPDEST SWAP2 SWAP1 POP JUMP JUMPDEST PUSH0 PUSH2 0x17D DUP3 PUSH2 0x161 JUMP JUMPDEST SWAP1 POP SWAP2 SWAP1 POP JUMP JUMPDEST PUSH2 0x18D DUP2 PUSH2 0x173 JUMP JUMPDEST DUP3 MSTORE POP POP JUMP JUMPDEST PUSH0 PUSH1 0x20 DUP3 ADD SWAP1 POP PUSH2 0x1A6 PUSH0 DUP4 ADD DUP5 PUSH2 0x184 JUMP JUMPDEST SWAP3 SWAP2 POP POP JUMP JUMPDEST PUSH0 DUP2 SWAP1 POP SWAP2 SWAP1 POP JUMP JUMPDEST PUSH2 0x1BE DUP2 PUSH2 0x1AC JUMP JUMPDEST DUP3 MSTORE POP POP JUMP JUMPDEST PUSH0 PUSH1 0x20 DUP3 ADD SWAP1 POP PUSH2 0x1D7 PUSH0 DUP4 ADD DUP5 PUSH2 0x1B5 JUMP JUMPDEST SWAP3 SWAP2 POP POP JUMP INVALID LOG2 PUSH5 0x6970667358 0x22 SLT KECCAK256 RETURNDATASIZE SWAP8 COINBASE DIV 0xE6 0xF9 PUSH3 0x8F23D3 BASEFEE DUP3 DUP12 0xE9 0xE1 LOG2 SWAP16 SWAP3 0xC0 0xD STOP EXP JUMPDEST 0xD2 PUSH13 0x6675C49CB633C764736F6C6343 STOP ADDMOD BYTE STOP CALLER "
				},
				"gasEstimates": {
					"creation": {
						"codeDepositCost": "106200",
						"executionCost": "46554",
						"totalCost": "152754"
					},
					"external": {
						"changeOwner()": "24407",
						"lottery()": "2469",
						"owner()": "7362",
						"user1()": "2573"
					}
				},
				"methodIdentifiers": {
					"changeOwner()": "62a09477",
					"lottery()": "ba13a572",
					"owner()": "8da5cb5b",
					"user1()": "ac1717b0"
				}
			},
			"storageLayout": {
				"storage": [
					{
						"astId": 10,
						"contract": "four/venom.sol:state",
						"label": "user1",
						"offset": 0,
						"slot": "0",
						"type": "t_enum(user)5"
					},
					{
						"astId": 13,
						"contract": "four/venom.sol:state",
						"label": "lottery",
						"offset": 0,
						"slot": "1",
						"type": "t_uint256"
					}
				],
				"types": {
					"t_enum(user)5": {
						"encoding": "inplace",
						"label": "enum state.user",
						"numberOfBytes": "1"
					},
					"t_uint256": {
						"encoding": "inplace",
						"label": "uint256",
						"numberOfBytes": "32"
					}
				}
			},
			"userdoc": {
				"kind": "user",
				"methods": {},
				"version": 1
			}
		}
	}
}