{
	"four/mappingB.sol": {
		"demo": {
			"abi": [
				{
					"inputs": [
						{
							"internalType": "uint256",
							"name": "",
							"type": "uint256"
						}
					],
					"name": "data",
					"outputs": [
						{
							"internalType": "string",
							"name": "name",
							"type": "string"
						},
						{
							"internalType": "uint256",
							"name": "class",
							"type": "uint256"
						}
					],
					"stateMutability": "view",
					"type": "function"
				},
				{
					"inputs": [
						{
							"internalType": "uint256",
							"name": "roll_number",
							"type": "uint256"
						},
						{
							"internalType": "string",
							"name": "name",
							"type": "string"
						},
						{
							"internalType": "uint256",
							"name": "class",
							"type": "uint256"
						}
					],
					"name": "setter",
					"outputs": [],
					"stateMutability": "nonpayable",
					"type": "function"
				}
			],
			"devdoc": {
				"kind": "dev",
				"methods": {},
				"version": 1
			},
			"evm": {
				"assembly": "    /* \"four/mappingB.sol\":354:612  contract demo{... */\n  mstore(0x40, 0x80)\n  callvalue\n  dup1\n  iszero\n  tag_1\n  jumpi\n  0x00\n  dup1\n  revert\ntag_1:\n  pop\n  dataSize(sub_0)\n  dup1\n  dataOffset(sub_0)\n  0x00\n  codecopy\n  0x00\n  return\nstop\n\nsub_0: assembly {\n        /* \"four/mappingB.sol\":354:612  contract demo{... */\n      mstore(0x40, 0x80)\n      callvalue\n      dup1\n      iszero\n      tag_1\n      jumpi\n      0x00\n      dup1\n      revert\n    tag_1:\n      pop\n      jumpi(tag_2, lt(calldatasize, 0x04))\n      shr(0xe0, calldataload(0x00))\n      dup1\n      0x0c22cf41\n      eq\n      tag_3\n      jumpi\n      dup1\n      0xf0ba8440\n      eq\n      tag_4\n      jumpi\n    tag_2:\n      0x00\n      dup1\n      revert\n        /* \"four/mappingB.sol\":482:610  function setter(uint roll_number, string memory name, uint class) public {... */\n    tag_3:\n      tag_5\n      0x04\n      dup1\n      calldatasize\n      sub\n      dup2\n      add\n      swap1\n      tag_6\n      swap2\n      swap1\n      tag_7\n      jump\t// in\n    tag_6:\n      tag_8\n      jump\t// in\n    tag_5:\n      stop\n        /* \"four/mappingB.sol\":441:475  mapping(uint=>Student) public data */\n    tag_4:\n      tag_9\n      0x04\n      dup1\n      calldatasize\n      sub\n      dup2\n      add\n      swap1\n      tag_10\n      swap2\n      swap1\n      tag_11\n      jump\t// in\n    tag_10:\n      tag_12\n      jump\t// in\n    tag_9:\n      mload(0x40)\n      tag_13\n      swap3\n      swap2\n      swap1\n      tag_14\n      jump\t// in\n    tag_13:\n      mload(0x40)\n      dup1\n      swap2\n      sub\n      swap1\n      return\n        /* \"four/mappingB.sol\":482:610  function setter(uint roll_number, string memory name, uint class) public {... */\n    tag_8:\n        /* \"four/mappingB.sol\":583:603  Student(name, class) */\n      mload(0x40)\n      dup1\n      0x40\n      add\n      0x40\n      mstore\n      dup1\n        /* \"four/mappingB.sol\":591:595  name */\n      dup4\n        /* \"four/mappingB.sol\":583:603  Student(name, class) */\n      dup2\n      mstore\n      0x20\n      add\n        /* \"four/mappingB.sol\":597:602  class */\n      dup3\n        /* \"four/mappingB.sol\":583:603  Student(name, class) */\n      dup2\n      mstore\n      pop\n        /* \"four/mappingB.sol\":565:569  data */\n      0x00\n        /* \"four/mappingB.sol\":565:582  data[roll_number] */\n      dup1\n        /* \"four/mappingB.sol\":570:581  roll_number */\n      dup6\n        /* \"four/mappingB.sol\":565:582  data[roll_number] */\n      dup2\n      mstore\n      0x20\n      add\n      swap1\n      dup2\n      mstore\n      0x20\n      add\n      0x00\n      keccak256\n        /* \"four/mappingB.sol\":565:603  data[roll_number]=Student(name, class) */\n      0x00\n      dup3\n      add\n      mload\n      dup2\n      0x00\n      add\n      swap1\n      dup2\n      tag_16\n      swap2\n      swap1\n      tag_17\n      jump\t// in\n    tag_16:\n      pop\n      0x20\n      dup3\n      add\n      mload\n      dup2\n      0x01\n      add\n      sstore\n      swap1\n      pop\n      pop\n        /* \"four/mappingB.sol\":482:610  function setter(uint roll_number, string memory name, uint class) public {... */\n      pop\n      pop\n      pop\n      jump\t// out\n        /* \"four/mappingB.sol\":441:475  mapping(uint=>Student) public data */\n    tag_12:\n      mstore(0x20, 0x00)\n      dup1\n      0x00\n      mstore\n      keccak256(0x00, 0x40)\n      0x00\n      swap2\n      pop\n      swap1\n      pop\n      dup1\n      0x00\n      add\n      dup1\n      sload\n      tag_18\n      swap1\n      tag_19\n      jump\t// in\n    tag_18:\n      dup1\n      0x1f\n      add\n      0x20\n      dup1\n      swap2\n      div\n      mul\n      0x20\n      add\n      mload(0x40)\n      swap1\n      dup2\n      add\n      0x40\n      mstore\n      dup1\n      swap3\n      swap2\n      swap1\n      dup2\n      dup2\n      mstore\n      0x20\n      add\n      dup3\n      dup1\n      sload\n      tag_20\n      swap1\n      tag_19\n      jump\t// in\n    tag_20:\n      dup1\n      iszero\n      tag_21\n      jumpi\n      dup1\n      0x1f\n      lt\n      tag_22\n      jumpi\n      0x0100\n      dup1\n      dup4\n      sload\n      div\n      mul\n      dup4\n      mstore\n      swap2\n      0x20\n      add\n      swap2\n      jump(tag_21)\n    tag_22:\n      dup3\n      add\n      swap2\n      swap1\n      0x00\n      mstore\n      keccak256(0x00, 0x20)\n      swap1\n    tag_23:\n      dup2\n      sload\n      dup2\n      mstore\n      swap1\n      0x01\n      add\n      swap1\n      0x20\n      add\n      dup1\n      dup4\n      gt\n      tag_23\n      jumpi\n      dup3\n      swap1\n      sub\n      0x1f\n      and\n      dup3\n      add\n      swap2\n    tag_21:\n      pop\n      pop\n      pop\n      pop\n      pop\n      swap1\n      dup1\n      0x01\n      add\n      sload\n      swap1\n      pop\n      dup3\n      jump\t// out\n        /* \"#utility.yul\":7:82   */\n    tag_24:\n        /* \"#utility.yul\":40:46   */\n      0x00\n        /* \"#utility.yul\":73:75   */\n      0x40\n        /* \"#utility.yul\":67:76   */\n      mload\n        /* \"#utility.yul\":57:76   */\n      swap1\n      pop\n        /* \"#utility.yul\":7:82   */\n      swap1\n      jump\t// out\n        /* \"#utility.yul\":88:205   */\n    tag_25:\n        /* \"#utility.yul\":197:198   */\n      0x00\n        /* \"#utility.yul\":194:195   */\n      dup1\n        /* \"#utility.yul\":187:199   */\n      revert\n        /* \"#utility.yul\":211:328   */\n    tag_26:\n        /* \"#utility.yul\":320:321   */\n      0x00\n        /* \"#utility.yul\":317:318   */\n      dup1\n        /* \"#utility.yul\":310:322   */\n      revert\n        /* \"#utility.yul\":334:411   */\n    tag_27:\n        /* \"#utility.yul\":371:378   */\n      0x00\n        /* \"#utility.yul\":400:405   */\n      dup2\n        /* \"#utility.yul\":389:405   */\n      swap1\n      pop\n        /* \"#utility.yul\":334:411   */\n      swap2\n      swap1\n      pop\n      jump\t// out\n        /* \"#utility.yul\":417:539   */\n    tag_28:\n        /* \"#utility.yul\":490:514   */\n      tag_67\n        /* \"#utility.yul\":508:513   */\n      dup2\n        /* \"#utility.yul\":490:514   */\n      tag_27\n      jump\t// in\n    tag_67:\n        /* \"#utility.yul\":483:488   */\n      dup2\n        /* \"#utility.yul\":480:515   */\n      eq\n        /* \"#utility.yul\":470:533   */\n      tag_68\n      jumpi\n        /* \"#utility.yul\":529:530   */\n      0x00\n        /* \"#utility.yul\":526:527   */\n      dup1\n        /* \"#utility.yul\":519:531   */\n      revert\n        /* \"#utility.yul\":470:533   */\n    tag_68:\n        /* \"#utility.yul\":417:539   */\n      pop\n      jump\t// out\n        /* \"#utility.yul\":545:684   */\n    tag_29:\n        /* \"#utility.yul\":591:596   */\n      0x00\n        /* \"#utility.yul\":629:635   */\n      dup2\n        /* \"#utility.yul\":616:636   */\n      calldataload\n        /* \"#utility.yul\":607:636   */\n      swap1\n      pop\n        /* \"#utility.yul\":645:678   */\n      tag_70\n        /* \"#utility.yul\":672:677   */\n      dup2\n        /* \"#utility.yul\":645:678   */\n      tag_28\n      jump\t// in\n    tag_70:\n        /* \"#utility.yul\":545:684   */\n      swap3\n      swap2\n      pop\n      pop\n      jump\t// out\n        /* \"#utility.yul\":690:807   */\n    tag_30:\n        /* \"#utility.yul\":799:800   */\n      0x00\n        /* \"#utility.yul\":796:797   */\n      dup1\n        /* \"#utility.yul\":789:801   */\n      revert\n        /* \"#utility.yul\":813:930   */\n    tag_31:\n        /* \"#utility.yul\":922:923   */\n      0x00\n        /* \"#utility.yul\":919:920   */\n      dup1\n        /* \"#utility.yul\":912:924   */\n      revert\n        /* \"#utility.yul\":936:1038   */\n    tag_32:\n        /* \"#utility.yul\":977:983   */\n      0x00\n        /* \"#utility.yul\":1028:1030   */\n      0x1f\n        /* \"#utility.yul\":1024:1031   */\n      not\n        /* \"#utility.yul\":1019:1021   */\n      0x1f\n        /* \"#utility.yul\":1012:1017   */\n      dup4\n        /* \"#utility.yul\":1008:1022   */\n      add\n        /* \"#utility.yul\":1004:1032   */\n      and\n        /* \"#utility.yul\":994:1032   */\n      swap1\n      pop\n        /* \"#utility.yul\":936:1038   */\n      swap2\n      swap1\n      pop\n      jump\t// out\n        /* \"#utility.yul\":1044:1224   */\n    tag_33:\n        /* \"#utility.yul\":1092:1169   */\n      0x4e487b7100000000000000000000000000000000000000000000000000000000\n        /* \"#utility.yul\":1089:1090   */\n      0x00\n        /* \"#utility.yul\":1082:1170   */\n      mstore\n        /* \"#utility.yul\":1189:1193   */\n      0x41\n        /* \"#utility.yul\":1186:1187   */\n      0x04\n        /* \"#utility.yul\":1179:1194   */\n      mstore\n        /* \"#utility.yul\":1213:1217   */\n      0x24\n        /* \"#utility.yul\":1210:1211   */\n      0x00\n        /* \"#utility.yul\":1203:1218   */\n      revert\n        /* \"#utility.yul\":1230:1511   */\n    tag_34:\n        /* \"#utility.yul\":1313:1340   */\n      tag_76\n        /* \"#utility.yul\":1335:1339   */\n      dup3\n        /* \"#utility.yul\":1313:1340   */\n      tag_32\n      jump\t// in\n    tag_76:\n        /* \"#utility.yul\":1305:1311   */\n      dup2\n        /* \"#utility.yul\":1301:1341   */\n      add\n        /* \"#utility.yul\":1443:1449   */\n      dup2\n        /* \"#utility.yul\":1431:1441   */\n      dup2\n        /* \"#utility.yul\":1428:1450   */\n      lt\n        /* \"#utility.yul\":1407:1425   */\n      0xffffffffffffffff\n        /* \"#utility.yul\":1395:1405   */\n      dup3\n        /* \"#utility.yul\":1392:1426   */\n      gt\n        /* \"#utility.yul\":1389:1451   */\n      or\n        /* \"#utility.yul\":1386:1474   */\n      iszero\n      tag_77\n      jumpi\n        /* \"#utility.yul\":1454:1472   */\n      tag_78\n      tag_33\n      jump\t// in\n    tag_78:\n        /* \"#utility.yul\":1386:1474   */\n    tag_77:\n        /* \"#utility.yul\":1494:1504   */\n      dup1\n        /* \"#utility.yul\":1490:1492   */\n      0x40\n        /* \"#utility.yul\":1483:1505   */\n      mstore\n        /* \"#utility.yul\":1273:1511   */\n      pop\n        /* \"#utility.yul\":1230:1511   */\n      pop\n      pop\n      jump\t// out\n        /* \"#utility.yul\":1517:1646   */\n    tag_35:\n        /* \"#utility.yul\":1551:1557   */\n      0x00\n        /* \"#utility.yul\":1578:1598   */\n      tag_80\n      tag_24\n      jump\t// in\n    tag_80:\n        /* \"#utility.yul\":1568:1598   */\n      swap1\n      pop\n        /* \"#utility.yul\":1607:1640   */\n      tag_81\n        /* \"#utility.yul\":1635:1639   */\n      dup3\n        /* \"#utility.yul\":1627:1633   */\n      dup3\n        /* \"#utility.yul\":1607:1640   */\n      tag_34\n      jump\t// in\n    tag_81:\n        /* \"#utility.yul\":1517:1646   */\n      swap2\n      swap1\n      pop\n      jump\t// out\n        /* \"#utility.yul\":1652:1960   */\n    tag_36:\n        /* \"#utility.yul\":1714:1718   */\n      0x00\n        /* \"#utility.yul\":1804:1822   */\n      0xffffffffffffffff\n        /* \"#utility.yul\":1796:1802   */\n      dup3\n        /* \"#utility.yul\":1793:1823   */\n      gt\n        /* \"#utility.yul\":1790:1846   */\n      iszero\n      tag_83\n      jumpi\n        /* \"#utility.yul\":1826:1844   */\n      tag_84\n      tag_33\n      jump\t// in\n    tag_84:\n        /* \"#utility.yul\":1790:1846   */\n    tag_83:\n        /* \"#utility.yul\":1864:1893   */\n      tag_85\n        /* \"#utility.yul\":1886:1892   */\n      dup3\n        /* \"#utility.yul\":1864:1893   */\n      tag_32\n      jump\t// in\n    tag_85:\n        /* \"#utility.yul\":1856:1893   */\n      swap1\n      pop\n        /* \"#utility.yul\":1948:1952   */\n      0x20\n        /* \"#utility.yul\":1942:1946   */\n      dup2\n        /* \"#utility.yul\":1938:1953   */\n      add\n        /* \"#utility.yul\":1930:1953   */\n      swap1\n      pop\n        /* \"#utility.yul\":1652:1960   */\n      swap2\n      swap1\n      pop\n      jump\t// out\n        /* \"#utility.yul\":1966:2114   */\n    tag_37:\n        /* \"#utility.yul\":2064:2070   */\n      dup3\n        /* \"#utility.yul\":2059:2062   */\n      dup2\n        /* \"#utility.yul\":2054:2057   */\n      dup4\n        /* \"#utility.yul\":2041:2071   */\n      calldatacopy\n        /* \"#utility.yul\":2105:2106   */\n      0x00\n        /* \"#utility.yul\":2096:2102   */\n      dup4\n        /* \"#utility.yul\":2091:2094   */\n      dup4\n        /* \"#utility.yul\":2087:2103   */\n      add\n        /* \"#utility.yul\":2080:2107   */\n      mstore\n        /* \"#utility.yul\":1966:2114   */\n      pop\n      pop\n      pop\n      jump\t// out\n        /* \"#utility.yul\":2120:2545   */\n    tag_38:\n        /* \"#utility.yul\":2198:2203   */\n      0x00\n        /* \"#utility.yul\":2223:2289   */\n      tag_88\n        /* \"#utility.yul\":2239:2288   */\n      tag_89\n        /* \"#utility.yul\":2281:2287   */\n      dup5\n        /* \"#utility.yul\":2239:2288   */\n      tag_36\n      jump\t// in\n    tag_89:\n        /* \"#utility.yul\":2223:2289   */\n      tag_35\n      jump\t// in\n    tag_88:\n        /* \"#utility.yul\":2214:2289   */\n      swap1\n      pop\n        /* \"#utility.yul\":2312:2318   */\n      dup3\n        /* \"#utility.yul\":2305:2310   */\n      dup2\n        /* \"#utility.yul\":2298:2319   */\n      mstore\n        /* \"#utility.yul\":2350:2354   */\n      0x20\n        /* \"#utility.yul\":2343:2348   */\n      dup2\n        /* \"#utility.yul\":2339:2355   */\n      add\n        /* \"#utility.yul\":2388:2391   */\n      dup5\n        /* \"#utility.yul\":2379:2385   */\n      dup5\n        /* \"#utility.yul\":2374:2377   */\n      dup5\n        /* \"#utility.yul\":2370:2386   */\n      add\n        /* \"#utility.yul\":2367:2392   */\n      gt\n        /* \"#utility.yul\":2364:2476   */\n      iszero\n      tag_90\n      jumpi\n        /* \"#utility.yul\":2395:2474   */\n      tag_91\n      tag_31\n      jump\t// in\n    tag_91:\n        /* \"#utility.yul\":2364:2476   */\n    tag_90:\n        /* \"#utility.yul\":2485:2539   */\n      tag_92\n        /* \"#utility.yul\":2532:2538   */\n      dup5\n        /* \"#utility.yul\":2527:2530   */\n      dup3\n        /* \"#utility.yul\":2522:2525   */\n      dup6\n        /* \"#utility.yul\":2485:2539   */\n      tag_37\n      jump\t// in\n    tag_92:\n        /* \"#utility.yul\":2204:2545   */\n      pop\n        /* \"#utility.yul\":2120:2545   */\n      swap4\n      swap3\n      pop\n      pop\n      pop\n      jump\t// out\n        /* \"#utility.yul\":2565:2905   */\n    tag_39:\n        /* \"#utility.yul\":2621:2626   */\n      0x00\n        /* \"#utility.yul\":2670:2673   */\n      dup3\n        /* \"#utility.yul\":2663:2667   */\n      0x1f\n        /* \"#utility.yul\":2655:2661   */\n      dup4\n        /* \"#utility.yul\":2651:2668   */\n      add\n        /* \"#utility.yul\":2647:2674   */\n      slt\n        /* \"#utility.yul\":2637:2759   */\n      tag_94\n      jumpi\n        /* \"#utility.yul\":2678:2757   */\n      tag_95\n      tag_30\n      jump\t// in\n    tag_95:\n        /* \"#utility.yul\":2637:2759   */\n    tag_94:\n        /* \"#utility.yul\":2795:2801   */\n      dup2\n        /* \"#utility.yul\":2782:2802   */\n      calldataload\n        /* \"#utility.yul\":2820:2899   */\n      tag_96\n        /* \"#utility.yul\":2895:2898   */\n      dup5\n        /* \"#utility.yul\":2887:2893   */\n      dup3\n        /* \"#utility.yul\":2880:2884   */\n      0x20\n        /* \"#utility.yul\":2872:2878   */\n      dup7\n        /* \"#utility.yul\":2868:2885   */\n      add\n        /* \"#utility.yul\":2820:2899   */\n      tag_38\n      jump\t// in\n    tag_96:\n        /* \"#utility.yul\":2811:2899   */\n      swap2\n      pop\n        /* \"#utility.yul\":2627:2905   */\n      pop\n        /* \"#utility.yul\":2565:2905   */\n      swap3\n      swap2\n      pop\n      pop\n      jump\t// out\n        /* \"#utility.yul\":2911:3710   */\n    tag_7:\n        /* \"#utility.yul\":2998:3004   */\n      0x00\n        /* \"#utility.yul\":3006:3012   */\n      dup1\n        /* \"#utility.yul\":3014:3020   */\n      0x00\n        /* \"#utility.yul\":3063:3065   */\n      0x60\n        /* \"#utility.yul\":3051:3060   */\n      dup5\n        /* \"#utility.yul\":3042:3049   */\n      dup7\n        /* \"#utility.yul\":3038:3061   */\n      sub\n        /* \"#utility.yul\":3034:3066   */\n      slt\n        /* \"#utility.yul\":3031:3150   */\n      iszero\n      tag_98\n      jumpi\n        /* \"#utility.yul\":3069:3148   */\n      tag_99\n      tag_25\n      jump\t// in\n    tag_99:\n        /* \"#utility.yul\":3031:3150   */\n    tag_98:\n        /* \"#utility.yul\":3189:3190   */\n      0x00\n        /* \"#utility.yul\":3214:3267   */\n      tag_100\n        /* \"#utility.yul\":3259:3266   */\n      dup7\n        /* \"#utility.yul\":3250:3256   */\n      dup3\n        /* \"#utility.yul\":3239:3248   */\n      dup8\n        /* \"#utility.yul\":3235:3257   */\n      add\n        /* \"#utility.yul\":3214:3267   */\n      tag_29\n      jump\t// in\n    tag_100:\n        /* \"#utility.yul\":3204:3267   */\n      swap4\n      pop\n        /* \"#utility.yul\":3160:3277   */\n      pop\n        /* \"#utility.yul\":3344:3346   */\n      0x20\n        /* \"#utility.yul\":3333:3342   */\n      dup5\n        /* \"#utility.yul\":3329:3347   */\n      add\n        /* \"#utility.yul\":3316:3348   */\n      calldataload\n        /* \"#utility.yul\":3375:3393   */\n      0xffffffffffffffff\n        /* \"#utility.yul\":3367:3373   */\n      dup2\n        /* \"#utility.yul\":3364:3394   */\n      gt\n        /* \"#utility.yul\":3361:3478   */\n      iszero\n      tag_101\n      jumpi\n        /* \"#utility.yul\":3397:3476   */\n      tag_102\n      tag_26\n      jump\t// in\n    tag_102:\n        /* \"#utility.yul\":3361:3478   */\n    tag_101:\n        /* \"#utility.yul\":3502:3565   */\n      tag_103\n        /* \"#utility.yul\":3557:3564   */\n      dup7\n        /* \"#utility.yul\":3548:3554   */\n      dup3\n        /* \"#utility.yul\":3537:3546   */\n      dup8\n        /* \"#utility.yul\":3533:3555   */\n      add\n        /* \"#utility.yul\":3502:3565   */\n      tag_39\n      jump\t// in\n    tag_103:\n        /* \"#utility.yul\":3492:3565   */\n      swap3\n      pop\n        /* \"#utility.yul\":3287:3575   */\n      pop\n        /* \"#utility.yul\":3614:3616   */\n      0x40\n        /* \"#utility.yul\":3640:3693   */\n      tag_104\n        /* \"#utility.yul\":3685:3692   */\n      dup7\n        /* \"#utility.yul\":3676:3682   */\n      dup3\n        /* \"#utility.yul\":3665:3674   */\n      dup8\n        /* \"#utility.yul\":3661:3683   */\n      add\n        /* \"#utility.yul\":3640:3693   */\n      tag_29\n      jump\t// in\n    tag_104:\n        /* \"#utility.yul\":3630:3693   */\n      swap2\n      pop\n        /* \"#utility.yul\":3585:3703   */\n      pop\n        /* \"#utility.yul\":2911:3710   */\n      swap3\n      pop\n      swap3\n      pop\n      swap3\n      jump\t// out\n        /* \"#utility.yul\":3716:4045   */\n    tag_11:\n        /* \"#utility.yul\":3775:3781   */\n      0x00\n        /* \"#utility.yul\":3824:3826   */\n      0x20\n        /* \"#utility.yul\":3812:3821   */\n      dup3\n        /* \"#utility.yul\":3803:3810   */\n      dup5\n        /* \"#utility.yul\":3799:3822   */\n      sub\n        /* \"#utility.yul\":3795:3827   */\n      slt\n        /* \"#utility.yul\":3792:3911   */\n      iszero\n      tag_106\n      jumpi\n        /* \"#utility.yul\":3830:3909   */\n      tag_107\n      tag_25\n      jump\t// in\n    tag_107:\n        /* \"#utility.yul\":3792:3911   */\n    tag_106:\n        /* \"#utility.yul\":3950:3951   */\n      0x00\n        /* \"#utility.yul\":3975:4028   */\n      tag_108\n        /* \"#utility.yul\":4020:4027   */\n      dup5\n        /* \"#utility.yul\":4011:4017   */\n      dup3\n        /* \"#utility.yul\":4000:4009   */\n      dup6\n        /* \"#utility.yul\":3996:4018   */\n      add\n        /* \"#utility.yul\":3975:4028   */\n      tag_29\n      jump\t// in\n    tag_108:\n        /* \"#utility.yul\":3965:4028   */\n      swap2\n      pop\n        /* \"#utility.yul\":3921:4038   */\n      pop\n        /* \"#utility.yul\":3716:4045   */\n      swap3\n      swap2\n      pop\n      pop\n      jump\t// out\n        /* \"#utility.yul\":4051:4150   */\n    tag_40:\n        /* \"#utility.yul\":4103:4109   */\n      0x00\n        /* \"#utility.yul\":4137:4142   */\n      dup2\n        /* \"#utility.yul\":4131:4143   */\n      mload\n        /* \"#utility.yul\":4121:4143   */\n      swap1\n      pop\n        /* \"#utility.yul\":4051:4150   */\n      swap2\n      swap1\n      pop\n      jump\t// out\n        /* \"#utility.yul\":4156:4325   */\n    tag_41:\n        /* \"#utility.yul\":4240:4251   */\n      0x00\n        /* \"#utility.yul\":4274:4280   */\n      dup3\n        /* \"#utility.yul\":4269:4272   */\n      dup3\n        /* \"#utility.yul\":4262:4281   */\n      mstore\n        /* \"#utility.yul\":4314:4318   */\n      0x20\n        /* \"#utility.yul\":4309:4312   */\n      dup3\n        /* \"#utility.yul\":4305:4319   */\n      add\n        /* \"#utility.yul\":4290:4319   */\n      swap1\n      pop\n        /* \"#utility.yul\":4156:4325   */\n      swap3\n      swap2\n      pop\n      pop\n      jump\t// out\n        /* \"#utility.yul\":4331:4470   */\n    tag_42:\n        /* \"#utility.yul\":4420:4426   */\n      dup3\n        /* \"#utility.yul\":4415:4418   */\n      dup2\n        /* \"#utility.yul\":4410:4413   */\n      dup4\n        /* \"#utility.yul\":4404:4427   */\n      mcopy\n        /* \"#utility.yul\":4461:4462   */\n      0x00\n        /* \"#utility.yul\":4452:4458   */\n      dup4\n        /* \"#utility.yul\":4447:4450   */\n      dup4\n        /* \"#utility.yul\":4443:4459   */\n      add\n        /* \"#utility.yul\":4436:4463   */\n      mstore\n        /* \"#utility.yul\":4331:4470   */\n      pop\n      pop\n      pop\n      jump\t// out\n        /* \"#utility.yul\":4476:4853   */\n    tag_43:\n        /* \"#utility.yul\":4564:4567   */\n      0x00\n        /* \"#utility.yul\":4592:4631   */\n      tag_113\n        /* \"#utility.yul\":4625:4630   */\n      dup3\n        /* \"#utility.yul\":4592:4631   */\n      tag_40\n      jump\t// in\n    tag_113:\n        /* \"#utility.yul\":4647:4718   */\n      tag_114\n        /* \"#utility.yul\":4711:4717   */\n      dup2\n        /* \"#utility.yul\":4706:4709   */\n      dup6\n        /* \"#utility.yul\":4647:4718   */\n      tag_41\n      jump\t// in\n    tag_114:\n        /* \"#utility.yul\":4640:4718   */\n      swap4\n      pop\n        /* \"#utility.yul\":4727:4792   */\n      tag_115\n        /* \"#utility.yul\":4785:4791   */\n      dup2\n        /* \"#utility.yul\":4780:4783   */\n      dup6\n        /* \"#utility.yul\":4773:4777   */\n      0x20\n        /* \"#utility.yul\":4766:4771   */\n      dup7\n        /* \"#utility.yul\":4762:4778   */\n      add\n        /* \"#utility.yul\":4727:4792   */\n      tag_42\n      jump\t// in\n    tag_115:\n        /* \"#utility.yul\":4817:4846   */\n      tag_116\n        /* \"#utility.yul\":4839:4845   */\n      dup2\n        /* \"#utility.yul\":4817:4846   */\n      tag_32\n      jump\t// in\n    tag_116:\n        /* \"#utility.yul\":4812:4815   */\n      dup5\n        /* \"#utility.yul\":4808:4847   */\n      add\n        /* \"#utility.yul\":4801:4847   */\n      swap2\n      pop\n        /* \"#utility.yul\":4568:4853   */\n      pop\n        /* \"#utility.yul\":4476:4853   */\n      swap3\n      swap2\n      pop\n      pop\n      jump\t// out\n        /* \"#utility.yul\":4859:4977   */\n    tag_44:\n        /* \"#utility.yul\":4946:4970   */\n      tag_118\n        /* \"#utility.yul\":4964:4969   */\n      dup2\n        /* \"#utility.yul\":4946:4970   */\n      tag_27\n      jump\t// in\n    tag_118:\n        /* \"#utility.yul\":4941:4944   */\n      dup3\n        /* \"#utility.yul\":4934:4971   */\n      mstore\n        /* \"#utility.yul\":4859:4977   */\n      pop\n      pop\n      jump\t// out\n        /* \"#utility.yul\":4983:5406   */\n    tag_14:\n        /* \"#utility.yul\":5124:5128   */\n      0x00\n        /* \"#utility.yul\":5162:5164   */\n      0x40\n        /* \"#utility.yul\":5151:5160   */\n      dup3\n        /* \"#utility.yul\":5147:5165   */\n      add\n        /* \"#utility.yul\":5139:5165   */\n      swap1\n      pop\n        /* \"#utility.yul\":5211:5220   */\n      dup2\n        /* \"#utility.yul\":5205:5209   */\n      dup2\n        /* \"#utility.yul\":5201:5221   */\n      sub\n        /* \"#utility.yul\":5197:5198   */\n      0x00\n        /* \"#utility.yul\":5186:5195   */\n      dup4\n        /* \"#utility.yul\":5182:5199   */\n      add\n        /* \"#utility.yul\":5175:5222   */\n      mstore\n        /* \"#utility.yul\":5239:5317   */\n      tag_120\n        /* \"#utility.yul\":5312:5316   */\n      dup2\n        /* \"#utility.yul\":5303:5309   */\n      dup6\n        /* \"#utility.yul\":5239:5317   */\n      tag_43\n      jump\t// in\n    tag_120:\n        /* \"#utility.yul\":5231:5317   */\n      swap1\n      pop\n        /* \"#utility.yul\":5327:5399   */\n      tag_121\n        /* \"#utility.yul\":5395:5397   */\n      0x20\n        /* \"#utility.yul\":5384:5393   */\n      dup4\n        /* \"#utility.yul\":5380:5398   */\n      add\n        /* \"#utility.yul\":5371:5377   */\n      dup5\n        /* \"#utility.yul\":5327:5399   */\n      tag_44\n      jump\t// in\n    tag_121:\n        /* \"#utility.yul\":4983:5406   */\n      swap4\n      swap3\n      pop\n      pop\n      pop\n      jump\t// out\n        /* \"#utility.yul\":5412:5592   */\n    tag_45:\n        /* \"#utility.yul\":5460:5537   */\n      0x4e487b7100000000000000000000000000000000000000000000000000000000\n        /* \"#utility.yul\":5457:5458   */\n      0x00\n        /* \"#utility.yul\":5450:5538   */\n      mstore\n        /* \"#utility.yul\":5557:5561   */\n      0x22\n        /* \"#utility.yul\":5554:5555   */\n      0x04\n        /* \"#utility.yul\":5547:5562   */\n      mstore\n        /* \"#utility.yul\":5581:5585   */\n      0x24\n        /* \"#utility.yul\":5578:5579   */\n      0x00\n        /* \"#utility.yul\":5571:5586   */\n      revert\n        /* \"#utility.yul\":5598:5918   */\n    tag_19:\n        /* \"#utility.yul\":5642:5648   */\n      0x00\n        /* \"#utility.yul\":5679:5680   */\n      0x02\n        /* \"#utility.yul\":5673:5677   */\n      dup3\n        /* \"#utility.yul\":5669:5681   */\n      div\n        /* \"#utility.yul\":5659:5681   */\n      swap1\n      pop\n        /* \"#utility.yul\":5726:5727   */\n      0x01\n        /* \"#utility.yul\":5720:5724   */\n      dup3\n        /* \"#utility.yul\":5716:5728   */\n      and\n        /* \"#utility.yul\":5747:5765   */\n      dup1\n        /* \"#utility.yul\":5737:5818   */\n      tag_124\n      jumpi\n        /* \"#utility.yul\":5803:5807   */\n      0x7f\n        /* \"#utility.yul\":5795:5801   */\n      dup3\n        /* \"#utility.yul\":5791:5808   */\n      and\n        /* \"#utility.yul\":5781:5808   */\n      swap2\n      pop\n        /* \"#utility.yul\":5737:5818   */\n    tag_124:\n        /* \"#utility.yul\":5865:5867   */\n      0x20\n        /* \"#utility.yul\":5857:5863   */\n      dup3\n        /* \"#utility.yul\":5854:5868   */\n      lt\n        /* \"#utility.yul\":5834:5852   */\n      dup2\n        /* \"#utility.yul\":5831:5869   */\n      sub\n        /* \"#utility.yul\":5828:5912   */\n      tag_125\n      jumpi\n        /* \"#utility.yul\":5884:5902   */\n      tag_126\n      tag_45\n      jump\t// in\n    tag_126:\n        /* \"#utility.yul\":5828:5912   */\n    tag_125:\n        /* \"#utility.yul\":5649:5918   */\n      pop\n        /* \"#utility.yul\":5598:5918   */\n      swap2\n      swap1\n      pop\n      jump\t// out\n        /* \"#utility.yul\":5924:6065   */\n    tag_46:\n        /* \"#utility.yul\":5973:5977   */\n      0x00\n        /* \"#utility.yul\":5996:5999   */\n      dup2\n        /* \"#utility.yul\":5988:5999   */\n      swap1\n      pop\n        /* \"#utility.yul\":6019:6022   */\n      dup2\n        /* \"#utility.yul\":6016:6017   */\n      0x00\n        /* \"#utility.yul\":6009:6023   */\n      mstore\n        /* \"#utility.yul\":6053:6057   */\n      0x20\n        /* \"#utility.yul\":6050:6051   */\n      0x00\n        /* \"#utility.yul\":6040:6058   */\n      keccak256\n        /* \"#utility.yul\":6032:6058   */\n      swap1\n      pop\n        /* \"#utility.yul\":5924:6065   */\n      swap2\n      swap1\n      pop\n      jump\t// out\n        /* \"#utility.yul\":6071:6164   */\n    tag_47:\n        /* \"#utility.yul\":6108:6114   */\n      0x00\n        /* \"#utility.yul\":6155:6157   */\n      0x20\n        /* \"#utility.yul\":6150:6152   */\n      0x1f\n        /* \"#utility.yul\":6143:6148   */\n      dup4\n        /* \"#utility.yul\":6139:6153   */\n      add\n        /* \"#utility.yul\":6135:6158   */\n      div\n        /* \"#utility.yul\":6125:6158   */\n      swap1\n      pop\n        /* \"#utility.yul\":6071:6164   */\n      swap2\n      swap1\n      pop\n      jump\t// out\n        /* \"#utility.yul\":6170:6277   */\n    tag_48:\n        /* \"#utility.yul\":6214:6222   */\n      0x00\n        /* \"#utility.yul\":6264:6269   */\n      dup3\n        /* \"#utility.yul\":6258:6262   */\n      dup3\n        /* \"#utility.yul\":6254:6270   */\n      shl\n        /* \"#utility.yul\":6233:6270   */\n      swap1\n      pop\n        /* \"#utility.yul\":6170:6277   */\n      swap3\n      swap2\n      pop\n      pop\n      jump\t// out\n        /* \"#utility.yul\":6283:6676   */\n    tag_49:\n        /* \"#utility.yul\":6352:6358   */\n      0x00\n        /* \"#utility.yul\":6402:6403   */\n      0x08\n        /* \"#utility.yul\":6390:6400   */\n      dup4\n        /* \"#utility.yul\":6386:6404   */\n      mul\n        /* \"#utility.yul\":6425:6522   */\n      tag_131\n        /* \"#utility.yul\":6455:6521   */\n      0xffffffffffffffffffffffffffffffffffffffffffffffffffffffffffffffff\n        /* \"#utility.yul\":6444:6453   */\n      dup3\n        /* \"#utility.yul\":6425:6522   */\n      tag_48\n      jump\t// in\n    tag_131:\n        /* \"#utility.yul\":6543:6582   */\n      tag_132\n        /* \"#utility.yul\":6573:6581   */\n      dup7\n        /* \"#utility.yul\":6562:6571   */\n      dup4\n        /* \"#utility.yul\":6543:6582   */\n      tag_48\n      jump\t// in\n    tag_132:\n        /* \"#utility.yul\":6531:6582   */\n      swap6\n      pop\n        /* \"#utility.yul\":6615:6619   */\n      dup1\n        /* \"#utility.yul\":6611:6620   */\n      not\n        /* \"#utility.yul\":6604:6609   */\n      dup5\n        /* \"#utility.yul\":6600:6621   */\n      and\n        /* \"#utility.yul\":6591:6621   */\n      swap4\n      pop\n        /* \"#utility.yul\":6664:6668   */\n      dup1\n        /* \"#utility.yul\":6654:6662   */\n      dup7\n        /* \"#utility.yul\":6650:6669   */\n      and\n        /* \"#utility.yul\":6643:6648   */\n      dup5\n        /* \"#utility.yul\":6640:6670   */\n      or\n        /* \"#utility.yul\":6630:6670   */\n      swap3\n      pop\n        /* \"#utility.yul\":6359:6676   */\n      pop\n      pop\n        /* \"#utility.yul\":6283:6676   */\n      swap4\n      swap3\n      pop\n      pop\n      pop\n      jump\t// out\n        /* \"#utility.yul\":6682:6742   */\n    tag_50:\n        /* \"#utility.yul\":6710:6713   */\n      0x00\n        /* \"#utility.yul\":6731:6736   */\n      dup2\n        /* \"#utility.yul\":6724:6736   */\n      swap1\n      pop\n        /* \"#utility.yul\":6682:6742   */\n      swap2\n      swap1\n      pop\n      jump\t// out\n        /* \"#utility.yul\":6748:6890   */\n    tag_51:\n        /* \"#utility.yul\":6798:6807   */\n      0x00\n        /* \"#utility.yul\":6831:6884   */\n      tag_135\n        /* \"#utility.yul\":6849:6883   */\n      tag_136\n        /* \"#utility.yul\":6858:6882   */\n      tag_137\n        /* \"#utility.yul\":6876:6881   */\n      dup5\n        /* \"#utility.yul\":6858:6882   */\n      tag_27\n      jump\t// in\n    tag_137:\n        /* \"#utility.yul\":6849:6883   */\n      tag_50\n      jump\t// in\n    tag_136:\n        /* \"#utility.yul\":6831:6884   */\n      tag_27\n      jump\t// in\n    tag_135:\n        /* \"#utility.yul\":6818:6884   */\n      swap1\n      pop\n        /* \"#utility.yul\":6748:6890   */\n      swap2\n      swap1\n      pop\n      jump\t// out\n        /* \"#utility.yul\":6896:6971   */\n    tag_52:\n        /* \"#utility.yul\":6939:6942   */\n      0x00\n        /* \"#utility.yul\":6960:6965   */\n      dup2\n        /* \"#utility.yul\":6953:6965   */\n      swap1\n      pop\n        /* \"#utility.yul\":6896:6971   */\n      swap2\n      swap1\n      pop\n      jump\t// out\n        /* \"#utility.yul\":6977:7246   */\n    tag_53:\n        /* \"#utility.yul\":7087:7126   */\n      tag_140\n        /* \"#utility.yul\":7118:7125   */\n      dup4\n        /* \"#utility.yul\":7087:7126   */\n      tag_51\n      jump\t// in\n    tag_140:\n        /* \"#utility.yul\":7148:7239   */\n      tag_141\n        /* \"#utility.yul\":7197:7238   */\n      tag_142\n        /* \"#utility.yul\":7221:7237   */\n      dup3\n        /* \"#utility.yul\":7197:7238   */\n      tag_52\n      jump\t// in\n    tag_142:\n        /* \"#utility.yul\":7189:7195   */\n      dup5\n        /* \"#utility.yul\":7182:7186   */\n      dup5\n        /* \"#utility.yul\":7176:7187   */\n      sload\n        /* \"#utility.yul\":7148:7239   */\n      tag_49\n      jump\t// in\n    tag_141:\n        /* \"#utility.yul\":7142:7146   */\n      dup3\n        /* \"#utility.yul\":7135:7240   */\n      sstore\n        /* \"#utility.yul\":7053:7246   */\n      pop\n        /* \"#utility.yul\":6977:7246   */\n      pop\n      pop\n      pop\n      jump\t// out\n        /* \"#utility.yul\":7252:7325   */\n    tag_54:\n        /* \"#utility.yul\":7297:7300   */\n      0x00\n        /* \"#utility.yul\":7252:7325   */\n      swap1\n      jump\t// out\n        /* \"#utility.yul\":7331:7520   */\n    tag_55:\n        /* \"#utility.yul\":7408:7440   */\n      tag_145\n      tag_54\n      jump\t// in\n    tag_145:\n        /* \"#utility.yul\":7449:7514   */\n      tag_146\n        /* \"#utility.yul\":7507:7513   */\n      dup2\n        /* \"#utility.yul\":7499:7505   */\n      dup5\n        /* \"#utility.yul\":7493:7497   */\n      dup5\n        /* \"#utility.yul\":7449:7514   */\n      tag_53\n      jump\t// in\n    tag_146:\n        /* \"#utility.yul\":7384:7520   */\n      pop\n        /* \"#utility.yul\":7331:7520   */\n      pop\n      pop\n      jump\t// out\n        /* \"#utility.yul\":7526:7712   */\n    tag_56:\n        /* \"#utility.yul\":7586:7706   */\n    tag_148:\n        /* \"#utility.yul\":7603:7606   */\n      dup2\n        /* \"#utility.yul\":7596:7601   */\n      dup2\n        /* \"#utility.yul\":7593:7607   */\n      lt\n        /* \"#utility.yul\":7586:7706   */\n      iszero\n      tag_150\n      jumpi\n        /* \"#utility.yul\":7657:7696   */\n      tag_151\n        /* \"#utility.yul\":7694:7695   */\n      0x00\n        /* \"#utility.yul\":7687:7692   */\n      dup3\n        /* \"#utility.yul\":7657:7696   */\n      tag_55\n      jump\t// in\n    tag_151:\n        /* \"#utility.yul\":7630:7631   */\n      0x01\n        /* \"#utility.yul\":7623:7628   */\n      dup2\n        /* \"#utility.yul\":7619:7632   */\n      add\n        /* \"#utility.yul\":7610:7632   */\n      swap1\n      pop\n        /* \"#utility.yul\":7586:7706   */\n      jump(tag_148)\n    tag_150:\n        /* \"#utility.yul\":7526:7712   */\n      pop\n      pop\n      jump\t// out\n        /* \"#utility.yul\":7718:8261   */\n    tag_57:\n        /* \"#utility.yul\":7819:7821   */\n      0x1f\n        /* \"#utility.yul\":7814:7817   */\n      dup3\n        /* \"#utility.yul\":7811:7822   */\n      gt\n        /* \"#utility.yul\":7808:8254   */\n      iszero\n      tag_153\n      jumpi\n        /* \"#utility.yul\":7853:7891   */\n      tag_154\n        /* \"#utility.yul\":7885:7890   */\n      dup2\n        /* \"#utility.yul\":7853:7891   */\n      tag_46\n      jump\t// in\n    tag_154:\n        /* \"#utility.yul\":7937:7966   */\n      tag_155\n        /* \"#utility.yul\":7955:7965   */\n      dup5\n        /* \"#utility.yul\":7937:7966   */\n      tag_47\n      jump\t// in\n    tag_155:\n        /* \"#utility.yul\":7927:7935   */\n      dup2\n        /* \"#utility.yul\":7923:7967   */\n      add\n        /* \"#utility.yul\":8120:8122   */\n      0x20\n        /* \"#utility.yul\":8108:8118   */\n      dup6\n        /* \"#utility.yul\":8105:8123   */\n      lt\n        /* \"#utility.yul\":8102:8151   */\n      iszero\n      tag_156\n      jumpi\n        /* \"#utility.yul\":8141:8149   */\n      dup2\n        /* \"#utility.yul\":8126:8149   */\n      swap1\n      pop\n        /* \"#utility.yul\":8102:8151   */\n    tag_156:\n        /* \"#utility.yul\":8164:8244   */\n      tag_157\n        /* \"#utility.yul\":8220:8242   */\n      tag_158\n        /* \"#utility.yul\":8238:8241   */\n      dup6\n        /* \"#utility.yul\":8220:8242   */\n      tag_47\n      jump\t// in\n    tag_158:\n        /* \"#utility.yul\":8210:8218   */\n      dup4\n        /* \"#utility.yul\":8206:8243   */\n      add\n        /* \"#utility.yul\":8193:8204   */\n      dup3\n        /* \"#utility.yul\":8164:8244   */\n      tag_56\n      jump\t// in\n    tag_157:\n        /* \"#utility.yul\":7823:8254   */\n      pop\n      pop\n        /* \"#utility.yul\":7808:8254   */\n    tag_153:\n        /* \"#utility.yul\":7718:8261   */\n      pop\n      pop\n      pop\n      jump\t// out\n        /* \"#utility.yul\":8267:8384   */\n    tag_58:\n        /* \"#utility.yul\":8321:8329   */\n      0x00\n        /* \"#utility.yul\":8371:8376   */\n      dup3\n        /* \"#utility.yul\":8365:8369   */\n      dup3\n        /* \"#utility.yul\":8361:8377   */\n      shr\n        /* \"#utility.yul\":8340:8377   */\n      swap1\n      pop\n        /* \"#utility.yul\":8267:8384   */\n      swap3\n      swap2\n      pop\n      pop\n      jump\t// out\n        /* \"#utility.yul\":8390:8559   */\n    tag_59:\n        /* \"#utility.yul\":8434:8440   */\n      0x00\n        /* \"#utility.yul\":8467:8518   */\n      tag_161\n        /* \"#utility.yul\":8515:8516   */\n      0x00\n        /* \"#utility.yul\":8511:8517   */\n      not\n        /* \"#utility.yul\":8503:8508   */\n      dup5\n        /* \"#utility.yul\":8500:8501   */\n      0x08\n        /* \"#utility.yul\":8496:8509   */\n      mul\n        /* \"#utility.yul\":8467:8518   */\n      tag_58\n      jump\t// in\n    tag_161:\n        /* \"#utility.yul\":8463:8519   */\n      not\n        /* \"#utility.yul\":8548:8552   */\n      dup1\n        /* \"#utility.yul\":8542:8546   */\n      dup4\n        /* \"#utility.yul\":8538:8553   */\n      and\n        /* \"#utility.yul\":8528:8553   */\n      swap2\n      pop\n        /* \"#utility.yul\":8441:8559   */\n      pop\n        /* \"#utility.yul\":8390:8559   */\n      swap3\n      swap2\n      pop\n      pop\n      jump\t// out\n        /* \"#utility.yul\":8564:8859   */\n    tag_60:\n        /* \"#utility.yul\":8640:8644   */\n      0x00\n        /* \"#utility.yul\":8786:8815   */\n      tag_163\n        /* \"#utility.yul\":8811:8814   */\n      dup4\n        /* \"#utility.yul\":8805:8809   */\n      dup4\n        /* \"#utility.yul\":8786:8815   */\n      tag_59\n      jump\t// in\n    tag_163:\n        /* \"#utility.yul\":8778:8815   */\n      swap2\n      pop\n        /* \"#utility.yul\":8848:8851   */\n      dup3\n        /* \"#utility.yul\":8845:8846   */\n      0x02\n        /* \"#utility.yul\":8841:8852   */\n      mul\n        /* \"#utility.yul\":8835:8839   */\n      dup3\n        /* \"#utility.yul\":8832:8853   */\n      or\n        /* \"#utility.yul\":8824:8853   */\n      swap1\n      pop\n        /* \"#utility.yul\":8564:8859   */\n      swap3\n      swap2\n      pop\n      pop\n      jump\t// out\n        /* \"#utility.yul\":8864:10259   */\n    tag_17:\n        /* \"#utility.yul\":8981:9018   */\n      tag_165\n        /* \"#utility.yul\":9014:9017   */\n      dup3\n        /* \"#utility.yul\":8981:9018   */\n      tag_40\n      jump\t// in\n    tag_165:\n        /* \"#utility.yul\":9083:9101   */\n      0xffffffffffffffff\n        /* \"#utility.yul\":9075:9081   */\n      dup2\n        /* \"#utility.yul\":9072:9102   */\n      gt\n        /* \"#utility.yul\":9069:9125   */\n      iszero\n      tag_166\n      jumpi\n        /* \"#utility.yul\":9105:9123   */\n      tag_167\n      tag_33\n      jump\t// in\n    tag_167:\n        /* \"#utility.yul\":9069:9125   */\n    tag_166:\n        /* \"#utility.yul\":9149:9187   */\n      tag_168\n        /* \"#utility.yul\":9181:9185   */\n      dup3\n        /* \"#utility.yul\":9175:9186   */\n      sload\n        /* \"#utility.yul\":9149:9187   */\n      tag_19\n      jump\t// in\n    tag_168:\n        /* \"#utility.yul\":9234:9301   */\n      tag_169\n        /* \"#utility.yul\":9294:9300   */\n      dup3\n        /* \"#utility.yul\":9286:9292   */\n      dup3\n        /* \"#utility.yul\":9280:9284   */\n      dup6\n        /* \"#utility.yul\":9234:9301   */\n      tag_57\n      jump\t// in\n    tag_169:\n        /* \"#utility.yul\":9328:9329   */\n      0x00\n        /* \"#utility.yul\":9352:9356   */\n      0x20\n        /* \"#utility.yul\":9339:9356   */\n      swap1\n      pop\n        /* \"#utility.yul\":9384:9386   */\n      0x1f\n        /* \"#utility.yul\":9376:9382   */\n      dup4\n        /* \"#utility.yul\":9373:9387   */\n      gt\n        /* \"#utility.yul\":9401:9402   */\n      0x01\n        /* \"#utility.yul\":9396:10014   */\n      dup2\n      eq\n      tag_171\n      jumpi\n        /* \"#utility.yul\":10058:10059   */\n      0x00\n        /* \"#utility.yul\":10075:10081   */\n      dup5\n        /* \"#utility.yul\":10072:10149   */\n      iszero\n      tag_172\n      jumpi\n        /* \"#utility.yul\":10124:10133   */\n      dup3\n        /* \"#utility.yul\":10119:10122   */\n      dup8\n        /* \"#utility.yul\":10115:10134   */\n      add\n        /* \"#utility.yul\":10109:10135   */\n      mload\n        /* \"#utility.yul\":10100:10135   */\n      swap1\n      pop\n        /* \"#utility.yul\":10072:10149   */\n    tag_172:\n        /* \"#utility.yul\":10175:10242   */\n      tag_173\n        /* \"#utility.yul\":10235:10241   */\n      dup6\n        /* \"#utility.yul\":10228:10233   */\n      dup3\n        /* \"#utility.yul\":10175:10242   */\n      tag_60\n      jump\t// in\n    tag_173:\n        /* \"#utility.yul\":10169:10173   */\n      dup7\n        /* \"#utility.yul\":10162:10243   */\n      sstore\n        /* \"#utility.yul\":10031:10253   */\n      pop\n        /* \"#utility.yul\":9366:10253   */\n      jump(tag_170)\n        /* \"#utility.yul\":9396:10014   */\n    tag_171:\n        /* \"#utility.yul\":9448:9452   */\n      0x1f\n        /* \"#utility.yul\":9444:9453   */\n      not\n        /* \"#utility.yul\":9436:9442   */\n      dup5\n        /* \"#utility.yul\":9432:9454   */\n      and\n        /* \"#utility.yul\":9482:9519   */\n      tag_174\n        /* \"#utility.yul\":9514:9518   */\n      dup7\n        /* \"#utility.yul\":9482:9519   */\n      tag_46\n      jump\t// in\n    tag_174:\n        /* \"#utility.yul\":9541:9542   */\n      0x00\n        /* \"#utility.yul\":9555:9763   */\n    tag_175:\n        /* \"#utility.yul\":9569:9576   */\n      dup3\n        /* \"#utility.yul\":9566:9567   */\n      dup2\n        /* \"#utility.yul\":9563:9577   */\n      lt\n        /* \"#utility.yul\":9555:9763   */\n      iszero\n      tag_177\n      jumpi\n        /* \"#utility.yul\":9648:9657   */\n      dup5\n        /* \"#utility.yul\":9643:9646   */\n      dup10\n        /* \"#utility.yul\":9639:9658   */\n      add\n        /* \"#utility.yul\":9633:9659   */\n      mload\n        /* \"#utility.yul\":9625:9631   */\n      dup3\n        /* \"#utility.yul\":9618:9660   */\n      sstore\n        /* \"#utility.yul\":9699:9700   */\n      0x01\n        /* \"#utility.yul\":9691:9697   */\n      dup3\n        /* \"#utility.yul\":9687:9701   */\n      add\n        /* \"#utility.yul\":9677:9701   */\n      swap2\n      pop\n        /* \"#utility.yul\":9746:9748   */\n      0x20\n        /* \"#utility.yul\":9735:9744   */\n      dup6\n        /* \"#utility.yul\":9731:9749   */\n      add\n        /* \"#utility.yul\":9718:9749   */\n      swap5\n      pop\n        /* \"#utility.yul\":9592:9596   */\n      0x20\n        /* \"#utility.yul\":9589:9590   */\n      dup2\n        /* \"#utility.yul\":9585:9597   */\n      add\n        /* \"#utility.yul\":9580:9597   */\n      swap1\n      pop\n        /* \"#utility.yul\":9555:9763   */\n      jump(tag_175)\n    tag_177:\n        /* \"#utility.yul\":9791:9797   */\n      dup7\n        /* \"#utility.yul\":9782:9789   */\n      dup4\n        /* \"#utility.yul\":9779:9798   */\n      lt\n        /* \"#utility.yul\":9776:9955   */\n      iszero\n      tag_178\n      jumpi\n        /* \"#utility.yul\":9849:9858   */\n      dup5\n        /* \"#utility.yul\":9844:9847   */\n      dup10\n        /* \"#utility.yul\":9840:9859   */\n      add\n        /* \"#utility.yul\":9834:9860   */\n      mload\n        /* \"#utility.yul\":9892:9940   */\n      tag_179\n        /* \"#utility.yul\":9934:9938   */\n      0x1f\n        /* \"#utility.yul\":9926:9932   */\n      dup10\n        /* \"#utility.yul\":9922:9939   */\n      and\n        /* \"#utility.yul\":9911:9920   */\n      dup3\n        /* \"#utility.yul\":9892:9940   */\n      tag_59\n      jump\t// in\n    tag_179:\n        /* \"#utility.yul\":9884:9890   */\n      dup4\n        /* \"#utility.yul\":9877:9941   */\n      sstore\n        /* \"#utility.yul\":9799:9955   */\n      pop\n        /* \"#utility.yul\":9776:9955   */\n    tag_178:\n        /* \"#utility.yul\":10001:10002   */\n      0x01\n        /* \"#utility.yul\":9997:9998   */\n      0x02\n        /* \"#utility.yul\":9989:9995   */\n      dup9\n        /* \"#utility.yul\":9985:9999   */\n      mul\n        /* \"#utility.yul\":9981:10003   */\n      add\n        /* \"#utility.yul\":9975:9979   */\n      dup9\n        /* \"#utility.yul\":9968:10004   */\n      sstore\n        /* \"#utility.yul\":9403:10014   */\n      pop\n      pop\n      pop\n        /* \"#utility.yul\":9366:10253   */\n    tag_170:\n      pop\n        /* \"#utility.yul\":8956:10259   */\n      pop\n      pop\n      pop\n        /* \"#utility.yul\":8864:10259   */\n      pop\n      pop\n      jump\t// out\n\n    auxdata: 0xa2646970667358221220c8a18c5e76488aa69ee14a5568defbfaa1701371b94e32a46cca78d2a132b11a64736f6c634300081a0033\n}\n",
				"bytecode": {
					"linkReferences": {},
					"object": "6080604052348015600e575f80fd5b506107288061001c5f395ff3fe608060405234801561000f575f80fd5b5060043610610034575f3560e01c80630c22cf4114610038578063f0ba844014610054575b5f80fd5b610052600480360381019061004d91906102f5565b610085565b005b61006e60048036038101906100699190610361565b6100d0565b60405161007c9291906103fb565b60405180910390f35b6040518060400160405280838152602001828152505f808581526020019081526020015f205f820151815f0190816100bd9190610623565b5060208201518160010155905050505050565b5f602052805f5260405f205f91509050805f0180546100ee90610456565b80601f016020809104026020016040519081016040528092919081815260200182805461011a90610456565b80156101655780601f1061013c57610100808354040283529160200191610165565b820191905f5260205f20905b81548152906001019060200180831161014857829003601f168201915b5050505050908060010154905082565b5f604051905090565b5f80fd5b5f80fd5b5f819050919050565b61019881610186565b81146101a2575f80fd5b50565b5f813590506101b38161018f565b92915050565b5f80fd5b5f80fd5b5f601f19601f8301169050919050565b7f4e487b71000000000000000000000000000000000000000000000000000000005f52604160045260245ffd5b610207826101c1565b810181811067ffffffffffffffff82111715610226576102256101d1565b5b80604052505050565b5f610238610175565b905061024482826101fe565b919050565b5f67ffffffffffffffff821115610263576102626101d1565b5b61026c826101c1565b9050602081019050919050565b828183375f83830152505050565b5f61029961029484610249565b61022f565b9050828152602081018484840111156102b5576102b46101bd565b5b6102c0848285610279565b509392505050565b5f82601f8301126102dc576102db6101b9565b5b81356102ec848260208601610287565b91505092915050565b5f805f6060848603121561030c5761030b61017e565b5b5f610319868287016101a5565b935050602084013567ffffffffffffffff81111561033a57610339610182565b5b610346868287016102c8565b9250506040610357868287016101a5565b9150509250925092565b5f602082840312156103765761037561017e565b5b5f610383848285016101a5565b91505092915050565b5f81519050919050565b5f82825260208201905092915050565b8281835e5f83830152505050565b5f6103be8261038c565b6103c88185610396565b93506103d88185602086016103a6565b6103e1816101c1565b840191505092915050565b6103f581610186565b82525050565b5f6040820190508181035f83015261041381856103b4565b905061042260208301846103ec565b9392505050565b7f4e487b71000000000000000000000000000000000000000000000000000000005f52602260045260245ffd5b5f600282049050600182168061046d57607f821691505b6020821081036104805761047f610429565b5b50919050565b5f819050815f5260205f209050919050565b5f6020601f8301049050919050565b5f82821b905092915050565b5f600883026104e27fffffffffffffffffffffffffffffffffffffffffffffffffffffffffffffffff826104a7565b6104ec86836104a7565b95508019841693508086168417925050509392505050565b5f819050919050565b5f61052761052261051d84610186565b610504565b610186565b9050919050565b5f819050919050565b6105408361050d565b61055461054c8261052e565b8484546104b3565b825550505050565b5f90565b61056861055c565b610573818484610537565b505050565b5b818110156105965761058b5f82610560565b600181019050610579565b5050565b601f8211156105db576105ac81610486565b6105b584610498565b810160208510156105c4578190505b6105d86105d085610498565b830182610578565b50505b505050565b5f82821c905092915050565b5f6105fb5f19846008026105e0565b1980831691505092915050565b5f61061383836105ec565b9150826002028217905092915050565b61062c8261038c565b67ffffffffffffffff811115610645576106446101d1565b5b61064f8254610456565b61065a82828561059a565b5f60209050601f83116001811461068b575f8415610679578287015190505b6106838582610608565b8655506106ea565b601f19841661069986610486565b5f5b828110156106c05784890151825560018201915060208501945060208101905061069b565b868310156106dd57848901516106d9601f8916826105ec565b8355505b6001600288020188555050505b50505050505056fea2646970667358221220c8a18c5e76488aa69ee14a5568defbfaa1701371b94e32a46cca78d2a132b11a64736f6c634300081a0033",
					"opcodes": "PUSH1 0x80 PUSH1 0x40 MSTORE CALLVALUE DUP1 ISZERO PUSH1 0xE JUMPI PUSH0 DUP1 REVERT JUMPDEST POP PUSH2 0x728 DUP1 PUSH2 0x1C PUSH0 CODECOPY PUSH0 RETURN INVALID PUSH1 0x80 PUSH1 0x40 MSTORE CALLVALUE DUP1 ISZERO PUSH2 0xF JUMPI PUSH0 DUP1 REVERT JUMPDEST POP PUSH1 0x4 CALLDATASIZE LT PUSH2 0x34 JUMPI PUSH0 CALLDATALOAD PUSH1 0xE0 SHR DUP1 PUSH4 0xC22CF41 EQ PUSH2 0x38 JUMPI DUP1 PUSH4 0xF0BA8440 EQ PUSH2 0x54 JUMPI JUMPDEST PUSH0 DUP1 REVERT JUMPDEST PUSH2 0x52 PUSH1 0x4 DUP1 CALLDATASIZE SUB DUP2 ADD SWAP1 PUSH2 0x4D SWAP2 SWAP1 PUSH2 0x2F5 JUMP JUMPDEST PUSH2 0x85 JUMP JUMPDEST STOP JUMPDEST PUSH2 0x6E PUSH1 0x4 DUP1 CALLDATASIZE SUB DUP2 ADD SWAP1 PUSH2 0x69 SWAP2 SWAP1 PUSH2 0x361 JUMP JUMPDEST PUSH2 0xD0 JUMP JUMPDEST PUSH1 0x40 MLOAD PUSH2 0x7C SWAP3 SWAP2 SWAP1 PUSH2 0x3FB JUMP JUMPDEST PUSH1 0x40 MLOAD DUP1 SWAP2 SUB SWAP1 RETURN JUMPDEST PUSH1 0x40 MLOAD DUP1 PUSH1 0x40 ADD PUSH1 0x40 MSTORE DUP1 DUP4 DUP2 MSTORE PUSH1 0x20 ADD DUP3 DUP2 MSTORE POP PUSH0 DUP1 DUP6 DUP2 MSTORE PUSH1 0x20 ADD SWAP1 DUP2 MSTORE PUSH1 0x20 ADD PUSH0 KECCAK256 PUSH0 DUP3 ADD MLOAD DUP2 PUSH0 ADD SWAP1 DUP2 PUSH2 0xBD SWAP2 SWAP1 PUSH2 0x623 JUMP JUMPDEST POP PUSH1 0x20 DUP3 ADD MLOAD DUP2 PUSH1 0x1 ADD SSTORE SWAP1 POP POP POP POP POP JUMP JUMPDEST PUSH0 PUSH1 0x20 MSTORE DUP1 PUSH0 MSTORE PUSH1 0x40 PUSH0 KECCAK256 PUSH0 SWAP2 POP SWAP1 POP DUP1 PUSH0 ADD DUP1 SLOAD PUSH2 0xEE SWAP1 PUSH2 0x456 JUMP JUMPDEST DUP1 PUSH1 0x1F ADD PUSH1 0x20 DUP1 SWAP2 DIV MUL PUSH1 0x20 ADD PUSH1 0x40 MLOAD SWAP1 DUP2 ADD PUSH1 0x40 MSTORE DUP1 SWAP3 SWAP2 SWAP1 DUP2 DUP2 MSTORE PUSH1 0x20 ADD DUP3 DUP1 SLOAD PUSH2 0x11A SWAP1 PUSH2 0x456 JUMP JUMPDEST DUP1 ISZERO PUSH2 0x165 JUMPI DUP1 PUSH1 0x1F LT PUSH2 0x13C JUMPI PUSH2 0x100 DUP1 DUP4 SLOAD DIV MUL DUP4 MSTORE SWAP2 PUSH1 0x20 ADD SWAP2 PUSH2 0x165 JUMP JUMPDEST DUP3 ADD SWAP2 SWAP1 PUSH0 MSTORE PUSH1 0x20 PUSH0 KECCAK256 SWAP1 JUMPDEST DUP2 SLOAD DUP2 MSTORE SWAP1 PUSH1 0x1 ADD SWAP1 PUSH1 0x20 ADD DUP1 DUP4 GT PUSH2 0x148 JUMPI DUP3 SWAP1 SUB PUSH1 0x1F AND DUP3 ADD SWAP2 JUMPDEST POP POP POP POP POP SWAP1 DUP1 PUSH1 0x1 ADD SLOAD SWAP1 POP DUP3 JUMP JUMPDEST PUSH0 PUSH1 0x40 MLOAD SWAP1 POP SWAP1 JUMP JUMPDEST PUSH0 DUP1 REVERT JUMPDEST PUSH0 DUP1 REVERT JUMPDEST PUSH0 DUP2 SWAP1 POP SWAP2 SWAP1 POP JUMP JUMPDEST PUSH2 0x198 DUP2 PUSH2 0x186 JUMP JUMPDEST DUP2 EQ PUSH2 0x1A2 JUMPI PUSH0 DUP1 REVERT JUMPDEST POP JUMP JUMPDEST PUSH0 DUP2 CALLDATALOAD SWAP1 POP PUSH2 0x1B3 DUP2 PUSH2 0x18F JUMP JUMPDEST SWAP3 SWAP2 POP POP JUMP JUMPDEST PUSH0 DUP1 REVERT JUMPDEST PUSH0 DUP1 REVERT JUMPDEST PUSH0 PUSH1 0x1F NOT PUSH1 0x1F DUP4 ADD AND SWAP1 POP SWAP2 SWAP1 POP JUMP JUMPDEST PUSH32 0x4E487B7100000000000000000000000000000000000000000000000000000000 PUSH0 MSTORE PUSH1 0x41 PUSH1 0x4 MSTORE PUSH1 0x24 PUSH0 REVERT JUMPDEST PUSH2 0x207 DUP3 PUSH2 0x1C1 JUMP JUMPDEST DUP2 ADD DUP2 DUP2 LT PUSH8 0xFFFFFFFFFFFFFFFF DUP3 GT OR ISZERO PUSH2 0x226 JUMPI PUSH2 0x225 PUSH2 0x1D1 JUMP JUMPDEST JUMPDEST DUP1 PUSH1 0x40 MSTORE POP POP POP JUMP JUMPDEST PUSH0 PUSH2 0x238 PUSH2 0x175 JUMP JUMPDEST SWAP1 POP PUSH2 0x244 DUP3 DUP3 PUSH2 0x1FE JUMP JUMPDEST SWAP2 SWAP1 POP JUMP JUMPDEST PUSH0 PUSH8 0xFFFFFFFFFFFFFFFF DUP3 GT ISZERO PUSH2 0x263 JUMPI PUSH2 0x262 PUSH2 0x1D1 JUMP JUMPDEST JUMPDEST PUSH2 0x26C DUP3 PUSH2 0x1C1 JUMP JUMPDEST SWAP1 POP PUSH1 0x20 DUP2 ADD SWAP1 POP SWAP2 SWAP1 POP JUMP JUMPDEST DUP3 DUP2 DUP4 CALLDATACOPY PUSH0 DUP4 DUP4 ADD MSTORE POP POP POP JUMP JUMPDEST PUSH0 PUSH2 0x299 PUSH2 0x294 DUP5 PUSH2 0x249 JUMP JUMPDEST PUSH2 0x22F JUMP JUMPDEST SWAP1 POP DUP3 DUP2 MSTORE PUSH1 0x20 DUP2 ADD DUP5 DUP5 DUP5 ADD GT ISZERO PUSH2 0x2B5 JUMPI PUSH2 0x2B4 PUSH2 0x1BD JUMP JUMPDEST JUMPDEST PUSH2 0x2C0 DUP5 DUP3 DUP6 PUSH2 0x279 JUMP JUMPDEST POP SWAP4 SWAP3 POP POP POP JUMP JUMPDEST PUSH0 DUP3 PUSH1 0x1F DUP4 ADD SLT PUSH2 0x2DC JUMPI PUSH2 0x2DB PUSH2 0x1B9 JUMP JUMPDEST JUMPDEST DUP2 CALLDATALOAD PUSH2 0x2EC DUP5 DUP3 PUSH1 0x20 DUP7 ADD PUSH2 0x287 JUMP JUMPDEST SWAP2 POP POP SWAP3 SWAP2 POP POP JUMP JUMPDEST PUSH0 DUP1 PUSH0 PUSH1 0x60 DUP5 DUP7 SUB SLT ISZERO PUSH2 0x30C JUMPI PUSH2 0x30B PUSH2 0x17E JUMP JUMPDEST JUMPDEST PUSH0 PUSH2 0x319 DUP7 DUP3 DUP8 ADD PUSH2 0x1A5 JUMP JUMPDEST SWAP4 POP POP PUSH1 0x20 DUP5 ADD CALLDATALOAD PUSH8 0xFFFFFFFFFFFFFFFF DUP2 GT ISZERO PUSH2 0x33A JUMPI PUSH2 0x339 PUSH2 0x182 JUMP JUMPDEST JUMPDEST PUSH2 0x346 DUP7 DUP3 DUP8 ADD PUSH2 0x2C8 JUMP JUMPDEST SWAP3 POP POP PUSH1 0x40 PUSH2 0x357 DUP7 DUP3 DUP8 ADD PUSH2 0x1A5 JUMP JUMPDEST SWAP2 POP POP SWAP3 POP SWAP3 POP SWAP3 JUMP JUMPDEST PUSH0 PUSH1 0x20 DUP3 DUP5 SUB SLT ISZERO PUSH2 0x376 JUMPI PUSH2 0x375 PUSH2 0x17E JUMP JUMPDEST JUMPDEST PUSH0 PUSH2 0x383 DUP5 DUP3 DUP6 ADD PUSH2 0x1A5 JUMP JUMPDEST SWAP2 POP POP SWAP3 SWAP2 POP POP JUMP JUMPDEST PUSH0 DUP2 MLOAD SWAP1 POP SWAP2 SWAP1 POP JUMP JUMPDEST PUSH0 DUP3 DUP3 MSTORE PUSH1 0x20 DUP3 ADD SWAP1 POP SWAP3 SWAP2 POP POP JUMP JUMPDEST DUP3 DUP2 DUP4 MCOPY PUSH0 DUP4 DUP4 ADD MSTORE POP POP POP JUMP JUMPDEST PUSH0 PUSH2 0x3BE DUP3 PUSH2 0x38C JUMP JUMPDEST PUSH2 0x3C8 DUP2 DUP6 PUSH2 0x396 JUMP JUMPDEST SWAP4 POP PUSH2 0x3D8 DUP2 DUP6 PUSH1 0x20 DUP7 ADD PUSH2 0x3A6 JUMP JUMPDEST PUSH2 0x3E1 DUP2 PUSH2 0x1C1 JUMP JUMPDEST DUP5 ADD SWAP2 POP POP SWAP3 SWAP2 POP POP JUMP JUMPDEST PUSH2 0x3F5 DUP2 PUSH2 0x186 JUMP JUMPDEST DUP3 MSTORE POP POP JUMP JUMPDEST PUSH0 PUSH1 0x40 DUP3 ADD SWAP1 POP DUP2 DUP2 SUB PUSH0 DUP4 ADD MSTORE PUSH2 0x413 DUP2 DUP6 PUSH2 0x3B4 JUMP JUMPDEST SWAP1 POP PUSH2 0x422 PUSH1 0x20 DUP4 ADD DUP5 PUSH2 0x3EC JUMP JUMPDEST SWAP4 SWAP3 POP POP POP JUMP JUMPDEST PUSH32 0x4E487B7100000000000000000000000000000000000000000000000000000000 PUSH0 MSTORE PUSH1 0x22 PUSH1 0x4 MSTORE PUSH1 0x24 PUSH0 REVERT JUMPDEST PUSH0 PUSH1 0x2 DUP3 DIV SWAP1 POP PUSH1 0x1 DUP3 AND DUP1 PUSH2 0x46D JUMPI PUSH1 0x7F DUP3 AND SWAP2 POP JUMPDEST PUSH1 0x20 DUP3 LT DUP2 SUB PUSH2 0x480 JUMPI PUSH2 0x47F PUSH2 0x429 JUMP JUMPDEST JUMPDEST POP SWAP2 SWAP1 POP JUMP JUMPDEST PUSH0 DUP2 SWAP1 POP DUP2 PUSH0 MSTORE PUSH1 0x20 PUSH0 KECCAK256 SWAP1 POP SWAP2 SWAP1 POP JUMP JUMPDEST PUSH0 PUSH1 0x20 PUSH1 0x1F DUP4 ADD DIV SWAP1 POP SWAP2 SWAP1 POP JUMP JUMPDEST PUSH0 DUP3 DUP3 SHL SWAP1 POP SWAP3 SWAP2 POP POP JUMP JUMPDEST PUSH0 PUSH1 0x8 DUP4 MUL PUSH2 0x4E2 PUSH32 0xFFFFFFFFFFFFFFFFFFFFFFFFFFFFFFFFFFFFFFFFFFFFFFFFFFFFFFFFFFFFFFFF DUP3 PUSH2 0x4A7 JUMP JUMPDEST PUSH2 0x4EC DUP7 DUP4 PUSH2 0x4A7 JUMP JUMPDEST SWAP6 POP DUP1 NOT DUP5 AND SWAP4 POP DUP1 DUP7 AND DUP5 OR SWAP3 POP POP POP SWAP4 SWAP3 POP POP POP JUMP JUMPDEST PUSH0 DUP2 SWAP1 POP SWAP2 SWAP1 POP JUMP JUMPDEST PUSH0 PUSH2 0x527 PUSH2 0x522 PUSH2 0x51D DUP5 PUSH2 0x186 JUMP JUMPDEST PUSH2 0x504 JUMP JUMPDEST PUSH2 0x186 JUMP JUMPDEST SWAP1 POP SWAP2 SWAP1 POP JUMP JUMPDEST PUSH0 DUP2 SWAP1 POP SWAP2 SWAP1 POP JUMP JUMPDEST PUSH2 0x540 DUP4 PUSH2 0x50D JUMP JUMPDEST PUSH2 0x554 PUSH2 0x54C DUP3 PUSH2 0x52E JUMP JUMPDEST DUP5 DUP5 SLOAD PUSH2 0x4B3 JUMP JUMPDEST DUP3 SSTORE POP POP POP POP JUMP JUMPDEST PUSH0 SWAP1 JUMP JUMPDEST PUSH2 0x568 PUSH2 0x55C JUMP JUMPDEST PUSH2 0x573 DUP2 DUP5 DUP5 PUSH2 0x537 JUMP JUMPDEST POP POP POP JUMP JUMPDEST JUMPDEST DUP2 DUP2 LT ISZERO PUSH2 0x596 JUMPI PUSH2 0x58B PUSH0 DUP3 PUSH2 0x560 JUMP JUMPDEST PUSH1 0x1 DUP2 ADD SWAP1 POP PUSH2 0x579 JUMP JUMPDEST POP POP JUMP JUMPDEST PUSH1 0x1F DUP3 GT ISZERO PUSH2 0x5DB JUMPI PUSH2 0x5AC DUP2 PUSH2 0x486 JUMP JUMPDEST PUSH2 0x5B5 DUP5 PUSH2 0x498 JUMP JUMPDEST DUP2 ADD PUSH1 0x20 DUP6 LT ISZERO PUSH2 0x5C4 JUMPI DUP2 SWAP1 POP JUMPDEST PUSH2 0x5D8 PUSH2 0x5D0 DUP6 PUSH2 0x498 JUMP JUMPDEST DUP4 ADD DUP3 PUSH2 0x578 JUMP JUMPDEST POP POP JUMPDEST POP POP POP JUMP JUMPDEST PUSH0 DUP3 DUP3 SHR SWAP1 POP SWAP3 SWAP2 POP POP JUMP JUMPDEST PUSH0 PUSH2 0x5FB PUSH0 NOT DUP5 PUSH1 0x8 MUL PUSH2 0x5E0 JUMP JUMPDEST NOT DUP1 DUP4 AND SWAP2 POP POP SWAP3 SWAP2 POP POP JUMP JUMPDEST PUSH0 PUSH2 0x613 DUP4 DUP4 PUSH2 0x5EC JUMP JUMPDEST SWAP2 POP DUP3 PUSH1 0x2 MUL DUP3 OR SWAP1 POP SWAP3 SWAP2 POP POP JUMP JUMPDEST PUSH2 0x62C DUP3 PUSH2 0x38C JUMP JUMPDEST PUSH8 0xFFFFFFFFFFFFFFFF DUP2 GT ISZERO PUSH2 0x645 JUMPI PUSH2 0x644 PUSH2 0x1D1 JUMP JUMPDEST JUMPDEST PUSH2 0x64F DUP3 SLOAD PUSH2 0x456 JUMP JUMPDEST PUSH2 0x65A DUP3 DUP3 DUP6 PUSH2 0x59A JUMP JUMPDEST PUSH0 PUSH1 0x20 SWAP1 POP PUSH1 0x1F DUP4 GT PUSH1 0x1 DUP2 EQ PUSH2 0x68B JUMPI PUSH0 DUP5 ISZERO PUSH2 0x679 JUMPI DUP3 DUP8 ADD MLOAD SWAP1 POP JUMPDEST PUSH2 0x683 DUP6 DUP3 PUSH2 0x608 JUMP JUMPDEST DUP7 SSTORE POP PUSH2 0x6EA JUMP JUMPDEST PUSH1 0x1F NOT DUP5 AND PUSH2 0x699 DUP7 PUSH2 0x486 JUMP JUMPDEST PUSH0 JUMPDEST DUP3 DUP2 LT ISZERO PUSH2 0x6C0 JUMPI DUP5 DUP10 ADD MLOAD DUP3 SSTORE PUSH1 0x1 DUP3 ADD SWAP2 POP PUSH1 0x20 DUP6 ADD SWAP5 POP PUSH1 0x20 DUP2 ADD SWAP1 POP PUSH2 0x69B JUMP JUMPDEST DUP7 DUP4 LT ISZERO PUSH2 0x6DD JUMPI DUP5 DUP10 ADD MLOAD PUSH2 0x6D9 PUSH1 0x1F DUP10 AND DUP3 PUSH2 0x5EC JUMP JUMPDEST DUP4 SSTORE POP JUMPDEST PUSH1 0x1 PUSH1 0x2 DUP9 MUL ADD DUP9 SSTORE POP POP POP JUMPDEST POP POP POP POP POP POP JUMP INVALID LOG2 PUSH5 0x6970667358 0x22 SLT KECCAK256 0xC8 LOG1 DUP13 MCOPY PUSH23 0x488AA69EE14A5568DEFBFAA1701371B94E32A46CCA78D2 LOG1 ORIGIN 0xB1 BYTE PUSH5 0x736F6C6343 STOP ADDMOD BYTE STOP CALLER "
				},
				"gasEstimates": {
					"creation": {
						"codeDepositCost": "366400",
						"executionCost": "403",
						"totalCost": "366803"
					},
					"external": {
						"data(uint256)": "infinite",
						"setter(uint256,string,uint256)": "infinite"
					}
				},
				"methodIdentifiers": {
					"data(uint256)": "f0ba8440",
					"setter(uint256,string,uint256)": "0c22cf41"
				}
			},
			"storageLayout": {
				"storage": [
					{
						"astId": 11,
						"contract": "four/mappingB.sol:demo",
						"label": "data",
						"offset": 0,
						"slot": "0",
						"type": "t_mapping(t_uint256,t_struct(Student)6_storage)"
					}
				],
				"types": {
					"t_mapping(t_uint256,t_struct(Student)6_storage)": {
						"encoding": "mapping",
						"key": "t_uint256",
						"label": "mapping(uint256 => struct demo.Student)",
						"numberOfBytes": "32",
						"value": "t_struct(Student)6_storage"
					},
					"t_string_storage": {
						"encoding": "bytes",
						"label": "string",
						"numberOfBytes": "32"
					},
					"t_struct(Student)6_storage": {
						"encoding": "inplace",
						"label": "struct demo.Student",
						"members": [
							{
								"astId": 3,
								"contract": "four/mappingB.sol:demo",
								"label": "name",
								"offset": 0,
								"slot": "0",
								"type": "t_string_storage"
							},
							{
								"astId": 5,
								"contract": "four/mappingB.sol:demo",
								"label": "class",
								"offset": 0,
								"slot": "1",
								"type": "t_uint256"
							}
						],
						"numberOfBytes": "64"
					},
					"t_uint256": {
						"encoding": "inplace",
						"label": "uint256",
						"numberOfBytes": "32"
					}
				}
			},
			"userdoc": {
				"kind": "user",
				"methods": {},
				"version": 1
			}
		}
	}
}