{
	"four/mappingA.sol": {
		"demo": {
			"abi": [
				{
					"inputs": [
						{
							"internalType": "uint256",
							"name": "",
							"type": "uint256"
						}
					],
					"name": "rollNumber",
					"outputs": [
						{
							"internalType": "string",
							"name": "",
							"type": "string"
						}
					],
					"stateMutability": "view",
					"type": "function"
				},
				{
					"inputs": [
						{
							"internalType": "uint256",
							"name": "keys",
							"type": "uint256"
						},
						{
							"internalType": "string",
							"name": "value",
							"type": "string"
						}
					],
					"name": "setter",
					"outputs": [],
					"stateMutability": "nonpayable",
					"type": "function"
				}
			],
			"devdoc": {
				"kind": "dev",
				"methods": {},
				"version": 1
			},
			"evm": {
				"assembly": "    /* \"four/mappingA.sol\":88:249  contract demo{... */\n  mstore(0x40, 0x80)\n  callvalue\n  dup1\n  iszero\n  tag_1\n  jumpi\n  0x00\n  dup1\n  revert\ntag_1:\n  pop\n  dataSize(sub_0)\n  dup1\n  dataOffset(sub_0)\n  0x00\n  codecopy\n  0x00\n  return\nstop\n\nsub_0: assembly {\n        /* \"four/mappingA.sol\":88:249  contract demo{... */\n      mstore(0x40, 0x80)\n      callvalue\n      dup1\n      iszero\n      tag_1\n      jumpi\n      0x00\n      dup1\n      revert\n    tag_1:\n      pop\n      jumpi(tag_2, lt(calldatasize, 0x04))\n      shr(0xe0, calldataload(0x00))\n      dup1\n      0xab0cd55c\n      eq\n      tag_3\n      jumpi\n      dup1\n      0xbcb131c9\n      eq\n      tag_4\n      jumpi\n    tag_2:\n      0x00\n      dup1\n      revert\n        /* \"four/mappingA.sol\":107:146  mapping(uint=>string) public rollNumber */\n    tag_3:\n      tag_5\n      0x04\n      dup1\n      calldatasize\n      sub\n      dup2\n      add\n      swap1\n      tag_6\n      swap2\n      swap1\n      tag_7\n      jump\t// in\n    tag_6:\n      tag_8\n      jump\t// in\n    tag_5:\n      mload(0x40)\n      tag_9\n      swap2\n      swap1\n      tag_10\n      jump\t// in\n    tag_9:\n      mload(0x40)\n      dup1\n      swap2\n      sub\n      swap1\n      return\n        /* \"four/mappingA.sol\":153:247  function setter(uint keys, string memory value) public {... */\n    tag_4:\n      tag_11\n      0x04\n      dup1\n      calldatasize\n      sub\n      dup2\n      add\n      swap1\n      tag_12\n      swap2\n      swap1\n      tag_13\n      jump\t// in\n    tag_12:\n      tag_14\n      jump\t// in\n    tag_11:\n      stop\n        /* \"four/mappingA.sol\":107:146  mapping(uint=>string) public rollNumber */\n    tag_8:\n      mstore(0x20, 0x00)\n      dup1\n      0x00\n      mstore\n      keccak256(0x00, 0x40)\n      0x00\n      swap2\n      pop\n      swap1\n      pop\n      dup1\n      sload\n      tag_15\n      swap1\n      tag_16\n      jump\t// in\n    tag_15:\n      dup1\n      0x1f\n      add\n      0x20\n      dup1\n      swap2\n      div\n      mul\n      0x20\n      add\n      mload(0x40)\n      swap1\n      dup2\n      add\n      0x40\n      mstore\n      dup1\n      swap3\n      swap2\n      swap1\n      dup2\n      dup2\n      mstore\n      0x20\n      add\n      dup3\n      dup1\n      sload\n      tag_17\n      swap1\n      tag_16\n      jump\t// in\n    tag_17:\n      dup1\n      iszero\n      tag_18\n      jumpi\n      dup1\n      0x1f\n      lt\n      tag_19\n      jumpi\n      0x0100\n      dup1\n      dup4\n      sload\n      div\n      mul\n      dup4\n      mstore\n      swap2\n      0x20\n      add\n      swap2\n      jump(tag_18)\n    tag_19:\n      dup3\n      add\n      swap2\n      swap1\n      0x00\n      mstore\n      keccak256(0x00, 0x20)\n      swap1\n    tag_20:\n      dup2\n      sload\n      dup2\n      mstore\n      swap1\n      0x01\n      add\n      swap1\n      0x20\n      add\n      dup1\n      dup4\n      gt\n      tag_20\n      jumpi\n      dup3\n      swap1\n      sub\n      0x1f\n      and\n      dup3\n      add\n      swap2\n    tag_18:\n      pop\n      pop\n      pop\n      pop\n      pop\n      dup2\n      jump\t// out\n        /* \"four/mappingA.sol\":153:247  function setter(uint keys, string memory value) public {... */\n    tag_14:\n        /* \"four/mappingA.sol\":235:240  value */\n      dup1\n        /* \"four/mappingA.sol\":218:228  rollNumber */\n      0x00\n        /* \"four/mappingA.sol\":218:234  rollNumber[keys] */\n      dup1\n        /* \"four/mappingA.sol\":229:233  keys */\n      dup5\n        /* \"four/mappingA.sol\":218:234  rollNumber[keys] */\n      dup2\n      mstore\n      0x20\n      add\n      swap1\n      dup2\n      mstore\n      0x20\n      add\n      0x00\n      keccak256\n        /* \"four/mappingA.sol\":218:240  rollNumber[keys]=value */\n      swap1\n      dup2\n      tag_22\n      swap2\n      swap1\n      tag_23\n      jump\t// in\n    tag_22:\n      pop\n        /* \"four/mappingA.sol\":153:247  function setter(uint keys, string memory value) public {... */\n      pop\n      pop\n      jump\t// out\n        /* \"#utility.yul\":7:82   */\n    tag_24:\n        /* \"#utility.yul\":40:46   */\n      0x00\n        /* \"#utility.yul\":73:75   */\n      0x40\n        /* \"#utility.yul\":67:76   */\n      mload\n        /* \"#utility.yul\":57:76   */\n      swap1\n      pop\n        /* \"#utility.yul\":7:82   */\n      swap1\n      jump\t// out\n        /* \"#utility.yul\":88:205   */\n    tag_25:\n        /* \"#utility.yul\":197:198   */\n      0x00\n        /* \"#utility.yul\":194:195   */\n      dup1\n        /* \"#utility.yul\":187:199   */\n      revert\n        /* \"#utility.yul\":211:328   */\n    tag_26:\n        /* \"#utility.yul\":320:321   */\n      0x00\n        /* \"#utility.yul\":317:318   */\n      dup1\n        /* \"#utility.yul\":310:322   */\n      revert\n        /* \"#utility.yul\":334:411   */\n    tag_27:\n        /* \"#utility.yul\":371:378   */\n      0x00\n        /* \"#utility.yul\":400:405   */\n      dup2\n        /* \"#utility.yul\":389:405   */\n      swap1\n      pop\n        /* \"#utility.yul\":334:411   */\n      swap2\n      swap1\n      pop\n      jump\t// out\n        /* \"#utility.yul\":417:539   */\n    tag_28:\n        /* \"#utility.yul\":490:514   */\n      tag_66\n        /* \"#utility.yul\":508:513   */\n      dup2\n        /* \"#utility.yul\":490:514   */\n      tag_27\n      jump\t// in\n    tag_66:\n        /* \"#utility.yul\":483:488   */\n      dup2\n        /* \"#utility.yul\":480:515   */\n      eq\n        /* \"#utility.yul\":470:533   */\n      tag_67\n      jumpi\n        /* \"#utility.yul\":529:530   */\n      0x00\n        /* \"#utility.yul\":526:527   */\n      dup1\n        /* \"#utility.yul\":519:531   */\n      revert\n        /* \"#utility.yul\":470:533   */\n    tag_67:\n        /* \"#utility.yul\":417:539   */\n      pop\n      jump\t// out\n        /* \"#utility.yul\":545:684   */\n    tag_29:\n        /* \"#utility.yul\":591:596   */\n      0x00\n        /* \"#utility.yul\":629:635   */\n      dup2\n        /* \"#utility.yul\":616:636   */\n      calldataload\n        /* \"#utility.yul\":607:636   */\n      swap1\n      pop\n        /* \"#utility.yul\":645:678   */\n      tag_69\n        /* \"#utility.yul\":672:677   */\n      dup2\n        /* \"#utility.yul\":645:678   */\n      tag_28\n      jump\t// in\n    tag_69:\n        /* \"#utility.yul\":545:684   */\n      swap3\n      swap2\n      pop\n      pop\n      jump\t// out\n        /* \"#utility.yul\":690:1019   */\n    tag_7:\n        /* \"#utility.yul\":749:755   */\n      0x00\n        /* \"#utility.yul\":798:800   */\n      0x20\n        /* \"#utility.yul\":786:795   */\n      dup3\n        /* \"#utility.yul\":777:784   */\n      dup5\n        /* \"#utility.yul\":773:796   */\n      sub\n        /* \"#utility.yul\":769:801   */\n      slt\n        /* \"#utility.yul\":766:885   */\n      iszero\n      tag_71\n      jumpi\n        /* \"#utility.yul\":804:883   */\n      tag_72\n      tag_25\n      jump\t// in\n    tag_72:\n        /* \"#utility.yul\":766:885   */\n    tag_71:\n        /* \"#utility.yul\":924:925   */\n      0x00\n        /* \"#utility.yul\":949:1002   */\n      tag_73\n        /* \"#utility.yul\":994:1001   */\n      dup5\n        /* \"#utility.yul\":985:991   */\n      dup3\n        /* \"#utility.yul\":974:983   */\n      dup6\n        /* \"#utility.yul\":970:992   */\n      add\n        /* \"#utility.yul\":949:1002   */\n      tag_29\n      jump\t// in\n    tag_73:\n        /* \"#utility.yul\":939:1002   */\n      swap2\n      pop\n        /* \"#utility.yul\":895:1012   */\n      pop\n        /* \"#utility.yul\":690:1019   */\n      swap3\n      swap2\n      pop\n      pop\n      jump\t// out\n        /* \"#utility.yul\":1025:1124   */\n    tag_30:\n        /* \"#utility.yul\":1077:1083   */\n      0x00\n        /* \"#utility.yul\":1111:1116   */\n      dup2\n        /* \"#utility.yul\":1105:1117   */\n      mload\n        /* \"#utility.yul\":1095:1117   */\n      swap1\n      pop\n        /* \"#utility.yul\":1025:1124   */\n      swap2\n      swap1\n      pop\n      jump\t// out\n        /* \"#utility.yul\":1130:1299   */\n    tag_31:\n        /* \"#utility.yul\":1214:1225   */\n      0x00\n        /* \"#utility.yul\":1248:1254   */\n      dup3\n        /* \"#utility.yul\":1243:1246   */\n      dup3\n        /* \"#utility.yul\":1236:1255   */\n      mstore\n        /* \"#utility.yul\":1288:1292   */\n      0x20\n        /* \"#utility.yul\":1283:1286   */\n      dup3\n        /* \"#utility.yul\":1279:1293   */\n      add\n        /* \"#utility.yul\":1264:1293   */\n      swap1\n      pop\n        /* \"#utility.yul\":1130:1299   */\n      swap3\n      swap2\n      pop\n      pop\n      jump\t// out\n        /* \"#utility.yul\":1305:1444   */\n    tag_32:\n        /* \"#utility.yul\":1394:1400   */\n      dup3\n        /* \"#utility.yul\":1389:1392   */\n      dup2\n        /* \"#utility.yul\":1384:1387   */\n      dup4\n        /* \"#utility.yul\":1378:1401   */\n      mcopy\n        /* \"#utility.yul\":1435:1436   */\n      0x00\n        /* \"#utility.yul\":1426:1432   */\n      dup4\n        /* \"#utility.yul\":1421:1424   */\n      dup4\n        /* \"#utility.yul\":1417:1433   */\n      add\n        /* \"#utility.yul\":1410:1437   */\n      mstore\n        /* \"#utility.yul\":1305:1444   */\n      pop\n      pop\n      pop\n      jump\t// out\n        /* \"#utility.yul\":1450:1552   */\n    tag_33:\n        /* \"#utility.yul\":1491:1497   */\n      0x00\n        /* \"#utility.yul\":1542:1544   */\n      0x1f\n        /* \"#utility.yul\":1538:1545   */\n      not\n        /* \"#utility.yul\":1533:1535   */\n      0x1f\n        /* \"#utility.yul\":1526:1531   */\n      dup4\n        /* \"#utility.yul\":1522:1536   */\n      add\n        /* \"#utility.yul\":1518:1546   */\n      and\n        /* \"#utility.yul\":1508:1546   */\n      swap1\n      pop\n        /* \"#utility.yul\":1450:1552   */\n      swap2\n      swap1\n      pop\n      jump\t// out\n        /* \"#utility.yul\":1558:1935   */\n    tag_34:\n        /* \"#utility.yul\":1646:1649   */\n      0x00\n        /* \"#utility.yul\":1674:1713   */\n      tag_79\n        /* \"#utility.yul\":1707:1712   */\n      dup3\n        /* \"#utility.yul\":1674:1713   */\n      tag_30\n      jump\t// in\n    tag_79:\n        /* \"#utility.yul\":1729:1800   */\n      tag_80\n        /* \"#utility.yul\":1793:1799   */\n      dup2\n        /* \"#utility.yul\":1788:1791   */\n      dup6\n        /* \"#utility.yul\":1729:1800   */\n      tag_31\n      jump\t// in\n    tag_80:\n        /* \"#utility.yul\":1722:1800   */\n      swap4\n      pop\n        /* \"#utility.yul\":1809:1874   */\n      tag_81\n        /* \"#utility.yul\":1867:1873   */\n      dup2\n        /* \"#utility.yul\":1862:1865   */\n      dup6\n        /* \"#utility.yul\":1855:1859   */\n      0x20\n        /* \"#utility.yul\":1848:1853   */\n      dup7\n        /* \"#utility.yul\":1844:1860   */\n      add\n        /* \"#utility.yul\":1809:1874   */\n      tag_32\n      jump\t// in\n    tag_81:\n        /* \"#utility.yul\":1899:1928   */\n      tag_82\n        /* \"#utility.yul\":1921:1927   */\n      dup2\n        /* \"#utility.yul\":1899:1928   */\n      tag_33\n      jump\t// in\n    tag_82:\n        /* \"#utility.yul\":1894:1897   */\n      dup5\n        /* \"#utility.yul\":1890:1929   */\n      add\n        /* \"#utility.yul\":1883:1929   */\n      swap2\n      pop\n        /* \"#utility.yul\":1650:1935   */\n      pop\n        /* \"#utility.yul\":1558:1935   */\n      swap3\n      swap2\n      pop\n      pop\n      jump\t// out\n        /* \"#utility.yul\":1941:2254   */\n    tag_10:\n        /* \"#utility.yul\":2054:2058   */\n      0x00\n        /* \"#utility.yul\":2092:2094   */\n      0x20\n        /* \"#utility.yul\":2081:2090   */\n      dup3\n        /* \"#utility.yul\":2077:2095   */\n      add\n        /* \"#utility.yul\":2069:2095   */\n      swap1\n      pop\n        /* \"#utility.yul\":2141:2150   */\n      dup2\n        /* \"#utility.yul\":2135:2139   */\n      dup2\n        /* \"#utility.yul\":2131:2151   */\n      sub\n        /* \"#utility.yul\":2127:2128   */\n      0x00\n        /* \"#utility.yul\":2116:2125   */\n      dup4\n        /* \"#utility.yul\":2112:2129   */\n      add\n        /* \"#utility.yul\":2105:2152   */\n      mstore\n        /* \"#utility.yul\":2169:2247   */\n      tag_84\n        /* \"#utility.yul\":2242:2246   */\n      dup2\n        /* \"#utility.yul\":2233:2239   */\n      dup5\n        /* \"#utility.yul\":2169:2247   */\n      tag_34\n      jump\t// in\n    tag_84:\n        /* \"#utility.yul\":2161:2247   */\n      swap1\n      pop\n        /* \"#utility.yul\":1941:2254   */\n      swap3\n      swap2\n      pop\n      pop\n      jump\t// out\n        /* \"#utility.yul\":2260:2377   */\n    tag_35:\n        /* \"#utility.yul\":2369:2370   */\n      0x00\n        /* \"#utility.yul\":2366:2367   */\n      dup1\n        /* \"#utility.yul\":2359:2371   */\n      revert\n        /* \"#utility.yul\":2383:2500   */\n    tag_36:\n        /* \"#utility.yul\":2492:2493   */\n      0x00\n        /* \"#utility.yul\":2489:2490   */\n      dup1\n        /* \"#utility.yul\":2482:2494   */\n      revert\n        /* \"#utility.yul\":2506:2686   */\n    tag_37:\n        /* \"#utility.yul\":2554:2631   */\n      0x4e487b7100000000000000000000000000000000000000000000000000000000\n        /* \"#utility.yul\":2551:2552   */\n      0x00\n        /* \"#utility.yul\":2544:2632   */\n      mstore\n        /* \"#utility.yul\":2651:2655   */\n      0x41\n        /* \"#utility.yul\":2648:2649   */\n      0x04\n        /* \"#utility.yul\":2641:2656   */\n      mstore\n        /* \"#utility.yul\":2675:2679   */\n      0x24\n        /* \"#utility.yul\":2672:2673   */\n      0x00\n        /* \"#utility.yul\":2665:2680   */\n      revert\n        /* \"#utility.yul\":2692:2973   */\n    tag_38:\n        /* \"#utility.yul\":2775:2802   */\n      tag_89\n        /* \"#utility.yul\":2797:2801   */\n      dup3\n        /* \"#utility.yul\":2775:2802   */\n      tag_33\n      jump\t// in\n    tag_89:\n        /* \"#utility.yul\":2767:2773   */\n      dup2\n        /* \"#utility.yul\":2763:2803   */\n      add\n        /* \"#utility.yul\":2905:2911   */\n      dup2\n        /* \"#utility.yul\":2893:2903   */\n      dup2\n        /* \"#utility.yul\":2890:2912   */\n      lt\n        /* \"#utility.yul\":2869:2887   */\n      0xffffffffffffffff\n        /* \"#utility.yul\":2857:2867   */\n      dup3\n        /* \"#utility.yul\":2854:2888   */\n      gt\n        /* \"#utility.yul\":2851:2913   */\n      or\n        /* \"#utility.yul\":2848:2936   */\n      iszero\n      tag_90\n      jumpi\n        /* \"#utility.yul\":2916:2934   */\n      tag_91\n      tag_37\n      jump\t// in\n    tag_91:\n        /* \"#utility.yul\":2848:2936   */\n    tag_90:\n        /* \"#utility.yul\":2956:2966   */\n      dup1\n        /* \"#utility.yul\":2952:2954   */\n      0x40\n        /* \"#utility.yul\":2945:2967   */\n      mstore\n        /* \"#utility.yul\":2735:2973   */\n      pop\n        /* \"#utility.yul\":2692:2973   */\n      pop\n      pop\n      jump\t// out\n        /* \"#utility.yul\":2979:3108   */\n    tag_39:\n        /* \"#utility.yul\":3013:3019   */\n      0x00\n        /* \"#utility.yul\":3040:3060   */\n      tag_93\n      tag_24\n      jump\t// in\n    tag_93:\n        /* \"#utility.yul\":3030:3060   */\n      swap1\n      pop\n        /* \"#utility.yul\":3069:3102   */\n      tag_94\n        /* \"#utility.yul\":3097:3101   */\n      dup3\n        /* \"#utility.yul\":3089:3095   */\n      dup3\n        /* \"#utility.yul\":3069:3102   */\n      tag_38\n      jump\t// in\n    tag_94:\n        /* \"#utility.yul\":2979:3108   */\n      swap2\n      swap1\n      pop\n      jump\t// out\n        /* \"#utility.yul\":3114:3422   */\n    tag_40:\n        /* \"#utility.yul\":3176:3180   */\n      0x00\n        /* \"#utility.yul\":3266:3284   */\n      0xffffffffffffffff\n        /* \"#utility.yul\":3258:3264   */\n      dup3\n        /* \"#utility.yul\":3255:3285   */\n      gt\n        /* \"#utility.yul\":3252:3308   */\n      iszero\n      tag_96\n      jumpi\n        /* \"#utility.yul\":3288:3306   */\n      tag_97\n      tag_37\n      jump\t// in\n    tag_97:\n        /* \"#utility.yul\":3252:3308   */\n    tag_96:\n        /* \"#utility.yul\":3326:3355   */\n      tag_98\n        /* \"#utility.yul\":3348:3354   */\n      dup3\n        /* \"#utility.yul\":3326:3355   */\n      tag_33\n      jump\t// in\n    tag_98:\n        /* \"#utility.yul\":3318:3355   */\n      swap1\n      pop\n        /* \"#utility.yul\":3410:3414   */\n      0x20\n        /* \"#utility.yul\":3404:3408   */\n      dup2\n        /* \"#utility.yul\":3400:3415   */\n      add\n        /* \"#utility.yul\":3392:3415   */\n      swap1\n      pop\n        /* \"#utility.yul\":3114:3422   */\n      swap2\n      swap1\n      pop\n      jump\t// out\n        /* \"#utility.yul\":3428:3576   */\n    tag_41:\n        /* \"#utility.yul\":3526:3532   */\n      dup3\n        /* \"#utility.yul\":3521:3524   */\n      dup2\n        /* \"#utility.yul\":3516:3519   */\n      dup4\n        /* \"#utility.yul\":3503:3533   */\n      calldatacopy\n        /* \"#utility.yul\":3567:3568   */\n      0x00\n        /* \"#utility.yul\":3558:3564   */\n      dup4\n        /* \"#utility.yul\":3553:3556   */\n      dup4\n        /* \"#utility.yul\":3549:3565   */\n      add\n        /* \"#utility.yul\":3542:3569   */\n      mstore\n        /* \"#utility.yul\":3428:3576   */\n      pop\n      pop\n      pop\n      jump\t// out\n        /* \"#utility.yul\":3582:4007   */\n    tag_42:\n        /* \"#utility.yul\":3660:3665   */\n      0x00\n        /* \"#utility.yul\":3685:3751   */\n      tag_101\n        /* \"#utility.yul\":3701:3750   */\n      tag_102\n        /* \"#utility.yul\":3743:3749   */\n      dup5\n        /* \"#utility.yul\":3701:3750   */\n      tag_40\n      jump\t// in\n    tag_102:\n        /* \"#utility.yul\":3685:3751   */\n      tag_39\n      jump\t// in\n    tag_101:\n        /* \"#utility.yul\":3676:3751   */\n      swap1\n      pop\n        /* \"#utility.yul\":3774:3780   */\n      dup3\n        /* \"#utility.yul\":3767:3772   */\n      dup2\n        /* \"#utility.yul\":3760:3781   */\n      mstore\n        /* \"#utility.yul\":3812:3816   */\n      0x20\n        /* \"#utility.yul\":3805:3810   */\n      dup2\n        /* \"#utility.yul\":3801:3817   */\n      add\n        /* \"#utility.yul\":3850:3853   */\n      dup5\n        /* \"#utility.yul\":3841:3847   */\n      dup5\n        /* \"#utility.yul\":3836:3839   */\n      dup5\n        /* \"#utility.yul\":3832:3848   */\n      add\n        /* \"#utility.yul\":3829:3854   */\n      gt\n        /* \"#utility.yul\":3826:3938   */\n      iszero\n      tag_103\n      jumpi\n        /* \"#utility.yul\":3857:3936   */\n      tag_104\n      tag_36\n      jump\t// in\n    tag_104:\n        /* \"#utility.yul\":3826:3938   */\n    tag_103:\n        /* \"#utility.yul\":3947:4001   */\n      tag_105\n        /* \"#utility.yul\":3994:4000   */\n      dup5\n        /* \"#utility.yul\":3989:3992   */\n      dup3\n        /* \"#utility.yul\":3984:3987   */\n      dup6\n        /* \"#utility.yul\":3947:4001   */\n      tag_41\n      jump\t// in\n    tag_105:\n        /* \"#utility.yul\":3666:4007   */\n      pop\n        /* \"#utility.yul\":3582:4007   */\n      swap4\n      swap3\n      pop\n      pop\n      pop\n      jump\t// out\n        /* \"#utility.yul\":4027:4367   */\n    tag_43:\n        /* \"#utility.yul\":4083:4088   */\n      0x00\n        /* \"#utility.yul\":4132:4135   */\n      dup3\n        /* \"#utility.yul\":4125:4129   */\n      0x1f\n        /* \"#utility.yul\":4117:4123   */\n      dup4\n        /* \"#utility.yul\":4113:4130   */\n      add\n        /* \"#utility.yul\":4109:4136   */\n      slt\n        /* \"#utility.yul\":4099:4221   */\n      tag_107\n      jumpi\n        /* \"#utility.yul\":4140:4219   */\n      tag_108\n      tag_35\n      jump\t// in\n    tag_108:\n        /* \"#utility.yul\":4099:4221   */\n    tag_107:\n        /* \"#utility.yul\":4257:4263   */\n      dup2\n        /* \"#utility.yul\":4244:4264   */\n      calldataload\n        /* \"#utility.yul\":4282:4361   */\n      tag_109\n        /* \"#utility.yul\":4357:4360   */\n      dup5\n        /* \"#utility.yul\":4349:4355   */\n      dup3\n        /* \"#utility.yul\":4342:4346   */\n      0x20\n        /* \"#utility.yul\":4334:4340   */\n      dup7\n        /* \"#utility.yul\":4330:4347   */\n      add\n        /* \"#utility.yul\":4282:4361   */\n      tag_42\n      jump\t// in\n    tag_109:\n        /* \"#utility.yul\":4273:4361   */\n      swap2\n      pop\n        /* \"#utility.yul\":4089:4367   */\n      pop\n        /* \"#utility.yul\":4027:4367   */\n      swap3\n      swap2\n      pop\n      pop\n      jump\t// out\n        /* \"#utility.yul\":4373:5027   */\n    tag_13:\n        /* \"#utility.yul\":4451:4457   */\n      0x00\n        /* \"#utility.yul\":4459:4465   */\n      dup1\n        /* \"#utility.yul\":4508:4510   */\n      0x40\n        /* \"#utility.yul\":4496:4505   */\n      dup4\n        /* \"#utility.yul\":4487:4494   */\n      dup6\n        /* \"#utility.yul\":4483:4506   */\n      sub\n        /* \"#utility.yul\":4479:4511   */\n      slt\n        /* \"#utility.yul\":4476:4595   */\n      iszero\n      tag_111\n      jumpi\n        /* \"#utility.yul\":4514:4593   */\n      tag_112\n      tag_25\n      jump\t// in\n    tag_112:\n        /* \"#utility.yul\":4476:4595   */\n    tag_111:\n        /* \"#utility.yul\":4634:4635   */\n      0x00\n        /* \"#utility.yul\":4659:4712   */\n      tag_113\n        /* \"#utility.yul\":4704:4711   */\n      dup6\n        /* \"#utility.yul\":4695:4701   */\n      dup3\n        /* \"#utility.yul\":4684:4693   */\n      dup7\n        /* \"#utility.yul\":4680:4702   */\n      add\n        /* \"#utility.yul\":4659:4712   */\n      tag_29\n      jump\t// in\n    tag_113:\n        /* \"#utility.yul\":4649:4712   */\n      swap3\n      pop\n        /* \"#utility.yul\":4605:4722   */\n      pop\n        /* \"#utility.yul\":4789:4791   */\n      0x20\n        /* \"#utility.yul\":4778:4787   */\n      dup4\n        /* \"#utility.yul\":4774:4792   */\n      add\n        /* \"#utility.yul\":4761:4793   */\n      calldataload\n        /* \"#utility.yul\":4820:4838   */\n      0xffffffffffffffff\n        /* \"#utility.yul\":4812:4818   */\n      dup2\n        /* \"#utility.yul\":4809:4839   */\n      gt\n        /* \"#utility.yul\":4806:4923   */\n      iszero\n      tag_114\n      jumpi\n        /* \"#utility.yul\":4842:4921   */\n      tag_115\n      tag_26\n      jump\t// in\n    tag_115:\n        /* \"#utility.yul\":4806:4923   */\n    tag_114:\n        /* \"#utility.yul\":4947:5010   */\n      tag_116\n        /* \"#utility.yul\":5002:5009   */\n      dup6\n        /* \"#utility.yul\":4993:4999   */\n      dup3\n        /* \"#utility.yul\":4982:4991   */\n      dup7\n        /* \"#utility.yul\":4978:5000   */\n      add\n        /* \"#utility.yul\":4947:5010   */\n      tag_43\n      jump\t// in\n    tag_116:\n        /* \"#utility.yul\":4937:5010   */\n      swap2\n      pop\n        /* \"#utility.yul\":4732:5020   */\n      pop\n        /* \"#utility.yul\":4373:5027   */\n      swap3\n      pop\n      swap3\n      swap1\n      pop\n      jump\t// out\n        /* \"#utility.yul\":5033:5213   */\n    tag_44:\n        /* \"#utility.yul\":5081:5158   */\n      0x4e487b7100000000000000000000000000000000000000000000000000000000\n        /* \"#utility.yul\":5078:5079   */\n      0x00\n        /* \"#utility.yul\":5071:5159   */\n      mstore\n        /* \"#utility.yul\":5178:5182   */\n      0x22\n        /* \"#utility.yul\":5175:5176   */\n      0x04\n        /* \"#utility.yul\":5168:5183   */\n      mstore\n        /* \"#utility.yul\":5202:5206   */\n      0x24\n        /* \"#utility.yul\":5199:5200   */\n      0x00\n        /* \"#utility.yul\":5192:5207   */\n      revert\n        /* \"#utility.yul\":5219:5539   */\n    tag_16:\n        /* \"#utility.yul\":5263:5269   */\n      0x00\n        /* \"#utility.yul\":5300:5301   */\n      0x02\n        /* \"#utility.yul\":5294:5298   */\n      dup3\n        /* \"#utility.yul\":5290:5302   */\n      div\n        /* \"#utility.yul\":5280:5302   */\n      swap1\n      pop\n        /* \"#utility.yul\":5347:5348   */\n      0x01\n        /* \"#utility.yul\":5341:5345   */\n      dup3\n        /* \"#utility.yul\":5337:5349   */\n      and\n        /* \"#utility.yul\":5368:5386   */\n      dup1\n        /* \"#utility.yul\":5358:5439   */\n      tag_119\n      jumpi\n        /* \"#utility.yul\":5424:5428   */\n      0x7f\n        /* \"#utility.yul\":5416:5422   */\n      dup3\n        /* \"#utility.yul\":5412:5429   */\n      and\n        /* \"#utility.yul\":5402:5429   */\n      swap2\n      pop\n        /* \"#utility.yul\":5358:5439   */\n    tag_119:\n        /* \"#utility.yul\":5486:5488   */\n      0x20\n        /* \"#utility.yul\":5478:5484   */\n      dup3\n        /* \"#utility.yul\":5475:5489   */\n      lt\n        /* \"#utility.yul\":5455:5473   */\n      dup2\n        /* \"#utility.yul\":5452:5490   */\n      sub\n        /* \"#utility.yul\":5449:5533   */\n      tag_120\n      jumpi\n        /* \"#utility.yul\":5505:5523   */\n      tag_121\n      tag_44\n      jump\t// in\n    tag_121:\n        /* \"#utility.yul\":5449:5533   */\n    tag_120:\n        /* \"#utility.yul\":5270:5539   */\n      pop\n        /* \"#utility.yul\":5219:5539   */\n      swap2\n      swap1\n      pop\n      jump\t// out\n        /* \"#utility.yul\":5545:5686   */\n    tag_45:\n        /* \"#utility.yul\":5594:5598   */\n      0x00\n        /* \"#utility.yul\":5617:5620   */\n      dup2\n        /* \"#utility.yul\":5609:5620   */\n      swap1\n      pop\n        /* \"#utility.yul\":5640:5643   */\n      dup2\n        /* \"#utility.yul\":5637:5638   */\n      0x00\n        /* \"#utility.yul\":5630:5644   */\n      mstore\n        /* \"#utility.yul\":5674:5678   */\n      0x20\n        /* \"#utility.yul\":5671:5672   */\n      0x00\n        /* \"#utility.yul\":5661:5679   */\n      keccak256\n        /* \"#utility.yul\":5653:5679   */\n      swap1\n      pop\n        /* \"#utility.yul\":5545:5686   */\n      swap2\n      swap1\n      pop\n      jump\t// out\n        /* \"#utility.yul\":5692:5785   */\n    tag_46:\n        /* \"#utility.yul\":5729:5735   */\n      0x00\n        /* \"#utility.yul\":5776:5778   */\n      0x20\n        /* \"#utility.yul\":5771:5773   */\n      0x1f\n        /* \"#utility.yul\":5764:5769   */\n      dup4\n        /* \"#utility.yul\":5760:5774   */\n      add\n        /* \"#utility.yul\":5756:5779   */\n      div\n        /* \"#utility.yul\":5746:5779   */\n      swap1\n      pop\n        /* \"#utility.yul\":5692:5785   */\n      swap2\n      swap1\n      pop\n      jump\t// out\n        /* \"#utility.yul\":5791:5898   */\n    tag_47:\n        /* \"#utility.yul\":5835:5843   */\n      0x00\n        /* \"#utility.yul\":5885:5890   */\n      dup3\n        /* \"#utility.yul\":5879:5883   */\n      dup3\n        /* \"#utility.yul\":5875:5891   */\n      shl\n        /* \"#utility.yul\":5854:5891   */\n      swap1\n      pop\n        /* \"#utility.yul\":5791:5898   */\n      swap3\n      swap2\n      pop\n      pop\n      jump\t// out\n        /* \"#utility.yul\":5904:6297   */\n    tag_48:\n        /* \"#utility.yul\":5973:5979   */\n      0x00\n        /* \"#utility.yul\":6023:6024   */\n      0x08\n        /* \"#utility.yul\":6011:6021   */\n      dup4\n        /* \"#utility.yul\":6007:6025   */\n      mul\n        /* \"#utility.yul\":6046:6143   */\n      tag_126\n        /* \"#utility.yul\":6076:6142   */\n      0xffffffffffffffffffffffffffffffffffffffffffffffffffffffffffffffff\n        /* \"#utility.yul\":6065:6074   */\n      dup3\n        /* \"#utility.yul\":6046:6143   */\n      tag_47\n      jump\t// in\n    tag_126:\n        /* \"#utility.yul\":6164:6203   */\n      tag_127\n        /* \"#utility.yul\":6194:6202   */\n      dup7\n        /* \"#utility.yul\":6183:6192   */\n      dup4\n        /* \"#utility.yul\":6164:6203   */\n      tag_47\n      jump\t// in\n    tag_127:\n        /* \"#utility.yul\":6152:6203   */\n      swap6\n      pop\n        /* \"#utility.yul\":6236:6240   */\n      dup1\n        /* \"#utility.yul\":6232:6241   */\n      not\n        /* \"#utility.yul\":6225:6230   */\n      dup5\n        /* \"#utility.yul\":6221:6242   */\n      and\n        /* \"#utility.yul\":6212:6242   */\n      swap4\n      pop\n        /* \"#utility.yul\":6285:6289   */\n      dup1\n        /* \"#utility.yul\":6275:6283   */\n      dup7\n        /* \"#utility.yul\":6271:6290   */\n      and\n        /* \"#utility.yul\":6264:6269   */\n      dup5\n        /* \"#utility.yul\":6261:6291   */\n      or\n        /* \"#utility.yul\":6251:6291   */\n      swap3\n      pop\n        /* \"#utility.yul\":5980:6297   */\n      pop\n      pop\n        /* \"#utility.yul\":5904:6297   */\n      swap4\n      swap3\n      pop\n      pop\n      pop\n      jump\t// out\n        /* \"#utility.yul\":6303:6363   */\n    tag_49:\n        /* \"#utility.yul\":6331:6334   */\n      0x00\n        /* \"#utility.yul\":6352:6357   */\n      dup2\n        /* \"#utility.yul\":6345:6357   */\n      swap1\n      pop\n        /* \"#utility.yul\":6303:6363   */\n      swap2\n      swap1\n      pop\n      jump\t// out\n        /* \"#utility.yul\":6369:6511   */\n    tag_50:\n        /* \"#utility.yul\":6419:6428   */\n      0x00\n        /* \"#utility.yul\":6452:6505   */\n      tag_130\n        /* \"#utility.yul\":6470:6504   */\n      tag_131\n        /* \"#utility.yul\":6479:6503   */\n      tag_132\n        /* \"#utility.yul\":6497:6502   */\n      dup5\n        /* \"#utility.yul\":6479:6503   */\n      tag_27\n      jump\t// in\n    tag_132:\n        /* \"#utility.yul\":6470:6504   */\n      tag_49\n      jump\t// in\n    tag_131:\n        /* \"#utility.yul\":6452:6505   */\n      tag_27\n      jump\t// in\n    tag_130:\n        /* \"#utility.yul\":6439:6505   */\n      swap1\n      pop\n        /* \"#utility.yul\":6369:6511   */\n      swap2\n      swap1\n      pop\n      jump\t// out\n        /* \"#utility.yul\":6517:6592   */\n    tag_51:\n        /* \"#utility.yul\":6560:6563   */\n      0x00\n        /* \"#utility.yul\":6581:6586   */\n      dup2\n        /* \"#utility.yul\":6574:6586   */\n      swap1\n      pop\n        /* \"#utility.yul\":6517:6592   */\n      swap2\n      swap1\n      pop\n      jump\t// out\n        /* \"#utility.yul\":6598:6867   */\n    tag_52:\n        /* \"#utility.yul\":6708:6747   */\n      tag_135\n        /* \"#utility.yul\":6739:6746   */\n      dup4\n        /* \"#utility.yul\":6708:6747   */\n      tag_50\n      jump\t// in\n    tag_135:\n        /* \"#utility.yul\":6769:6860   */\n      tag_136\n        /* \"#utility.yul\":6818:6859   */\n      tag_137\n        /* \"#utility.yul\":6842:6858   */\n      dup3\n        /* \"#utility.yul\":6818:6859   */\n      tag_51\n      jump\t// in\n    tag_137:\n        /* \"#utility.yul\":6810:6816   */\n      dup5\n        /* \"#utility.yul\":6803:6807   */\n      dup5\n        /* \"#utility.yul\":6797:6808   */\n      sload\n        /* \"#utility.yul\":6769:6860   */\n      tag_48\n      jump\t// in\n    tag_136:\n        /* \"#utility.yul\":6763:6767   */\n      dup3\n        /* \"#utility.yul\":6756:6861   */\n      sstore\n        /* \"#utility.yul\":6674:6867   */\n      pop\n        /* \"#utility.yul\":6598:6867   */\n      pop\n      pop\n      pop\n      jump\t// out\n        /* \"#utility.yul\":6873:6946   */\n    tag_53:\n        /* \"#utility.yul\":6918:6921   */\n      0x00\n        /* \"#utility.yul\":6873:6946   */\n      swap1\n      jump\t// out\n        /* \"#utility.yul\":6952:7141   */\n    tag_54:\n        /* \"#utility.yul\":7029:7061   */\n      tag_140\n      tag_53\n      jump\t// in\n    tag_140:\n        /* \"#utility.yul\":7070:7135   */\n      tag_141\n        /* \"#utility.yul\":7128:7134   */\n      dup2\n        /* \"#utility.yul\":7120:7126   */\n      dup5\n        /* \"#utility.yul\":7114:7118   */\n      dup5\n        /* \"#utility.yul\":7070:7135   */\n      tag_52\n      jump\t// in\n    tag_141:\n        /* \"#utility.yul\":7005:7141   */\n      pop\n        /* \"#utility.yul\":6952:7141   */\n      pop\n      pop\n      jump\t// out\n        /* \"#utility.yul\":7147:7333   */\n    tag_55:\n        /* \"#utility.yul\":7207:7327   */\n    tag_143:\n        /* \"#utility.yul\":7224:7227   */\n      dup2\n        /* \"#utility.yul\":7217:7222   */\n      dup2\n        /* \"#utility.yul\":7214:7228   */\n      lt\n        /* \"#utility.yul\":7207:7327   */\n      iszero\n      tag_145\n      jumpi\n        /* \"#utility.yul\":7278:7317   */\n      tag_146\n        /* \"#utility.yul\":7315:7316   */\n      0x00\n        /* \"#utility.yul\":7308:7313   */\n      dup3\n        /* \"#utility.yul\":7278:7317   */\n      tag_54\n      jump\t// in\n    tag_146:\n        /* \"#utility.yul\":7251:7252   */\n      0x01\n        /* \"#utility.yul\":7244:7249   */\n      dup2\n        /* \"#utility.yul\":7240:7253   */\n      add\n        /* \"#utility.yul\":7231:7253   */\n      swap1\n      pop\n        /* \"#utility.yul\":7207:7327   */\n      jump(tag_143)\n    tag_145:\n        /* \"#utility.yul\":7147:7333   */\n      pop\n      pop\n      jump\t// out\n        /* \"#utility.yul\":7339:7882   */\n    tag_56:\n        /* \"#utility.yul\":7440:7442   */\n      0x1f\n        /* \"#utility.yul\":7435:7438   */\n      dup3\n        /* \"#utility.yul\":7432:7443   */\n      gt\n        /* \"#utility.yul\":7429:7875   */\n      iszero\n      tag_148\n      jumpi\n        /* \"#utility.yul\":7474:7512   */\n      tag_149\n        /* \"#utility.yul\":7506:7511   */\n      dup2\n        /* \"#utility.yul\":7474:7512   */\n      tag_45\n      jump\t// in\n    tag_149:\n        /* \"#utility.yul\":7558:7587   */\n      tag_150\n        /* \"#utility.yul\":7576:7586   */\n      dup5\n        /* \"#utility.yul\":7558:7587   */\n      tag_46\n      jump\t// in\n    tag_150:\n        /* \"#utility.yul\":7548:7556   */\n      dup2\n        /* \"#utility.yul\":7544:7588   */\n      add\n        /* \"#utility.yul\":7741:7743   */\n      0x20\n        /* \"#utility.yul\":7729:7739   */\n      dup6\n        /* \"#utility.yul\":7726:7744   */\n      lt\n        /* \"#utility.yul\":7723:7772   */\n      iszero\n      tag_151\n      jumpi\n        /* \"#utility.yul\":7762:7770   */\n      dup2\n        /* \"#utility.yul\":7747:7770   */\n      swap1\n      pop\n        /* \"#utility.yul\":7723:7772   */\n    tag_151:\n        /* \"#utility.yul\":7785:7865   */\n      tag_152\n        /* \"#utility.yul\":7841:7863   */\n      tag_153\n        /* \"#utility.yul\":7859:7862   */\n      dup6\n        /* \"#utility.yul\":7841:7863   */\n      tag_46\n      jump\t// in\n    tag_153:\n        /* \"#utility.yul\":7831:7839   */\n      dup4\n        /* \"#utility.yul\":7827:7864   */\n      add\n        /* \"#utility.yul\":7814:7825   */\n      dup3\n        /* \"#utility.yul\":7785:7865   */\n      tag_55\n      jump\t// in\n    tag_152:\n        /* \"#utility.yul\":7444:7875   */\n      pop\n      pop\n        /* \"#utility.yul\":7429:7875   */\n    tag_148:\n        /* \"#utility.yul\":7339:7882   */\n      pop\n      pop\n      pop\n      jump\t// out\n        /* \"#utility.yul\":7888:8005   */\n    tag_57:\n        /* \"#utility.yul\":7942:7950   */\n      0x00\n        /* \"#utility.yul\":7992:7997   */\n      dup3\n        /* \"#utility.yul\":7986:7990   */\n      dup3\n        /* \"#utility.yul\":7982:7998   */\n      shr\n        /* \"#utility.yul\":7961:7998   */\n      swap1\n      pop\n        /* \"#utility.yul\":7888:8005   */\n      swap3\n      swap2\n      pop\n      pop\n      jump\t// out\n        /* \"#utility.yul\":8011:8180   */\n    tag_58:\n        /* \"#utility.yul\":8055:8061   */\n      0x00\n        /* \"#utility.yul\":8088:8139   */\n      tag_156\n        /* \"#utility.yul\":8136:8137   */\n      0x00\n        /* \"#utility.yul\":8132:8138   */\n      not\n        /* \"#utility.yul\":8124:8129   */\n      dup5\n        /* \"#utility.yul\":8121:8122   */\n      0x08\n        /* \"#utility.yul\":8117:8130   */\n      mul\n        /* \"#utility.yul\":8088:8139   */\n      tag_57\n      jump\t// in\n    tag_156:\n        /* \"#utility.yul\":8084:8140   */\n      not\n        /* \"#utility.yul\":8169:8173   */\n      dup1\n        /* \"#utility.yul\":8163:8167   */\n      dup4\n        /* \"#utility.yul\":8159:8174   */\n      and\n        /* \"#utility.yul\":8149:8174   */\n      swap2\n      pop\n        /* \"#utility.yul\":8062:8180   */\n      pop\n        /* \"#utility.yul\":8011:8180   */\n      swap3\n      swap2\n      pop\n      pop\n      jump\t// out\n        /* \"#utility.yul\":8185:8480   */\n    tag_59:\n        /* \"#utility.yul\":8261:8265   */\n      0x00\n        /* \"#utility.yul\":8407:8436   */\n      tag_158\n        /* \"#utility.yul\":8432:8435   */\n      dup4\n        /* \"#utility.yul\":8426:8430   */\n      dup4\n        /* \"#utility.yul\":8407:8436   */\n      tag_58\n      jump\t// in\n    tag_158:\n        /* \"#utility.yul\":8399:8436   */\n      swap2\n      pop\n        /* \"#utility.yul\":8469:8472   */\n      dup3\n        /* \"#utility.yul\":8466:8467   */\n      0x02\n        /* \"#utility.yul\":8462:8473   */\n      mul\n        /* \"#utility.yul\":8456:8460   */\n      dup3\n        /* \"#utility.yul\":8453:8474   */\n      or\n        /* \"#utility.yul\":8445:8474   */\n      swap1\n      pop\n        /* \"#utility.yul\":8185:8480   */\n      swap3\n      swap2\n      pop\n      pop\n      jump\t// out\n        /* \"#utility.yul\":8485:9880   */\n    tag_23:\n        /* \"#utility.yul\":8602:8639   */\n      tag_160\n        /* \"#utility.yul\":8635:8638   */\n      dup3\n        /* \"#utility.yul\":8602:8639   */\n      tag_30\n      jump\t// in\n    tag_160:\n        /* \"#utility.yul\":8704:8722   */\n      0xffffffffffffffff\n        /* \"#utility.yul\":8696:8702   */\n      dup2\n        /* \"#utility.yul\":8693:8723   */\n      gt\n        /* \"#utility.yul\":8690:8746   */\n      iszero\n      tag_161\n      jumpi\n        /* \"#utility.yul\":8726:8744   */\n      tag_162\n      tag_37\n      jump\t// in\n    tag_162:\n        /* \"#utility.yul\":8690:8746   */\n    tag_161:\n        /* \"#utility.yul\":8770:8808   */\n      tag_163\n        /* \"#utility.yul\":8802:8806   */\n      dup3\n        /* \"#utility.yul\":8796:8807   */\n      sload\n        /* \"#utility.yul\":8770:8808   */\n      tag_16\n      jump\t// in\n    tag_163:\n        /* \"#utility.yul\":8855:8922   */\n      tag_164\n        /* \"#utility.yul\":8915:8921   */\n      dup3\n        /* \"#utility.yul\":8907:8913   */\n      dup3\n        /* \"#utility.yul\":8901:8905   */\n      dup6\n        /* \"#utility.yul\":8855:8922   */\n      tag_56\n      jump\t// in\n    tag_164:\n        /* \"#utility.yul\":8949:8950   */\n      0x00\n        /* \"#utility.yul\":8973:8977   */\n      0x20\n        /* \"#utility.yul\":8960:8977   */\n      swap1\n      pop\n        /* \"#utility.yul\":9005:9007   */\n      0x1f\n        /* \"#utility.yul\":8997:9003   */\n      dup4\n        /* \"#utility.yul\":8994:9008   */\n      gt\n        /* \"#utility.yul\":9022:9023   */\n      0x01\n        /* \"#utility.yul\":9017:9635   */\n      dup2\n      eq\n      tag_166\n      jumpi\n        /* \"#utility.yul\":9679:9680   */\n      0x00\n        /* \"#utility.yul\":9696:9702   */\n      dup5\n        /* \"#utility.yul\":9693:9770   */\n      iszero\n      tag_167\n      jumpi\n        /* \"#utility.yul\":9745:9754   */\n      dup3\n        /* \"#utility.yul\":9740:9743   */\n      dup8\n        /* \"#utility.yul\":9736:9755   */\n      add\n        /* \"#utility.yul\":9730:9756   */\n      mload\n        /* \"#utility.yul\":9721:9756   */\n      swap1\n      pop\n        /* \"#utility.yul\":9693:9770   */\n    tag_167:\n        /* \"#utility.yul\":9796:9863   */\n      tag_168\n        /* \"#utility.yul\":9856:9862   */\n      dup6\n        /* \"#utility.yul\":9849:9854   */\n      dup3\n        /* \"#utility.yul\":9796:9863   */\n      tag_59\n      jump\t// in\n    tag_168:\n        /* \"#utility.yul\":9790:9794   */\n      dup7\n        /* \"#utility.yul\":9783:9864   */\n      sstore\n        /* \"#utility.yul\":9652:9874   */\n      pop\n        /* \"#utility.yul\":8987:9874   */\n      jump(tag_165)\n        /* \"#utility.yul\":9017:9635   */\n    tag_166:\n        /* \"#utility.yul\":9069:9073   */\n      0x1f\n        /* \"#utility.yul\":9065:9074   */\n      not\n        /* \"#utility.yul\":9057:9063   */\n      dup5\n        /* \"#utility.yul\":9053:9075   */\n      and\n        /* \"#utility.yul\":9103:9140   */\n      tag_169\n        /* \"#utility.yul\":9135:9139   */\n      dup7\n        /* \"#utility.yul\":9103:9140   */\n      tag_45\n      jump\t// in\n    tag_169:\n        /* \"#utility.yul\":9162:9163   */\n      0x00\n        /* \"#utility.yul\":9176:9384   */\n    tag_170:\n        /* \"#utility.yul\":9190:9197   */\n      dup3\n        /* \"#utility.yul\":9187:9188   */\n      dup2\n        /* \"#utility.yul\":9184:9198   */\n      lt\n        /* \"#utility.yul\":9176:9384   */\n      iszero\n      tag_172\n      jumpi\n        /* \"#utility.yul\":9269:9278   */\n      dup5\n        /* \"#utility.yul\":9264:9267   */\n      dup10\n        /* \"#utility.yul\":9260:9279   */\n      add\n        /* \"#utility.yul\":9254:9280   */\n      mload\n        /* \"#utility.yul\":9246:9252   */\n      dup3\n        /* \"#utility.yul\":9239:9281   */\n      sstore\n        /* \"#utility.yul\":9320:9321   */\n      0x01\n        /* \"#utility.yul\":9312:9318   */\n      dup3\n        /* \"#utility.yul\":9308:9322   */\n      add\n        /* \"#utility.yul\":9298:9322   */\n      swap2\n      pop\n        /* \"#utility.yul\":9367:9369   */\n      0x20\n        /* \"#utility.yul\":9356:9365   */\n      dup6\n        /* \"#utility.yul\":9352:9370   */\n      add\n        /* \"#utility.yul\":9339:9370   */\n      swap5\n      pop\n        /* \"#utility.yul\":9213:9217   */\n      0x20\n        /* \"#utility.yul\":9210:9211   */\n      dup2\n        /* \"#utility.yul\":9206:9218   */\n      add\n        /* \"#utility.yul\":9201:9218   */\n      swap1\n      pop\n        /* \"#utility.yul\":9176:9384   */\n      jump(tag_170)\n    tag_172:\n        /* \"#utility.yul\":9412:9418   */\n      dup7\n        /* \"#utility.yul\":9403:9410   */\n      dup4\n        /* \"#utility.yul\":9400:9419   */\n      lt\n        /* \"#utility.yul\":9397:9576   */\n      iszero\n      tag_173\n      jumpi\n        /* \"#utility.yul\":9470:9479   */\n      dup5\n        /* \"#utility.yul\":9465:9468   */\n      dup10\n        /* \"#utility.yul\":9461:9480   */\n      add\n        /* \"#utility.yul\":9455:9481   */\n      mload\n        /* \"#utility.yul\":9513:9561   */\n      tag_174\n        /* \"#utility.yul\":9555:9559   */\n      0x1f\n        /* \"#utility.yul\":9547:9553   */\n      dup10\n        /* \"#utility.yul\":9543:9560   */\n      and\n        /* \"#utility.yul\":9532:9541   */\n      dup3\n        /* \"#utility.yul\":9513:9561   */\n      tag_58\n      jump\t// in\n    tag_174:\n        /* \"#utility.yul\":9505:9511   */\n      dup4\n        /* \"#utility.yul\":9498:9562   */\n      sstore\n        /* \"#utility.yul\":9420:9576   */\n      pop\n        /* \"#utility.yul\":9397:9576   */\n    tag_173:\n        /* \"#utility.yul\":9622:9623   */\n      0x01\n        /* \"#utility.yul\":9618:9619   */\n      0x02\n        /* \"#utility.yul\":9610:9616   */\n      dup9\n        /* \"#utility.yul\":9606:9620   */\n      mul\n        /* \"#utility.yul\":9602:9624   */\n      add\n        /* \"#utility.yul\":9596:9600   */\n      dup9\n        /* \"#utility.yul\":9589:9625   */\n      sstore\n        /* \"#utility.yul\":9024:9635   */\n      pop\n      pop\n      pop\n        /* \"#utility.yul\":8987:9874   */\n    tag_165:\n      pop\n        /* \"#utility.yul\":8577:9880   */\n      pop\n      pop\n      pop\n        /* \"#utility.yul\":8485:9880   */\n      pop\n      pop\n      jump\t// out\n\n    auxdata: 0xa2646970667358221220bbd91db4d24a12f1a8574690b324731fd251a358c58ce1000756268fbd19b8dc64736f6c634300081a0033\n}\n",
				"bytecode": {
					"linkReferences": {},
					"object": "6080604052348015600e575f80fd5b506106c48061001c5f395ff3fe608060405234801561000f575f80fd5b5060043610610034575f3560e01c8063ab0cd55c14610038578063bcb131c914610068575b5f80fd5b610052600480360381019061004d9190610184565b610084565b60405161005f919061021f565b60405180910390f35b610082600480360381019061007d919061036b565b61011e565b005b5f602052805f5260405f205f91509050805461009f906103f2565b80601f01602080910402602001604051908101604052809291908181526020018280546100cb906103f2565b80156101165780601f106100ed57610100808354040283529160200191610116565b820191905f5260205f20905b8154815290600101906020018083116100f957829003601f168201915b505050505081565b805f808481526020019081526020015f20908161013b91906105bf565b505050565b5f604051905090565b5f80fd5b5f80fd5b5f819050919050565b61016381610151565b811461016d575f80fd5b50565b5f8135905061017e8161015a565b92915050565b5f6020828403121561019957610198610149565b5b5f6101a684828501610170565b91505092915050565b5f81519050919050565b5f82825260208201905092915050565b8281835e5f83830152505050565b5f601f19601f8301169050919050565b5f6101f1826101af565b6101fb81856101b9565b935061020b8185602086016101c9565b610214816101d7565b840191505092915050565b5f6020820190508181035f83015261023781846101e7565b905092915050565b5f80fd5b5f80fd5b7f4e487b71000000000000000000000000000000000000000000000000000000005f52604160045260245ffd5b61027d826101d7565b810181811067ffffffffffffffff8211171561029c5761029b610247565b5b80604052505050565b5f6102ae610140565b90506102ba8282610274565b919050565b5f67ffffffffffffffff8211156102d9576102d8610247565b5b6102e2826101d7565b9050602081019050919050565b828183375f83830152505050565b5f61030f61030a846102bf565b6102a5565b90508281526020810184848401111561032b5761032a610243565b5b6103368482856102ef565b509392505050565b5f82601f8301126103525761035161023f565b5b81356103628482602086016102fd565b91505092915050565b5f806040838503121561038157610380610149565b5b5f61038e85828601610170565b925050602083013567ffffffffffffffff8111156103af576103ae61014d565b5b6103bb8582860161033e565b9150509250929050565b7f4e487b71000000000000000000000000000000000000000000000000000000005f52602260045260245ffd5b5f600282049050600182168061040957607f821691505b60208210810361041c5761041b6103c5565b5b50919050565b5f819050815f5260205f209050919050565b5f6020601f8301049050919050565b5f82821b905092915050565b5f6008830261047e7fffffffffffffffffffffffffffffffffffffffffffffffffffffffffffffffff82610443565b6104888683610443565b95508019841693508086168417925050509392505050565b5f819050919050565b5f6104c36104be6104b984610151565b6104a0565b610151565b9050919050565b5f819050919050565b6104dc836104a9565b6104f06104e8826104ca565b84845461044f565b825550505050565b5f90565b6105046104f8565b61050f8184846104d3565b505050565b5b81811015610532576105275f826104fc565b600181019050610515565b5050565b601f8211156105775761054881610422565b61055184610434565b81016020851015610560578190505b61057461056c85610434565b830182610514565b50505b505050565b5f82821c905092915050565b5f6105975f198460080261057c565b1980831691505092915050565b5f6105af8383610588565b9150826002028217905092915050565b6105c8826101af565b67ffffffffffffffff8111156105e1576105e0610247565b5b6105eb82546103f2565b6105f6828285610536565b5f60209050601f831160018114610627575f8415610615578287015190505b61061f85826105a4565b865550610686565b601f19841661063586610422565b5f5b8281101561065c57848901518255600182019150602085019450602081019050610637565b868310156106795784890151610675601f891682610588565b8355505b6001600288020188555050505b50505050505056fea2646970667358221220bbd91db4d24a12f1a8574690b324731fd251a358c58ce1000756268fbd19b8dc64736f6c634300081a0033",
					"opcodes": "PUSH1 0x80 PUSH1 0x40 MSTORE CALLVALUE DUP1 ISZERO PUSH1 0xE JUMPI PUSH0 DUP1 REVERT JUMPDEST POP PUSH2 0x6C4 DUP1 PUSH2 0x1C PUSH0 CODECOPY PUSH0 RETURN INVALID PUSH1 0x80 PUSH1 0x40 MSTORE CALLVALUE DUP1 ISZERO PUSH2 0xF JUMPI PUSH0 DUP1 REVERT JUMPDEST POP PUSH1 0x4 CALLDATASIZE LT PUSH2 0x34 JUMPI PUSH0 CALLDATALOAD PUSH1 0xE0 SHR DUP1 PUSH4 0xAB0CD55C EQ PUSH2 0x38 JUMPI DUP1 PUSH4 0xBCB131C9 EQ PUSH2 0x68 JUMPI JUMPDEST PUSH0 DUP1 REVERT JUMPDEST PUSH2 0x52 PUSH1 0x4 DUP1 CALLDATASIZE SUB DUP2 ADD SWAP1 PUSH2 0x4D SWAP2 SWAP1 PUSH2 0x184 JUMP JUMPDEST PUSH2 0x84 JUMP JUMPDEST PUSH1 0x40 MLOAD PUSH2 0x5F SWAP2 SWAP1 PUSH2 0x21F JUMP JUMPDEST PUSH1 0x40 MLOAD DUP1 SWAP2 SUB SWAP1 RETURN JUMPDEST PUSH2 0x82 PUSH1 0x4 DUP1 CALLDATASIZE SUB DUP2 ADD SWAP1 PUSH2 0x7D SWAP2 SWAP1 PUSH2 0x36B JUMP JUMPDEST PUSH2 0x11E JUMP JUMPDEST STOP JUMPDEST PUSH0 PUSH1 0x20 MSTORE DUP1 PUSH0 MSTORE PUSH1 0x40 PUSH0 KECCAK256 PUSH0 SWAP2 POP SWAP1 POP DUP1 SLOAD PUSH2 0x9F SWAP1 PUSH2 0x3F2 JUMP JUMPDEST DUP1 PUSH1 0x1F ADD PUSH1 0x20 DUP1 SWAP2 DIV MUL PUSH1 0x20 ADD PUSH1 0x40 MLOAD SWAP1 DUP2 ADD PUSH1 0x40 MSTORE DUP1 SWAP3 SWAP2 SWAP1 DUP2 DUP2 MSTORE PUSH1 0x20 ADD DUP3 DUP1 SLOAD PUSH2 0xCB SWAP1 PUSH2 0x3F2 JUMP JUMPDEST DUP1 ISZERO PUSH2 0x116 JUMPI DUP1 PUSH1 0x1F LT PUSH2 0xED JUMPI PUSH2 0x100 DUP1 DUP4 SLOAD DIV MUL DUP4 MSTORE SWAP2 PUSH1 0x20 ADD SWAP2 PUSH2 0x116 JUMP JUMPDEST DUP3 ADD SWAP2 SWAP1 PUSH0 MSTORE PUSH1 0x20 PUSH0 KECCAK256 SWAP1 JUMPDEST DUP2 SLOAD DUP2 MSTORE SWAP1 PUSH1 0x1 ADD SWAP1 PUSH1 0x20 ADD DUP1 DUP4 GT PUSH2 0xF9 JUMPI DUP3 SWAP1 SUB PUSH1 0x1F AND DUP3 ADD SWAP2 JUMPDEST POP POP POP POP POP DUP2 JUMP JUMPDEST DUP1 PUSH0 DUP1 DUP5 DUP2 MSTORE PUSH1 0x20 ADD SWAP1 DUP2 MSTORE PUSH1 0x20 ADD PUSH0 KECCAK256 SWAP1 DUP2 PUSH2 0x13B SWAP2 SWAP1 PUSH2 0x5BF JUMP JUMPDEST POP POP POP JUMP JUMPDEST PUSH0 PUSH1 0x40 MLOAD SWAP1 POP SWAP1 JUMP JUMPDEST PUSH0 DUP1 REVERT JUMPDEST PUSH0 DUP1 REVERT JUMPDEST PUSH0 DUP2 SWAP1 POP SWAP2 SWAP1 POP JUMP JUMPDEST PUSH2 0x163 DUP2 PUSH2 0x151 JUMP JUMPDEST DUP2 EQ PUSH2 0x16D JUMPI PUSH0 DUP1 REVERT JUMPDEST POP JUMP JUMPDEST PUSH0 DUP2 CALLDATALOAD SWAP1 POP PUSH2 0x17E DUP2 PUSH2 0x15A JUMP JUMPDEST SWAP3 SWAP2 POP POP JUMP JUMPDEST PUSH0 PUSH1 0x20 DUP3 DUP5 SUB SLT ISZERO PUSH2 0x199 JUMPI PUSH2 0x198 PUSH2 0x149 JUMP JUMPDEST JUMPDEST PUSH0 PUSH2 0x1A6 DUP5 DUP3 DUP6 ADD PUSH2 0x170 JUMP JUMPDEST SWAP2 POP POP SWAP3 SWAP2 POP POP JUMP JUMPDEST PUSH0 DUP2 MLOAD SWAP1 POP SWAP2 SWAP1 POP JUMP JUMPDEST PUSH0 DUP3 DUP3 MSTORE PUSH1 0x20 DUP3 ADD SWAP1 POP SWAP3 SWAP2 POP POP JUMP JUMPDEST DUP3 DUP2 DUP4 MCOPY PUSH0 DUP4 DUP4 ADD MSTORE POP POP POP JUMP JUMPDEST PUSH0 PUSH1 0x1F NOT PUSH1 0x1F DUP4 ADD AND SWAP1 POP SWAP2 SWAP1 POP JUMP JUMPDEST PUSH0 PUSH2 0x1F1 DUP3 PUSH2 0x1AF JUMP JUMPDEST PUSH2 0x1FB DUP2 DUP6 PUSH2 0x1B9 JUMP JUMPDEST SWAP4 POP PUSH2 0x20B DUP2 DUP6 PUSH1 0x20 DUP7 ADD PUSH2 0x1C9 JUMP JUMPDEST PUSH2 0x214 DUP2 PUSH2 0x1D7 JUMP JUMPDEST DUP5 ADD SWAP2 POP POP SWAP3 SWAP2 POP POP JUMP JUMPDEST PUSH0 PUSH1 0x20 DUP3 ADD SWAP1 POP DUP2 DUP2 SUB PUSH0 DUP4 ADD MSTORE PUSH2 0x237 DUP2 DUP5 PUSH2 0x1E7 JUMP JUMPDEST SWAP1 POP SWAP3 SWAP2 POP POP JUMP JUMPDEST PUSH0 DUP1 REVERT JUMPDEST PUSH0 DUP1 REVERT JUMPDEST PUSH32 0x4E487B7100000000000000000000000000000000000000000000000000000000 PUSH0 MSTORE PUSH1 0x41 PUSH1 0x4 MSTORE PUSH1 0x24 PUSH0 REVERT JUMPDEST PUSH2 0x27D DUP3 PUSH2 0x1D7 JUMP JUMPDEST DUP2 ADD DUP2 DUP2 LT PUSH8 0xFFFFFFFFFFFFFFFF DUP3 GT OR ISZERO PUSH2 0x29C JUMPI PUSH2 0x29B PUSH2 0x247 JUMP JUMPDEST JUMPDEST DUP1 PUSH1 0x40 MSTORE POP POP POP JUMP JUMPDEST PUSH0 PUSH2 0x2AE PUSH2 0x140 JUMP JUMPDEST SWAP1 POP PUSH2 0x2BA DUP3 DUP3 PUSH2 0x274 JUMP JUMPDEST SWAP2 SWAP1 POP JUMP JUMPDEST PUSH0 PUSH8 0xFFFFFFFFFFFFFFFF DUP3 GT ISZERO PUSH2 0x2D9 JUMPI PUSH2 0x2D8 PUSH2 0x247 JUMP JUMPDEST JUMPDEST PUSH2 0x2E2 DUP3 PUSH2 0x1D7 JUMP JUMPDEST SWAP1 POP PUSH1 0x20 DUP2 ADD SWAP1 POP SWAP2 SWAP1 POP JUMP JUMPDEST DUP3 DUP2 DUP4 CALLDATACOPY PUSH0 DUP4 DUP4 ADD MSTORE POP POP POP JUMP JUMPDEST PUSH0 PUSH2 0x30F PUSH2 0x30A DUP5 PUSH2 0x2BF JUMP JUMPDEST PUSH2 0x2A5 JUMP JUMPDEST SWAP1 POP DUP3 DUP2 MSTORE PUSH1 0x20 DUP2 ADD DUP5 DUP5 DUP5 ADD GT ISZERO PUSH2 0x32B JUMPI PUSH2 0x32A PUSH2 0x243 JUMP JUMPDEST JUMPDEST PUSH2 0x336 DUP5 DUP3 DUP6 PUSH2 0x2EF JUMP JUMPDEST POP SWAP4 SWAP3 POP POP POP JUMP JUMPDEST PUSH0 DUP3 PUSH1 0x1F DUP4 ADD SLT PUSH2 0x352 JUMPI PUSH2 0x351 PUSH2 0x23F JUMP JUMPDEST JUMPDEST DUP2 CALLDATALOAD PUSH2 0x362 DUP5 DUP3 PUSH1 0x20 DUP7 ADD PUSH2 0x2FD JUMP JUMPDEST SWAP2 POP POP SWAP3 SWAP2 POP POP JUMP JUMPDEST PUSH0 DUP1 PUSH1 0x40 DUP4 DUP6 SUB SLT ISZERO PUSH2 0x381 JUMPI PUSH2 0x380 PUSH2 0x149 JUMP JUMPDEST JUMPDEST PUSH0 PUSH2 0x38E DUP6 DUP3 DUP7 ADD PUSH2 0x170 JUMP JUMPDEST SWAP3 POP POP PUSH1 0x20 DUP4 ADD CALLDATALOAD PUSH8 0xFFFFFFFFFFFFFFFF DUP2 GT ISZERO PUSH2 0x3AF JUMPI PUSH2 0x3AE PUSH2 0x14D JUMP JUMPDEST JUMPDEST PUSH2 0x3BB DUP6 DUP3 DUP7 ADD PUSH2 0x33E JUMP JUMPDEST SWAP2 POP POP SWAP3 POP SWAP3 SWAP1 POP JUMP JUMPDEST PUSH32 0x4E487B7100000000000000000000000000000000000000000000000000000000 PUSH0 MSTORE PUSH1 0x22 PUSH1 0x4 MSTORE PUSH1 0x24 PUSH0 REVERT JUMPDEST PUSH0 PUSH1 0x2 DUP3 DIV SWAP1 POP PUSH1 0x1 DUP3 AND DUP1 PUSH2 0x409 JUMPI PUSH1 0x7F DUP3 AND SWAP2 POP JUMPDEST PUSH1 0x20 DUP3 LT DUP2 SUB PUSH2 0x41C JUMPI PUSH2 0x41B PUSH2 0x3C5 JUMP JUMPDEST JUMPDEST POP SWAP2 SWAP1 POP JUMP JUMPDEST PUSH0 DUP2 SWAP1 POP DUP2 PUSH0 MSTORE PUSH1 0x20 PUSH0 KECCAK256 SWAP1 POP SWAP2 SWAP1 POP JUMP JUMPDEST PUSH0 PUSH1 0x20 PUSH1 0x1F DUP4 ADD DIV SWAP1 POP SWAP2 SWAP1 POP JUMP JUMPDEST PUSH0 DUP3 DUP3 SHL SWAP1 POP SWAP3 SWAP2 POP POP JUMP JUMPDEST PUSH0 PUSH1 0x8 DUP4 MUL PUSH2 0x47E PUSH32 0xFFFFFFFFFFFFFFFFFFFFFFFFFFFFFFFFFFFFFFFFFFFFFFFFFFFFFFFFFFFFFFFF DUP3 PUSH2 0x443 JUMP JUMPDEST PUSH2 0x488 DUP7 DUP4 PUSH2 0x443 JUMP JUMPDEST SWAP6 POP DUP1 NOT DUP5 AND SWAP4 POP DUP1 DUP7 AND DUP5 OR SWAP3 POP POP POP SWAP4 SWAP3 POP POP POP JUMP JUMPDEST PUSH0 DUP2 SWAP1 POP SWAP2 SWAP1 POP JUMP JUMPDEST PUSH0 PUSH2 0x4C3 PUSH2 0x4BE PUSH2 0x4B9 DUP5 PUSH2 0x151 JUMP JUMPDEST PUSH2 0x4A0 JUMP JUMPDEST PUSH2 0x151 JUMP JUMPDEST SWAP1 POP SWAP2 SWAP1 POP JUMP JUMPDEST PUSH0 DUP2 SWAP1 POP SWAP2 SWAP1 POP JUMP JUMPDEST PUSH2 0x4DC DUP4 PUSH2 0x4A9 JUMP JUMPDEST PUSH2 0x4F0 PUSH2 0x4E8 DUP3 PUSH2 0x4CA JUMP JUMPDEST DUP5 DUP5 SLOAD PUSH2 0x44F JUMP JUMPDEST DUP3 SSTORE POP POP POP POP JUMP JUMPDEST PUSH0 SWAP1 JUMP JUMPDEST PUSH2 0x504 PUSH2 0x4F8 JUMP JUMPDEST PUSH2 0x50F DUP2 DUP5 DUP5 PUSH2 0x4D3 JUMP JUMPDEST POP POP POP JUMP JUMPDEST JUMPDEST DUP2 DUP2 LT ISZERO PUSH2 0x532 JUMPI PUSH2 0x527 PUSH0 DUP3 PUSH2 0x4FC JUMP JUMPDEST PUSH1 0x1 DUP2 ADD SWAP1 POP PUSH2 0x515 JUMP JUMPDEST POP POP JUMP JUMPDEST PUSH1 0x1F DUP3 GT ISZERO PUSH2 0x577 JUMPI PUSH2 0x548 DUP2 PUSH2 0x422 JUMP JUMPDEST PUSH2 0x551 DUP5 PUSH2 0x434 JUMP JUMPDEST DUP2 ADD PUSH1 0x20 DUP6 LT ISZERO PUSH2 0x560 JUMPI DUP2 SWAP1 POP JUMPDEST PUSH2 0x574 PUSH2 0x56C DUP6 PUSH2 0x434 JUMP JUMPDEST DUP4 ADD DUP3 PUSH2 0x514 JUMP JUMPDEST POP POP JUMPDEST POP POP POP JUMP JUMPDEST PUSH0 DUP3 DUP3 SHR SWAP1 POP SWAP3 SWAP2 POP POP JUMP JUMPDEST PUSH0 PUSH2 0x597 PUSH0 NOT DUP5 PUSH1 0x8 MUL PUSH2 0x57C JUMP JUMPDEST NOT DUP1 DUP4 AND SWAP2 POP POP SWAP3 SWAP2 POP POP JUMP JUMPDEST PUSH0 PUSH2 0x5AF DUP4 DUP4 PUSH2 0x588 JUMP JUMPDEST SWAP2 POP DUP3 PUSH1 0x2 MUL DUP3 OR SWAP1 POP SWAP3 SWAP2 POP POP JUMP JUMPDEST PUSH2 0x5C8 DUP3 PUSH2 0x1AF JUMP JUMPDEST PUSH8 0xFFFFFFFFFFFFFFFF DUP2 GT ISZERO PUSH2 0x5E1 JUMPI PUSH2 0x5E0 PUSH2 0x247 JUMP JUMPDEST JUMPDEST PUSH2 0x5EB DUP3 SLOAD PUSH2 0x3F2 JUMP JUMPDEST PUSH2 0x5F6 DUP3 DUP3 DUP6 PUSH2 0x536 JUMP JUMPDEST PUSH0 PUSH1 0x20 SWAP1 POP PUSH1 0x1F DUP4 GT PUSH1 0x1 DUP2 EQ PUSH2 0x627 JUMPI PUSH0 DUP5 ISZERO PUSH2 0x615 JUMPI DUP3 DUP8 ADD MLOAD SWAP1 POP JUMPDEST PUSH2 0x61F DUP6 DUP3 PUSH2 0x5A4 JUMP JUMPDEST DUP7 SSTORE POP PUSH2 0x686 JUMP JUMPDEST PUSH1 0x1F NOT DUP5 AND PUSH2 0x635 DUP7 PUSH2 0x422 JUMP JUMPDEST PUSH0 JUMPDEST DUP3 DUP2 LT ISZERO PUSH2 0x65C JUMPI DUP5 DUP10 ADD MLOAD DUP3 SSTORE PUSH1 0x1 DUP3 ADD SWAP2 POP PUSH1 0x20 DUP6 ADD SWAP5 POP PUSH1 0x20 DUP2 ADD SWAP1 POP PUSH2 0x637 JUMP JUMPDEST DUP7 DUP4 LT ISZERO PUSH2 0x679 JUMPI DUP5 DUP10 ADD MLOAD PUSH2 0x675 PUSH1 0x1F DUP10 AND DUP3 PUSH2 0x588 JUMP JUMPDEST DUP4 SSTORE POP JUMPDEST PUSH1 0x1 PUSH1 0x2 DUP9 MUL ADD DUP9 SSTORE POP POP POP JUMPDEST POP POP POP POP POP POP JUMP INVALID LOG2 PUSH5 0x6970667358 0x22 SLT KECCAK256 0xBB 0xD9 SAR 0xB4 0xD2 BLOBBASEFEE SLT CALL 0xA8 JUMPI CHAINID SWAP1 0xB3 0x24 PUSH20 0x1FD251A358C58CE1000756268FBD19B8DC64736F PUSH13 0x634300081A0033000000000000 "
				},
				"gasEstimates": {
					"creation": {
						"codeDepositCost": "346400",
						"executionCost": "384",
						"totalCost": "346784"
					},
					"external": {
						"rollNumber(uint256)": "infinite",
						"setter(uint256,string)": "infinite"
					}
				},
				"methodIdentifiers": {
					"rollNumber(uint256)": "ab0cd55c",
					"setter(uint256,string)": "bcb131c9"
				}
			},
			"storageLayout": {
				"storage": [
					{
						"astId": 5,
						"contract": "four/mappingA.sol:demo",
						"label": "rollNumber",
						"offset": 0,
						"slot": "0",
						"type": "t_mapping(t_uint256,t_string_storage)"
					}
				],
				"types": {
					"t_mapping(t_uint256,t_string_storage)": {
						"encoding": "mapping",
						"key": "t_uint256",
						"label": "mapping(uint256 => string)",
						"numberOfBytes": "32",
						"value": "t_string_storage"
					},
					"t_string_storage": {
						"encoding": "bytes",
						"label": "string",
						"numberOfBytes": "32"
					},
					"t_uint256": {
						"encoding": "inplace",
						"label": "uint256",
						"numberOfBytes": "32"
					}
				}
			},
			"userdoc": {
				"kind": "user",
				"methods": {},
				"version": 1
			}
		}
	}
}